{
  "address": "0xf91bD8d711ed94EfFE5D25164c30323A03fF1A89",
  "abi": [
    {
      "anonymous": false,
      "inputs": [
        {
          "indexed": true,
          "internalType": "enum UserType",
          "name": "_type",
          "type": "uint8"
        },
        {
          "indexed": true,
          "internalType": "string",
          "name": "userId",
          "type": "string"
        },
        {
          "indexed": true,
          "internalType": "uint256",
          "name": "userIndex",
          "type": "uint256"
        }
      ],
      "name": "RegisterUser",
      "type": "event"
    },
    {
      "inputs": [
        {
          "internalType": "uint256",
          "name": "_level",
          "type": "uint256"
        }
      ],
      "name": "admin_getLevelInfos",
      "outputs": [
        {
          "components": [
            {
              "internalType": "uint256",
              "name": "level",
              "type": "uint256"
            },
            {
              "internalType": "uint256",
              "name": "requireExp",
              "type": "uint256"
            },
            {
              "internalType": "uint256",
              "name": "levelUserCount",
              "type": "uint256"
            },
            {
              "internalType": "uint256",
              "name": "heartMax",
              "type": "uint256"
            }
          ],
          "internalType": "struct levelInfo",
          "name": "",
          "type": "tuple"
        }
      ],
      "stateMutability": "view",
      "type": "function"
    },
    {
      "inputs": [
        {
          "internalType": "enum UserType",
          "name": "_type",
          "type": "uint8"
        },
        {
          "internalType": "string",
          "name": "_userId",
          "type": "string"
        },
        {
          "internalType": "address",
          "name": "_delegateEOA",
          "type": "address"
        },
        {
          "internalType": "string",
          "name": "_refferalId",
          "type": "string"
        }
      ],
      "name": "admin_registerMessengerUser",
      "outputs": [],
      "stateMutability": "nonpayable",
      "type": "function"
    },
    {
      "inputs": [
        {
          "internalType": "uint256",
          "name": "_level",
          "type": "uint256"
        },
        {
          "internalType": "uint256",
          "name": "_requireExp",
          "type": "uint256"
        },
        {
          "internalType": "uint256",
          "name": "_heartMax",
          "type": "uint256"
        }
      ],
      "name": "admin_setLevelInfo",
      "outputs": [],
      "stateMutability": "nonpayable",
      "type": "function"
    },
    {
      "inputs": [
        {
          "internalType": "string",
          "name": "_userId",
          "type": "string"
        },
        {
          "internalType": "uint256",
          "name": "_level",
          "type": "uint256"
        },
        {
          "internalType": "uint256",
          "name": "_exp",
          "type": "uint256"
        },
        {
          "internalType": "uint256",
          "name": "_point",
          "type": "uint256"
        },
        {
          "internalType": "uint256",
          "name": "_heartMax",
          "type": "uint256"
        }
      ],
      "name": "admin_userMigration",
      "outputs": [],
      "stateMutability": "nonpayable",
      "type": "function"
    },
    {
      "inputs": [
        {
          "internalType": "bytes32",
          "name": "_keyHash",
          "type": "bytes32"
        },
        {
          "internalType": "uint64",
          "name": "_accId",
          "type": "uint64"
        },
        {
          "internalType": "uint32",
          "name": "_callbackGasLimit",
          "type": "uint32"
        }
      ],
      "name": "admin_vrfSettings",
      "outputs": [],
      "stateMutability": "nonpayable",
      "type": "function"
    },
    {
      "inputs": [
        {
          "internalType": "string",
          "name": "_name",
          "type": "string"
        }
      ],
      "name": "getContract",
      "outputs": [
        {
          "internalType": "address",
          "name": "",
          "type": "address"
        }
      ],
      "stateMutability": "view",
      "type": "function"
    },
    {
      "inputs": [
        {
          "internalType": "string",
          "name": "_name",
          "type": "string"
        },
        {
          "internalType": "address",
          "name": "_address",
          "type": "address"
        }
      ],
      "name": "setContract",
      "outputs": [],
      "stateMutability": "nonpayable",
      "type": "function"
    }
  ],
  "transactionHash": "0x192112ca8a502b5823dca3cd3b98159afd3b4bfa7b57ba519688842fa9caace9",
  "args": [],
  "numDeployments": 30,
  "solcInputHash": "d24fb25d9b59f17931e07f78dc4a8836",
  "bytecode": "0x6080806040523461001657610cb2908161001c8239f35b600080fdfe6080604052600436101561001257600080fd5b60003560e01c806306086ea7146109865780630bfe59fc1461094457806335817773146108e65780633f0ed0df1461087657806345bca7b81461016e5780637f31277e146100e2576389482e421461006957600080fd5b346100dd5760603660031901126100dd5760243567ffffffffffffffff81168091036100dd576044359063ffffffff821682036100dd576100a8610b88565b600435600b556bffffffff0000000000000000600c549260401b16916bffffffffffffffffffffffff19161717600c55600080f35b600080fd5b346100dd5760203660031901126100dd57600060606100ff610aa8565b828152826020820152826040820152015260043560005260066020526080604060002061012a610aa8565b815491828252600181015460208301908152606060036002840154936040860194855201549301928352604051938452516020840152516040830152516060820152f35b346100dd5760803660031901126100dd57600360043510156100dd5760243567ffffffffffffffff81116100dd576101aa903690600401610ac8565b6044356001600160a01b0380821682036100dd5760643567ffffffffffffffff81116100dd576101de903690600401610ac8565b916101e7610b88565b60005b8451811015610227576001906102136001600160f81b031961020c8389610c0b565b5116610c32565b60001a6102208288610c0b565b53016101ea565b50909182600360405160208161023d818a610b2b565b60018152030190200154166108145760405160208161025c8188610b2b565b6001815203019020845167ffffffffffffffff8111610671578154600181811c9116801561080a575b602082101461065157601f81116107c6575b50806020601f821160011461075f57600091610754575b508160011b916000199060031b1c19161790555b60036040516020816102d48189610b2b565b600181520301902001805460ff60a01b191660043560a01b60ff60a01b161790556040516003906020816103088189610b2b565b60018152030190200180546001600160a01b0319168385161790556040516004906020816103368189610b2b565b600181520301902001815167ffffffffffffffff8111610671578154600181811c9116801561074a575b602082101461065157601f8111610702575b506020601f821160011461069257926103b49282602093600596600091610687575b508160011b916000199060031b1c19161790555b60405192838092610b2b565b6001815203019020016103c78154610b79565b90556002548060016040516020816103df818a610b2b565b848152030190200155806040516020816103f98189610b2b565b60038152030190205560005260056020526001600460406000200155600254600052600560066040600020015560025460005260056007604060002001556002546000524260096040600020015560025460005260016040600020018282166bffffffffffffffffffffffff60a01b82541617905560016002548383166000526004602052604060002090815501835167ffffffffffffffff8111610671578154600181811c91168015610667575b602082101461065157601f8111610609575b50806020601f82116001146105a55760009161059a575b508160011b916000199060031b1c19161790555b600160005260066020527f3e5fec24aa4dc4e5aee2e025e51e1392c72a2500577559fae9665c6d52bd6a33805461051b90610b79565b90551660005260076020526040600020600160ff1982541617905561055f6040516020816105498186610b2b565b6003815203019020549160405191828092610b2b565b0390206004357fd0cb6b6a3ec896a28c9cbdc1c1d8bd5974bffca7bc1e7d79d23f8077dd03a1b2600080a4610595600254610b79565b600255005b9050850151866104d1565b6000848152602081209250601f198416905b8181106105f1575090836001949392106105d8575b5050811b0190556104e5565b87015160001960f88460031b161c1916905586806105cc565b9192602060018192868c0151815501940192016105b7565b826000526020600020601f830160051c81019160208410610647575b601f0160051c01905b81811061063b57506104ba565b6000815560010161062e565b9091508190610625565b634e487b7160e01b600052602260045260246000fd5b90607f16906104a8565b634e487b7160e01b600052604160045260246000fd5b90508301518a610394565b8260005260206000209060005b601f19841681106106ea575092600183600596936103b496602096601f198116106106d1575b5050811b0190556103a8565b85015160001960f88460031b161c191690558a806106c5565b9091602060018192858901518155019301910161069f565b826000526020600020601f830160051c81019160208410610740575b601f0160051c01905b8181106107345750610372565b60008155600101610727565b909150819061071e565b90607f1690610360565b9050860151876102ae565b91508260005260206000206000925b601f19831684106107ae576001935082601f19811610610795575b5050811b0190556102c2565b88015160001960f88460031b161c191690558780610789565b8881015182556020938401936001909201910161076e565b826000526020600020601f830160051c810160208410610803575b601f830160051c820181106107f7575050610297565b600081556001016107e1565b50806107e1565b90607f1690610285565b60405162461bcd60e51b815260206004820152603460248201527f61646d696e5f72656769737465724d657373656e676572557365723a207573656044820152731c88185b1c9958591e481c9959da5cdd195c995960621b6064820152608490fd5b346100dd5760403660031901126100dd5760043567ffffffffffffffff81116100dd576108a7903690600401610ac8565b6024356001600160a01b03811691908290036100dd5760206108cb916103a8610b88565b600081520301902080546001600160a01b0319169091179055005b346100dd5760203660031901126100dd5760043567ffffffffffffffff81116100dd576109196020913690600401610ac8565b6109266040518092610b2b565b6000815281900382019020546040516001600160a01b039091168152f35b346100dd5760603660031901126100dd57600435610960610b88565b806000526006602052604060002090815560243560018201556003604435910155600080f35b346100dd5760a03660031901126100dd5760043567ffffffffffffffff81116100dd576109b7903690600401610ac8565b600a606435916109c5610b88565b610a6f604051916109d68382610b2b565b9060038252836020809581940301902054600052600582526024356004604060002001556040518281610a098185610b2b565b600381520301902054600052600582526005604060002001610a2e6044358254610b56565b90556040518281610a3f8185610b2b565b6003815203019020546000526005825284604060002001610a61878254610b56565b905560405192838092610b2b565b60038152030190205460005260058152608435600660406000200155600160005252610aa46001604060002001918254610b56565b9055005b604051906080820182811067ffffffffffffffff82111761067157604052565b81601f820112156100dd5780359067ffffffffffffffff928383116106715760405193601f8401601f19908116603f011685019081118582101761067157604052828452602083830101116100dd57816000926020809301838601378301015290565b9081519160005b838110610b43575050016000815290565b8060208092840101518185015201610b32565b91908201809211610b6357565b634e487b7160e01b600052601160045260246000fd5b6000198114610b635760010190565b7fc8fcad8db84d3cc18b4c41d551ea0ee66dd599cde068d998e57d5e09332c1320546001600160a01b03163303610bbb57565b60405162461bcd60e51b815260206004820152602260248201527f4c69624469616d6f6e643a204d75737420626520636f6e7472616374206f776e60448201526132b960f11b6064820152608490fd5b908151811015610c1c570160200190565b634e487b7160e01b600052603260045260246000fd5b6001600160f81b0319604160f81b828216908110159081610c6d575b50610c57575090565b9060f81c60200160ff8111610b635760f81b1690565b602d60f91b1015905038610c4e56fea26469706673582212201712e7939e3d9594ff934e9b50e3927c12acf87e6134a050bbf1a7665128864a64736f6c63430008180033",
  "devdoc": {
    "kind": "dev",
    "methods": {},
    "version": 1
  },
  "userdoc": {
    "kind": "user",
    "methods": {},
    "version": 1
  },
  "storageLayout": {
    "storage": [
      {
        "astId": 5840,
        "contract": "contracts/elementa/adminFacet.sol:adminFacet",
        "label": "s",
        "offset": 0,
        "slot": "0",
        "type": "t_struct(AppStorage)5793_storage"
      }
    ],
    "types": {
      "t_address": {
        "encoding": "inplace",
        "label": "address",
        "numberOfBytes": "20"
      },
      "t_array(t_uint256)10_storage": {
        "base": "t_uint256",
        "encoding": "inplace",
        "label": "uint256[10]",
        "numberOfBytes": "320"
      },
      "t_bool": {
        "encoding": "inplace",
        "label": "bool",
        "numberOfBytes": "1"
      },
      "t_bytes32": {
        "encoding": "inplace",
        "label": "bytes32",
        "numberOfBytes": "32"
      },
      "t_enum(EquipmentType)5805": {
        "encoding": "inplace",
        "label": "enum EquipmentType",
        "numberOfBytes": "1"
      },
      "t_enum(UserType)5811": {
        "encoding": "inplace",
        "label": "enum UserType",
        "numberOfBytes": "1"
      },
      "t_mapping(t_address,t_bool)": {
        "encoding": "mapping",
        "key": "t_address",
        "label": "mapping(address => bool)",
        "numberOfBytes": "32",
        "value": "t_bool"
      },
      "t_mapping(t_address,t_struct(DelegateEOA)5665_storage)": {
        "encoding": "mapping",
        "key": "t_address",
        "label": "mapping(address => struct DelegateEOA)",
        "numberOfBytes": "32",
        "value": "t_struct(DelegateEOA)5665_storage"
      },
      "t_mapping(t_string_memory_ptr,t_address)": {
        "encoding": "mapping",
        "key": "t_string_memory_ptr",
        "label": "mapping(string => address)",
        "numberOfBytes": "32",
        "value": "t_address"
      },
      "t_mapping(t_string_memory_ptr,t_struct(User)5656_storage)": {
        "encoding": "mapping",
        "key": "t_string_memory_ptr",
        "label": "mapping(string => struct User)",
        "numberOfBytes": "32",
        "value": "t_struct(User)5656_storage"
      },
      "t_mapping(t_string_memory_ptr,t_uint256)": {
        "encoding": "mapping",
        "key": "t_string_memory_ptr",
        "label": "mapping(string => uint256)",
        "numberOfBytes": "32",
        "value": "t_uint256"
      },
      "t_mapping(t_uint256,t_array(t_uint256)10_storage)": {
        "encoding": "mapping",
        "key": "t_uint256",
        "label": "mapping(uint256 => uint256[10])",
        "numberOfBytes": "32",
        "value": "t_array(t_uint256)10_storage"
      },
      "t_mapping(t_uint256,t_struct(ElementaItem)5720_storage)": {
        "encoding": "mapping",
        "key": "t_uint256",
        "label": "mapping(uint256 => struct ElementaItem)",
        "numberOfBytes": "32",
        "value": "t_struct(ElementaItem)5720_storage"
      },
      "t_mapping(t_uint256,t_struct(ElementaNFT)5699_storage)": {
        "encoding": "mapping",
        "key": "t_uint256",
        "label": "mapping(uint256 => struct ElementaNFT)",
        "numberOfBytes": "32",
        "value": "t_struct(ElementaNFT)5699_storage"
      },
      "t_mapping(t_uint256,t_struct(ElementaToken)5725_storage)": {
        "encoding": "mapping",
        "key": "t_uint256",
        "label": "mapping(uint256 => struct ElementaToken)",
        "numberOfBytes": "32",
        "value": "t_struct(ElementaToken)5725_storage"
      },
      "t_mapping(t_uint256,t_struct(MysteryBox)5704_storage)": {
        "encoding": "mapping",
        "key": "t_uint256",
        "label": "mapping(uint256 => struct MysteryBox)",
        "numberOfBytes": "32",
        "value": "t_struct(MysteryBox)5704_storage"
      },
      "t_mapping(t_uint256,t_struct(levelInfo)5674_storage)": {
        "encoding": "mapping",
        "key": "t_uint256",
        "label": "mapping(uint256 => struct levelInfo)",
        "numberOfBytes": "32",
        "value": "t_struct(levelInfo)5674_storage"
      },
      "t_string_memory_ptr": {
        "encoding": "bytes",
        "label": "string",
        "numberOfBytes": "32"
      },
      "t_string_storage": {
        "encoding": "bytes",
        "label": "string",
        "numberOfBytes": "32"
      },
      "t_struct(AppStorage)5793_storage": {
        "encoding": "inplace",
        "label": "struct AppStorage",
        "members": [
          {
            "astId": 5738,
            "contract": "contracts/elementa/adminFacet.sol:adminFacet",
            "label": "contracts",
            "offset": 0,
            "slot": "0",
            "type": "t_mapping(t_string_memory_ptr,t_address)"
          },
          {
            "astId": 5743,
            "contract": "contracts/elementa/adminFacet.sol:adminFacet",
            "label": "users",
            "offset": 0,
            "slot": "1",
            "type": "t_mapping(t_string_memory_ptr,t_struct(User)5656_storage)"
          },
          {
            "astId": 5745,
            "contract": "contracts/elementa/adminFacet.sol:adminFacet",
            "label": "globalUserIndex",
            "offset": 0,
            "slot": "2",
            "type": "t_uint256"
          },
          {
            "astId": 5749,
            "contract": "contracts/elementa/adminFacet.sol:adminFacet",
            "label": "userIndex",
            "offset": 0,
            "slot": "3",
            "type": "t_mapping(t_string_memory_ptr,t_uint256)"
          },
          {
            "astId": 5754,
            "contract": "contracts/elementa/adminFacet.sol:adminFacet",
            "label": "delegateEOAs",
            "offset": 0,
            "slot": "4",
            "type": "t_mapping(t_address,t_struct(DelegateEOA)5665_storage)"
          },
          {
            "astId": 5759,
            "contract": "contracts/elementa/adminFacet.sol:adminFacet",
            "label": "elementaNFTs",
            "offset": 0,
            "slot": "5",
            "type": "t_mapping(t_uint256,t_struct(ElementaNFT)5699_storage)"
          },
          {
            "astId": 5764,
            "contract": "contracts/elementa/adminFacet.sol:adminFacet",
            "label": "levelInfos",
            "offset": 0,
            "slot": "6",
            "type": "t_mapping(t_uint256,t_struct(levelInfo)5674_storage)"
          },
          {
            "astId": 5768,
            "contract": "contracts/elementa/adminFacet.sol:adminFacet",
            "label": "isDelegateEOA",
            "offset": 0,
            "slot": "7",
            "type": "t_mapping(t_address,t_bool)"
          },
          {
            "astId": 5773,
            "contract": "contracts/elementa/adminFacet.sol:adminFacet",
            "label": "elementaItems",
            "offset": 0,
            "slot": "8",
            "type": "t_mapping(t_uint256,t_struct(ElementaItem)5720_storage)"
          },
          {
            "astId": 5779,
            "contract": "contracts/elementa/adminFacet.sol:adminFacet",
            "label": "equipItems",
            "offset": 0,
            "slot": "9",
            "type": "t_mapping(t_uint256,t_array(t_uint256)10_storage)"
          },
          {
            "astId": 5784,
            "contract": "contracts/elementa/adminFacet.sol:adminFacet",
            "label": "elementaToken",
            "offset": 0,
            "slot": "10",
            "type": "t_mapping(t_uint256,t_struct(ElementaToken)5725_storage)"
          },
          {
            "astId": 5787,
            "contract": "contracts/elementa/adminFacet.sol:adminFacet",
            "label": "oraklVRF",
            "offset": 0,
            "slot": "11",
            "type": "t_struct(OraklVRF)5734_storage"
          },
          {
            "astId": 5792,
            "contract": "contracts/elementa/adminFacet.sol:adminFacet",
            "label": "mysteryBoxes",
            "offset": 0,
            "slot": "13",
            "type": "t_mapping(t_uint256,t_struct(MysteryBox)5704_storage)"
          }
        ],
        "numberOfBytes": "448"
      },
      "t_struct(DelegateEOA)5665_storage": {
        "encoding": "inplace",
        "label": "struct DelegateEOA",
        "members": [
          {
            "astId": 5658,
            "contract": "contracts/elementa/adminFacet.sol:adminFacet",
            "label": "userIndex",
            "offset": 0,
            "slot": "0",
            "type": "t_uint256"
          },
          {
            "astId": 5660,
            "contract": "contracts/elementa/adminFacet.sol:adminFacet",
            "label": "userId",
            "offset": 0,
            "slot": "1",
            "type": "t_string_storage"
          },
          {
            "astId": 5662,
            "contract": "contracts/elementa/adminFacet.sol:adminFacet",
            "label": "connectAddress",
            "offset": 0,
            "slot": "2",
            "type": "t_address"
          },
          {
            "astId": 5664,
            "contract": "contracts/elementa/adminFacet.sol:adminFacet",
            "label": "isOwnNFT",
            "offset": 20,
            "slot": "2",
            "type": "t_bool"
          }
        ],
        "numberOfBytes": "96"
      },
      "t_struct(ElementaItem)5720_storage": {
        "encoding": "inplace",
        "label": "struct ElementaItem",
        "members": [
          {
            "astId": 5707,
            "contract": "contracts/elementa/adminFacet.sol:adminFacet",
            "label": "equipmentType",
            "offset": 0,
            "slot": "0",
            "type": "t_enum(EquipmentType)5805"
          },
          {
            "astId": 5709,
            "contract": "contracts/elementa/adminFacet.sol:adminFacet",
            "label": "itemId",
            "offset": 0,
            "slot": "1",
            "type": "t_uint256"
          },
          {
            "astId": 5711,
            "contract": "contracts/elementa/adminFacet.sol:adminFacet",
            "label": "name",
            "offset": 0,
            "slot": "2",
            "type": "t_string_storage"
          },
          {
            "astId": 5713,
            "contract": "contracts/elementa/adminFacet.sol:adminFacet",
            "label": "svgUri",
            "offset": 0,
            "slot": "3",
            "type": "t_string_storage"
          },
          {
            "astId": 5715,
            "contract": "contracts/elementa/adminFacet.sol:adminFacet",
            "label": "animateColors",
            "offset": 0,
            "slot": "4",
            "type": "t_string_storage"
          },
          {
            "astId": 5717,
            "contract": "contracts/elementa/adminFacet.sol:adminFacet",
            "label": "stopColor",
            "offset": 0,
            "slot": "5",
            "type": "t_string_storage"
          },
          {
            "astId": 5719,
            "contract": "contracts/elementa/adminFacet.sol:adminFacet",
            "label": "animateDuration",
            "offset": 0,
            "slot": "6",
            "type": "t_string_storage"
          }
        ],
        "numberOfBytes": "224"
      },
      "t_struct(ElementaNFT)5699_storage": {
        "encoding": "inplace",
        "label": "struct ElementaNFT",
        "members": [
          {
            "astId": 5676,
            "contract": "contracts/elementa/adminFacet.sol:adminFacet",
            "label": "ownerAddress",
            "offset": 0,
            "slot": "0",
            "type": "t_address"
          },
          {
            "astId": 5678,
            "contract": "contracts/elementa/adminFacet.sol:adminFacet",
            "label": "delegateAddress",
            "offset": 0,
            "slot": "1",
            "type": "t_address"
          },
          {
            "astId": 5680,
            "contract": "contracts/elementa/adminFacet.sol:adminFacet",
            "label": "nickName",
            "offset": 0,
            "slot": "2",
            "type": "t_string_storage"
          },
          {
            "astId": 5682,
            "contract": "contracts/elementa/adminFacet.sol:adminFacet",
            "label": "grade",
            "offset": 0,
            "slot": "3",
            "type": "t_uint256"
          },
          {
            "astId": 5684,
            "contract": "contracts/elementa/adminFacet.sol:adminFacet",
            "label": "level",
            "offset": 0,
            "slot": "4",
            "type": "t_uint256"
          },
          {
            "astId": 5686,
            "contract": "contracts/elementa/adminFacet.sol:adminFacet",
            "label": "exp",
            "offset": 0,
            "slot": "5",
            "type": "t_uint256"
          },
          {
            "astId": 5688,
            "contract": "contracts/elementa/adminFacet.sol:adminFacet",
            "label": "heartMax",
            "offset": 0,
            "slot": "6",
            "type": "t_uint256"
          },
          {
            "astId": 5690,
            "contract": "contracts/elementa/adminFacet.sol:adminFacet",
            "label": "heartPoint",
            "offset": 0,
            "slot": "7",
            "type": "t_uint256"
          },
          {
            "astId": 5692,
            "contract": "contracts/elementa/adminFacet.sol:adminFacet",
            "label": "plusHeartPoint",
            "offset": 0,
            "slot": "8",
            "type": "t_uint256"
          },
          {
            "astId": 5694,
            "contract": "contracts/elementa/adminFacet.sol:adminFacet",
            "label": "updateHeartTime",
            "offset": 0,
            "slot": "9",
            "type": "t_uint256"
          },
          {
            "astId": 5696,
            "contract": "contracts/elementa/adminFacet.sol:adminFacet",
            "label": "elementaPoint",
            "offset": 0,
            "slot": "10",
            "type": "t_uint256"
          },
          {
            "astId": 5698,
            "contract": "contracts/elementa/adminFacet.sol:adminFacet",
            "label": "originRandomValue",
            "offset": 0,
            "slot": "11",
            "type": "t_uint256"
          }
        ],
        "numberOfBytes": "384"
      },
      "t_struct(ElementaToken)5725_storage": {
        "encoding": "inplace",
        "label": "struct ElementaToken",
        "members": [
          {
            "astId": 5722,
            "contract": "contracts/elementa/adminFacet.sol:adminFacet",
            "label": "phaseMaxSupply",
            "offset": 0,
            "slot": "0",
            "type": "t_uint256"
          },
          {
            "astId": 5724,
            "contract": "contracts/elementa/adminFacet.sol:adminFacet",
            "label": "mintedSupply",
            "offset": 0,
            "slot": "1",
            "type": "t_uint256"
          }
        ],
        "numberOfBytes": "64"
      },
      "t_struct(MysteryBox)5704_storage": {
        "encoding": "inplace",
        "label": "struct MysteryBox",
        "members": [
          {
            "astId": 5701,
            "contract": "contracts/elementa/adminFacet.sol:adminFacet",
            "label": "boxId",
            "offset": 0,
            "slot": "0",
            "type": "t_uint256"
          },
          {
            "astId": 5703,
            "contract": "contracts/elementa/adminFacet.sol:adminFacet",
            "label": "uniqValue",
            "offset": 0,
            "slot": "1",
            "type": "t_uint256"
          }
        ],
        "numberOfBytes": "64"
      },
      "t_struct(OraklVRF)5734_storage": {
        "encoding": "inplace",
        "label": "struct OraklVRF",
        "members": [
          {
            "astId": 5727,
            "contract": "contracts/elementa/adminFacet.sol:adminFacet",
            "label": "keyHash",
            "offset": 0,
            "slot": "0",
            "type": "t_bytes32"
          },
          {
            "astId": 5729,
            "contract": "contracts/elementa/adminFacet.sol:adminFacet",
            "label": "accId",
            "offset": 0,
            "slot": "1",
            "type": "t_uint64"
          },
          {
            "astId": 5731,
            "contract": "contracts/elementa/adminFacet.sol:adminFacet",
            "label": "callbackGasLimit",
            "offset": 8,
            "slot": "1",
            "type": "t_uint32"
          },
          {
            "astId": 5733,
            "contract": "contracts/elementa/adminFacet.sol:adminFacet",
            "label": "numWords",
            "offset": 12,
            "slot": "1",
            "type": "t_uint32"
          }
        ],
        "numberOfBytes": "64"
      },
      "t_struct(User)5656_storage": {
        "encoding": "inplace",
        "label": "struct User",
        "members": [
          {
            "astId": 5642,
            "contract": "contracts/elementa/adminFacet.sol:adminFacet",
            "label": "userId",
            "offset": 0,
            "slot": "0",
            "type": "t_string_storage"
          },
          {
            "astId": 5644,
            "contract": "contracts/elementa/adminFacet.sol:adminFacet",
            "label": "nftId",
            "offset": 0,
            "slot": "1",
            "type": "t_uint256"
          },
          {
            "astId": 5646,
            "contract": "contracts/elementa/adminFacet.sol:adminFacet",
            "label": "reciveAddress",
            "offset": 0,
            "slot": "2",
            "type": "t_address"
          },
          {
            "astId": 5648,
            "contract": "contracts/elementa/adminFacet.sol:adminFacet",
            "label": "delegateEOA",
            "offset": 0,
            "slot": "3",
            "type": "t_address"
          },
          {
            "astId": 5651,
            "contract": "contracts/elementa/adminFacet.sol:adminFacet",
            "label": "userType",
            "offset": 20,
            "slot": "3",
            "type": "t_enum(UserType)5811"
          },
          {
            "astId": 5653,
            "contract": "contracts/elementa/adminFacet.sol:adminFacet",
            "label": "refferalId",
            "offset": 0,
            "slot": "4",
            "type": "t_string_storage"
          },
          {
            "astId": 5655,
            "contract": "contracts/elementa/adminFacet.sol:adminFacet",
            "label": "refferalCount",
            "offset": 0,
            "slot": "5",
            "type": "t_uint256"
          }
        ],
        "numberOfBytes": "192"
      },
      "t_struct(levelInfo)5674_storage": {
        "encoding": "inplace",
        "label": "struct levelInfo",
        "members": [
          {
            "astId": 5667,
            "contract": "contracts/elementa/adminFacet.sol:adminFacet",
            "label": "level",
            "offset": 0,
            "slot": "0",
            "type": "t_uint256"
          },
          {
            "astId": 5669,
            "contract": "contracts/elementa/adminFacet.sol:adminFacet",
            "label": "requireExp",
            "offset": 0,
            "slot": "1",
            "type": "t_uint256"
          },
          {
            "astId": 5671,
            "contract": "contracts/elementa/adminFacet.sol:adminFacet",
            "label": "levelUserCount",
            "offset": 0,
            "slot": "2",
            "type": "t_uint256"
          },
          {
            "astId": 5673,
            "contract": "contracts/elementa/adminFacet.sol:adminFacet",
            "label": "heartMax",
            "offset": 0,
            "slot": "3",
            "type": "t_uint256"
          }
        ],
        "numberOfBytes": "128"
      },
      "t_uint256": {
        "encoding": "inplace",
        "label": "uint256",
        "numberOfBytes": "32"
      },
      "t_uint32": {
        "encoding": "inplace",
        "label": "uint32",
        "numberOfBytes": "4"
      },
      "t_uint64": {
        "encoding": "inplace",
        "label": "uint64",
        "numberOfBytes": "8"
      }
    }
  }
}