{
  "address": "0x825F77eEE0Aa626057Cd8Be56B46c97867D0cbE8",
  "abi": [
    {
      "anonymous": false,
      "inputs": [
        {
          "indexed": true,
          "internalType": "string",
          "name": "userId",
          "type": "string"
        },
        {
          "indexed": true,
          "internalType": "uint256",
          "name": "result",
          "type": "uint256"
        }
      ],
      "name": "playDiceEvent",
      "type": "event"
    },
    {
      "anonymous": false,
      "inputs": [
        {
          "indexed": true,
          "internalType": "string",
          "name": "userId",
          "type": "string"
        },
        {
          "indexed": true,
          "internalType": "uint256",
          "name": "result",
          "type": "uint256"
        }
      ],
      "name": "playRouletteEvent",
      "type": "event"
    },
    {
      "anonymous": false,
      "inputs": [
        {
          "indexed": true,
          "internalType": "string",
          "name": "userId",
          "type": "string"
        },
        {
          "indexed": true,
          "internalType": "uint256",
          "name": "elementaId",
          "type": "uint256"
        },
        {
          "indexed": true,
          "internalType": "uint256",
          "name": "userLevel",
          "type": "uint256"
        }
      ],
      "name": "userUpgrade",
      "type": "event"
    },
    {
      "anonymous": false,
      "inputs": [
        {
          "indexed": true,
          "internalType": "address",
          "name": "userAddress",
          "type": "address"
        },
        {
          "indexed": true,
          "internalType": "uint256",
          "name": "amount",
          "type": "uint256"
        }
      ],
      "name": "widthdrawElementaToken",
      "type": "event"
    },
    {
      "inputs": [
        {
          "internalType": "uint256",
          "name": "_nftId",
          "type": "uint256"
        }
      ],
      "name": "calculateHeartPoint",
      "outputs": [
        {
          "internalType": "uint256",
          "name": "",
          "type": "uint256"
        }
      ],
      "stateMutability": "view",
      "type": "function"
    },
    {
      "inputs": [
        {
          "internalType": "uint256",
          "name": "_nftId",
          "type": "uint256"
        }
      ],
      "name": "calculateHeartTime",
      "outputs": [
        {
          "internalType": "uint256",
          "name": "",
          "type": "uint256"
        }
      ],
      "stateMutability": "view",
      "type": "function"
    },
    {
      "inputs": [
        {
          "internalType": "string",
          "name": "_userId",
          "type": "string"
        }
      ],
      "name": "elementaUpgrade",
      "outputs": [],
      "stateMutability": "nonpayable",
      "type": "function"
    },
    {
      "inputs": [],
      "name": "getElementa20Info",
      "outputs": [
        {
          "internalType": "uint256",
          "name": "",
          "type": "uint256"
        },
        {
          "internalType": "uint256",
          "name": "",
          "type": "uint256"
        },
        {
          "internalType": "uint256",
          "name": "",
          "type": "uint256"
        }
      ],
      "stateMutability": "view",
      "type": "function"
    },
    {
      "inputs": [
        {
          "internalType": "string",
          "name": "_userId",
          "type": "string"
        }
      ],
      "name": "isLevelUp",
      "outputs": [
        {
          "internalType": "bool",
          "name": "",
          "type": "bool"
        }
      ],
      "stateMutability": "view",
      "type": "function"
    },
    {
      "inputs": [
        {
          "internalType": "string",
          "name": "_userId",
          "type": "string"
        },
        {
          "internalType": "uint256",
          "name": "_amount",
          "type": "uint256"
        }
      ],
      "name": "playDice",
      "outputs": [
        {
          "internalType": "uint256",
          "name": "",
          "type": "uint256"
        }
      ],
      "stateMutability": "nonpayable",
      "type": "function"
    },
    {
      "inputs": [
        {
          "internalType": "string",
          "name": "_userId",
          "type": "string"
        },
        {
          "internalType": "uint256",
          "name": "_amount",
          "type": "uint256"
        }
      ],
      "name": "playRoulette",
      "outputs": [
        {
          "internalType": "uint256",
          "name": "",
          "type": "uint256"
        }
      ],
      "stateMutability": "nonpayable",
      "type": "function"
    }
  ],
  "transactionHash": "0xd7ff0b552af5443a5993dace712488217f225509e307f35ef20967b418b67c72",
  "args": [],
  "numDeployments": 76,
  "solcInputHash": "3555641f7830f055c513bb247ac599d8",
  "bytecode": "0x6080806040523461001657610e5a908161001c8239f35b600080fdfe6040608081526004908136101561001557600080fd5b600091823560e01c90816319bb8b74146107905781633c7a43d81461050c5781634f3b71bb146104ec578163ae7fd844146102e3578163b50ef6fc146102b9578163cdb87ca814610098575063d41bde101461007057600080fd5b34610094578160031936011261009457606091815191818352816020840152820152f35b5080fd5b838334610094576100a83661089b565b91903384526020948086526100c18386205415156109c1565b6100e0835187816100d281876108cd565b600381520301902054610e00565b60018552600a8652828520835187816100f981876108cd565b60038152030190205486526005875283862060078101805480158015906102ac575b61012490610bcd565b60088301805490929015610292575050805460001981019190821161026c57555b678ac7230489e800009586810296818804149015171561027f5760058101805490600a820180921161026c5791600a916001949355016101868782546108f8565b9055016101948582546108f8565b90558251621b999d60ea1b8152856003820152602360018060a01b039120541690835187816101c381876108cd565b60038152030190205490823b156102685790602487928387519586948593630ad4782960e31b85528401525af1801561025e5784939291869161023f575b50506102337fbde6b358268687a57a765fca97482d5e6bdf1d9c90394a7cc6de65ae723f9b01918351918280926108cd565b03902091519480a38152f35b61024c91929394506107d6565b61025a579082918487610201565b8380fd5b83513d87823e3d90fd5b8680fd5b634e487b7160e01b895260118552602489fd5b634e487b7160e01b875260118352602487fd5b6000198201925090821161026c5755426009820155610145565b506008830154151561011b565b8284346102e05760203660031901126102e057506102d960209235610c19565b9051908152f35b80fd5b838334610094576102f33661089b565b919033845260209480865261030c8386205415156109c1565b82519061032f61031c83856108cd565b9288816003958681520301902054610e00565b60018652600a87528386208451888161034881886108cd565b86815203019020548752600588528487206007810180548581108015906104de575b61037390610bcd565b6008830191868354116000146104c4575050805460021981019190821161049e57555b678ac7230489e80000968781029781890414901517156104b15760058101805490601e820180921161049e5791600a916001949355016103d78882546108f8565b9055016103e58682546108f8565b90558351621b999d60ea1b81528683820152602360018060a01b039120541691878551809261041482886108cd565b908152030190205490823b156102685790602487928387519586948593630ad4782960e31b85528401525af1801561025e57849392918691610483575b50506102337f3bac9bae425cf10b911f766ffeda5040c2214cb2771df506a19a97c67a501009918351918280926108cd565b61049091929394506107d6565b61025a579082918487610451565b634e487b7160e01b8a526011855260248afd5b634e487b7160e01b885260118352602488fd5b6002198201925090821161049e5755426009820155610396565b50600883015486111561036a565b8284346102e05760203660031901126102e057506102d960209235610a19565b9190503461072f5760208060031936011261025a57823567ffffffffffffffff811161078c5761053f903690850161083f565b903385528381526105548386205415156109c1565b61055d8261091b565b1561075957825190621b999d60ea1b82526003918683820152602360018060a01b03912054168451828161059181886108cd565b868152030190205487526005825285858820015495600187018097116107465786885260068352600286892001805490600182018092116107335755855188919084816105de818a6108cd565b888152030190205482526005845287818884200155878252600684528487832001548751858161060e818b6108cd565b898152030190205483526005855260068884200155878252600684528487832001548751858161063e818b6108cd565b89815203019020548352600585526007888420015586518481610661818a6108cd565b8881520301902054825260058452426009888420015586518481610685818a6108cd565b888152030190205490833b1561072f576024908389519586948593630ad4782960e31b85528401525af180156107255761070c575b50906106e29291845180926106cf82866108cd565b90815203019020549251918280926108cd565b0390207f6b95a864619128204031150d0af28bc7f123caefdc26282fb432d0de806c2dc98480a480f35b9561071c6106e2949392976107d6565b959091926106ba565b85513d89823e3d90fd5b8280fd5b634e487b7160e01b8a526011835260248afd5b634e487b7160e01b885260119052602487fd5b8360649184519162461bcd60e51b8352820152600e60248201526d04e6f7420656e6f756768206578760941b6044820152fd5b8480fd5b8284346102e05760203660031901126102e05782359067ffffffffffffffff82116102e057506107c86020936107cd9236910161083f565b61091b565b90519015158152f35b67ffffffffffffffff81116107ea57604052565b634e487b7160e01b600052604160045260246000fd5b610180810190811067ffffffffffffffff8211176107ea57604052565b90601f8019910116810190811067ffffffffffffffff8211176107ea57604052565b81601f820112156108965780359067ffffffffffffffff82116107ea5760405192610874601f8401601f19166020018561081d565b8284526020838301011161089657816000926020809301838601378301015290565b600080fd5b6040600319820112610896576004359067ffffffffffffffff8211610896576108c69160040161083f565b9060243590565b9081519160005b8381106108e5575050016000815290565b80602080928401015181850152016108d4565b9190820180921161090557565b634e487b7160e01b600052601160045260246000fd5b60405160208161092b81856108cd565b60038152030190205490600091825260056020526109596020600460408520015492604051928380926108cd565b600381520301902054825260056020526005604083200154600182018083116109ad57835260066020526001604084200154111590816109a2575b5061099c5790565b50600190565b9050600a1138610994565b634e487b7160e01b84526011600452602484fd5b156109c857565b606460405162461bcd60e51b815260206004820152602060248201527f4d6f6469666965727346616365743a206e6f742064656c656761746520454f416044820152fd5b9190820391821161090557565b6000908152602060058152604082209160405191610a3683610800565b60018060a01b0391828554168452600192600186015416828501526002850160405193828254928360011c93600181168015610bc3575b8786108114610baf57858952889695949392918115610b8b5750600114610b4e575b50505050610a9f9250038261081d565b60408201526003820154606082015260048201546080820152600582015460a082015260068201549160c082019280845260078201549060e08401938285526008840154610100820152610160600b60098601549586610120850152600a81015461014085015201549101528114610b475750610b1f6107089142610a0c565b0490610b2c8282516108f8565b835111610b395750505190565b610b449250516108f8565b90565b9250505090565b815285812095935091905b818310610b73575050610a9f935082010138808080610a8f565b85548784018501529485019486945091830191610b59565b9350505050610a9f94925060ff191682840152151560051b82010138808080610a8f565b634e487b7160e01b84526022600452602484fd5b94607f1694610a6d565b15610bd457565b60405162461bcd60e51b815260206004820152601760248201527f4e6f7420656e6f75676820686561727420706f696e74730000000000000000006044820152606490fd5b600090815260209060058252604081209160405190610c3782610800565b83546001600160a01b03908116835260018581015490911683830152604051600286018054919392869280821c92908083168015610df6575b8685108114610de2578488528795949392918115610dc05750600114610d83575b505050610ca09250038261081d565b60408201526003830154606082015260048301546080820152600583015460a0820152610d1360068401549360c0830194855260078101549260e081019384526008820154610100820152610160600b60098401549384610120850152600a810154610140850152015491015242610a0c565b61070893610d258583048094516108f8565b905111610d33575050905090565b83820291808304851490151715610d6f5790610d4e91610a0c565b8203918211610d5b575090565b634e487b7160e01b81526011600452602490fd5b634e487b7160e01b83526011600452602483fd5b88528488209492508791905b818310610da8575050610ca09350820101388080610c91565b85548784018501529485019486945091830191610d8f565b92505050610ca094925060ff191682840152151560051b820101388080610c91565b634e487b7160e01b8a52602260045260248afd5b93607f1693610c70565b806000526005602052610e17604060002091610a19565b600782015560094291015556fea26469706673582212203f8ff40a5dac1c7e39131d844469ae14993a1b891ebd9115884bbd56e1e1061f64736f6c63430008180033",
  "devdoc": {
    "kind": "dev",
    "methods": {},
    "version": 1
  },
  "userdoc": {
    "events": {
      "playDiceEvent(string,uint256)": {
        "notice": "token preDistribution functions"
      }
    },
    "kind": "user",
    "methods": {},
    "version": 1
  },
  "storageLayout": {
    "storage": [
      {
        "astId": 4879,
        "contract": "contracts/elementa/botMiniGameFacet.sol:botMiniGameFacet",
        "label": "s",
        "offset": 0,
        "slot": "0",
        "type": "t_struct(AppStorage)4832_storage"
      }
    ],
    "types": {
      "t_address": {
        "encoding": "inplace",
        "label": "address",
        "numberOfBytes": "20"
      },
      "t_array(t_uint256)10_storage": {
        "base": "t_uint256",
        "encoding": "inplace",
        "label": "uint256[10]",
        "numberOfBytes": "320"
      },
      "t_bool": {
        "encoding": "inplace",
        "label": "bool",
        "numberOfBytes": "1"
      },
      "t_bytes32": {
        "encoding": "inplace",
        "label": "bytes32",
        "numberOfBytes": "32"
      },
      "t_enum(EquipmentType)4844": {
        "encoding": "inplace",
        "label": "enum EquipmentType",
        "numberOfBytes": "1"
      },
      "t_enum(UserType)4850": {
        "encoding": "inplace",
        "label": "enum UserType",
        "numberOfBytes": "1"
      },
      "t_mapping(t_address,t_bool)": {
        "encoding": "mapping",
        "key": "t_address",
        "label": "mapping(address => bool)",
        "numberOfBytes": "32",
        "value": "t_bool"
      },
      "t_mapping(t_address,t_struct(DelegateEOA)4704_storage)": {
        "encoding": "mapping",
        "key": "t_address",
        "label": "mapping(address => struct DelegateEOA)",
        "numberOfBytes": "32",
        "value": "t_struct(DelegateEOA)4704_storage"
      },
      "t_mapping(t_string_memory_ptr,t_address)": {
        "encoding": "mapping",
        "key": "t_string_memory_ptr",
        "label": "mapping(string => address)",
        "numberOfBytes": "32",
        "value": "t_address"
      },
      "t_mapping(t_string_memory_ptr,t_struct(User)4695_storage)": {
        "encoding": "mapping",
        "key": "t_string_memory_ptr",
        "label": "mapping(string => struct User)",
        "numberOfBytes": "32",
        "value": "t_struct(User)4695_storage"
      },
      "t_mapping(t_string_memory_ptr,t_uint256)": {
        "encoding": "mapping",
        "key": "t_string_memory_ptr",
        "label": "mapping(string => uint256)",
        "numberOfBytes": "32",
        "value": "t_uint256"
      },
      "t_mapping(t_uint256,t_array(t_uint256)10_storage)": {
        "encoding": "mapping",
        "key": "t_uint256",
        "label": "mapping(uint256 => uint256[10])",
        "numberOfBytes": "32",
        "value": "t_array(t_uint256)10_storage"
      },
      "t_mapping(t_uint256,t_struct(ElementaItem)4759_storage)": {
        "encoding": "mapping",
        "key": "t_uint256",
        "label": "mapping(uint256 => struct ElementaItem)",
        "numberOfBytes": "32",
        "value": "t_struct(ElementaItem)4759_storage"
      },
      "t_mapping(t_uint256,t_struct(ElementaNFT)4738_storage)": {
        "encoding": "mapping",
        "key": "t_uint256",
        "label": "mapping(uint256 => struct ElementaNFT)",
        "numberOfBytes": "32",
        "value": "t_struct(ElementaNFT)4738_storage"
      },
      "t_mapping(t_uint256,t_struct(ElementaToken)4764_storage)": {
        "encoding": "mapping",
        "key": "t_uint256",
        "label": "mapping(uint256 => struct ElementaToken)",
        "numberOfBytes": "32",
        "value": "t_struct(ElementaToken)4764_storage"
      },
      "t_mapping(t_uint256,t_struct(MysteryBox)4743_storage)": {
        "encoding": "mapping",
        "key": "t_uint256",
        "label": "mapping(uint256 => struct MysteryBox)",
        "numberOfBytes": "32",
        "value": "t_struct(MysteryBox)4743_storage"
      },
      "t_mapping(t_uint256,t_struct(levelInfo)4713_storage)": {
        "encoding": "mapping",
        "key": "t_uint256",
        "label": "mapping(uint256 => struct levelInfo)",
        "numberOfBytes": "32",
        "value": "t_struct(levelInfo)4713_storage"
      },
      "t_string_memory_ptr": {
        "encoding": "bytes",
        "label": "string",
        "numberOfBytes": "32"
      },
      "t_string_storage": {
        "encoding": "bytes",
        "label": "string",
        "numberOfBytes": "32"
      },
      "t_struct(AppStorage)4832_storage": {
        "encoding": "inplace",
        "label": "struct AppStorage",
        "members": [
          {
            "astId": 4777,
            "contract": "contracts/elementa/botMiniGameFacet.sol:botMiniGameFacet",
            "label": "contracts",
            "offset": 0,
            "slot": "0",
            "type": "t_mapping(t_string_memory_ptr,t_address)"
          },
          {
            "astId": 4782,
            "contract": "contracts/elementa/botMiniGameFacet.sol:botMiniGameFacet",
            "label": "users",
            "offset": 0,
            "slot": "1",
            "type": "t_mapping(t_string_memory_ptr,t_struct(User)4695_storage)"
          },
          {
            "astId": 4784,
            "contract": "contracts/elementa/botMiniGameFacet.sol:botMiniGameFacet",
            "label": "globalUserIndex",
            "offset": 0,
            "slot": "2",
            "type": "t_uint256"
          },
          {
            "astId": 4788,
            "contract": "contracts/elementa/botMiniGameFacet.sol:botMiniGameFacet",
            "label": "userIndex",
            "offset": 0,
            "slot": "3",
            "type": "t_mapping(t_string_memory_ptr,t_uint256)"
          },
          {
            "astId": 4793,
            "contract": "contracts/elementa/botMiniGameFacet.sol:botMiniGameFacet",
            "label": "delegateEOAs",
            "offset": 0,
            "slot": "4",
            "type": "t_mapping(t_address,t_struct(DelegateEOA)4704_storage)"
          },
          {
            "astId": 4798,
            "contract": "contracts/elementa/botMiniGameFacet.sol:botMiniGameFacet",
            "label": "elementaNFTs",
            "offset": 0,
            "slot": "5",
            "type": "t_mapping(t_uint256,t_struct(ElementaNFT)4738_storage)"
          },
          {
            "astId": 4803,
            "contract": "contracts/elementa/botMiniGameFacet.sol:botMiniGameFacet",
            "label": "levelInfos",
            "offset": 0,
            "slot": "6",
            "type": "t_mapping(t_uint256,t_struct(levelInfo)4713_storage)"
          },
          {
            "astId": 4807,
            "contract": "contracts/elementa/botMiniGameFacet.sol:botMiniGameFacet",
            "label": "isDelegateEOA",
            "offset": 0,
            "slot": "7",
            "type": "t_mapping(t_address,t_bool)"
          },
          {
            "astId": 4812,
            "contract": "contracts/elementa/botMiniGameFacet.sol:botMiniGameFacet",
            "label": "elementaItems",
            "offset": 0,
            "slot": "8",
            "type": "t_mapping(t_uint256,t_struct(ElementaItem)4759_storage)"
          },
          {
            "astId": 4818,
            "contract": "contracts/elementa/botMiniGameFacet.sol:botMiniGameFacet",
            "label": "equipItems",
            "offset": 0,
            "slot": "9",
            "type": "t_mapping(t_uint256,t_array(t_uint256)10_storage)"
          },
          {
            "astId": 4823,
            "contract": "contracts/elementa/botMiniGameFacet.sol:botMiniGameFacet",
            "label": "elementaToken",
            "offset": 0,
            "slot": "10",
            "type": "t_mapping(t_uint256,t_struct(ElementaToken)4764_storage)"
          },
          {
            "astId": 4826,
            "contract": "contracts/elementa/botMiniGameFacet.sol:botMiniGameFacet",
            "label": "oraklVRF",
            "offset": 0,
            "slot": "11",
            "type": "t_struct(OraklVRF)4773_storage"
          },
          {
            "astId": 4831,
            "contract": "contracts/elementa/botMiniGameFacet.sol:botMiniGameFacet",
            "label": "mysteryBoxes",
            "offset": 0,
            "slot": "13",
            "type": "t_mapping(t_uint256,t_struct(MysteryBox)4743_storage)"
          }
        ],
        "numberOfBytes": "448"
      },
      "t_struct(DelegateEOA)4704_storage": {
        "encoding": "inplace",
        "label": "struct DelegateEOA",
        "members": [
          {
            "astId": 4697,
            "contract": "contracts/elementa/botMiniGameFacet.sol:botMiniGameFacet",
            "label": "userIndex",
            "offset": 0,
            "slot": "0",
            "type": "t_uint256"
          },
          {
            "astId": 4699,
            "contract": "contracts/elementa/botMiniGameFacet.sol:botMiniGameFacet",
            "label": "userId",
            "offset": 0,
            "slot": "1",
            "type": "t_string_storage"
          },
          {
            "astId": 4701,
            "contract": "contracts/elementa/botMiniGameFacet.sol:botMiniGameFacet",
            "label": "connectAddress",
            "offset": 0,
            "slot": "2",
            "type": "t_address"
          },
          {
            "astId": 4703,
            "contract": "contracts/elementa/botMiniGameFacet.sol:botMiniGameFacet",
            "label": "isOwnNFT",
            "offset": 20,
            "slot": "2",
            "type": "t_bool"
          }
        ],
        "numberOfBytes": "96"
      },
      "t_struct(ElementaItem)4759_storage": {
        "encoding": "inplace",
        "label": "struct ElementaItem",
        "members": [
          {
            "astId": 4746,
            "contract": "contracts/elementa/botMiniGameFacet.sol:botMiniGameFacet",
            "label": "equipmentType",
            "offset": 0,
            "slot": "0",
            "type": "t_enum(EquipmentType)4844"
          },
          {
            "astId": 4748,
            "contract": "contracts/elementa/botMiniGameFacet.sol:botMiniGameFacet",
            "label": "itemId",
            "offset": 0,
            "slot": "1",
            "type": "t_uint256"
          },
          {
            "astId": 4750,
            "contract": "contracts/elementa/botMiniGameFacet.sol:botMiniGameFacet",
            "label": "name",
            "offset": 0,
            "slot": "2",
            "type": "t_string_storage"
          },
          {
            "astId": 4752,
            "contract": "contracts/elementa/botMiniGameFacet.sol:botMiniGameFacet",
            "label": "svgUri",
            "offset": 0,
            "slot": "3",
            "type": "t_string_storage"
          },
          {
            "astId": 4754,
            "contract": "contracts/elementa/botMiniGameFacet.sol:botMiniGameFacet",
            "label": "animateColors",
            "offset": 0,
            "slot": "4",
            "type": "t_string_storage"
          },
          {
            "astId": 4756,
            "contract": "contracts/elementa/botMiniGameFacet.sol:botMiniGameFacet",
            "label": "stopColor",
            "offset": 0,
            "slot": "5",
            "type": "t_string_storage"
          },
          {
            "astId": 4758,
            "contract": "contracts/elementa/botMiniGameFacet.sol:botMiniGameFacet",
            "label": "animateDuration",
            "offset": 0,
            "slot": "6",
            "type": "t_string_storage"
          }
        ],
        "numberOfBytes": "224"
      },
      "t_struct(ElementaNFT)4738_storage": {
        "encoding": "inplace",
        "label": "struct ElementaNFT",
        "members": [
          {
            "astId": 4715,
            "contract": "contracts/elementa/botMiniGameFacet.sol:botMiniGameFacet",
            "label": "ownerAddress",
            "offset": 0,
            "slot": "0",
            "type": "t_address"
          },
          {
            "astId": 4717,
            "contract": "contracts/elementa/botMiniGameFacet.sol:botMiniGameFacet",
            "label": "delegateAddress",
            "offset": 0,
            "slot": "1",
            "type": "t_address"
          },
          {
            "astId": 4719,
            "contract": "contracts/elementa/botMiniGameFacet.sol:botMiniGameFacet",
            "label": "nickName",
            "offset": 0,
            "slot": "2",
            "type": "t_string_storage"
          },
          {
            "astId": 4721,
            "contract": "contracts/elementa/botMiniGameFacet.sol:botMiniGameFacet",
            "label": "grade",
            "offset": 0,
            "slot": "3",
            "type": "t_uint256"
          },
          {
            "astId": 4723,
            "contract": "contracts/elementa/botMiniGameFacet.sol:botMiniGameFacet",
            "label": "level",
            "offset": 0,
            "slot": "4",
            "type": "t_uint256"
          },
          {
            "astId": 4725,
            "contract": "contracts/elementa/botMiniGameFacet.sol:botMiniGameFacet",
            "label": "exp",
            "offset": 0,
            "slot": "5",
            "type": "t_uint256"
          },
          {
            "astId": 4727,
            "contract": "contracts/elementa/botMiniGameFacet.sol:botMiniGameFacet",
            "label": "heartMax",
            "offset": 0,
            "slot": "6",
            "type": "t_uint256"
          },
          {
            "astId": 4729,
            "contract": "contracts/elementa/botMiniGameFacet.sol:botMiniGameFacet",
            "label": "heartPoint",
            "offset": 0,
            "slot": "7",
            "type": "t_uint256"
          },
          {
            "astId": 4731,
            "contract": "contracts/elementa/botMiniGameFacet.sol:botMiniGameFacet",
            "label": "plusHeartPoint",
            "offset": 0,
            "slot": "8",
            "type": "t_uint256"
          },
          {
            "astId": 4733,
            "contract": "contracts/elementa/botMiniGameFacet.sol:botMiniGameFacet",
            "label": "updateHeartTime",
            "offset": 0,
            "slot": "9",
            "type": "t_uint256"
          },
          {
            "astId": 4735,
            "contract": "contracts/elementa/botMiniGameFacet.sol:botMiniGameFacet",
            "label": "elementaPoint",
            "offset": 0,
            "slot": "10",
            "type": "t_uint256"
          },
          {
            "astId": 4737,
            "contract": "contracts/elementa/botMiniGameFacet.sol:botMiniGameFacet",
            "label": "originRandomValue",
            "offset": 0,
            "slot": "11",
            "type": "t_uint256"
          }
        ],
        "numberOfBytes": "384"
      },
      "t_struct(ElementaToken)4764_storage": {
        "encoding": "inplace",
        "label": "struct ElementaToken",
        "members": [
          {
            "astId": 4761,
            "contract": "contracts/elementa/botMiniGameFacet.sol:botMiniGameFacet",
            "label": "phaseMaxSupply",
            "offset": 0,
            "slot": "0",
            "type": "t_uint256"
          },
          {
            "astId": 4763,
            "contract": "contracts/elementa/botMiniGameFacet.sol:botMiniGameFacet",
            "label": "mintedSupply",
            "offset": 0,
            "slot": "1",
            "type": "t_uint256"
          }
        ],
        "numberOfBytes": "64"
      },
      "t_struct(MysteryBox)4743_storage": {
        "encoding": "inplace",
        "label": "struct MysteryBox",
        "members": [
          {
            "astId": 4740,
            "contract": "contracts/elementa/botMiniGameFacet.sol:botMiniGameFacet",
            "label": "boxId",
            "offset": 0,
            "slot": "0",
            "type": "t_uint256"
          },
          {
            "astId": 4742,
            "contract": "contracts/elementa/botMiniGameFacet.sol:botMiniGameFacet",
            "label": "uniqValue",
            "offset": 0,
            "slot": "1",
            "type": "t_uint256"
          }
        ],
        "numberOfBytes": "64"
      },
      "t_struct(OraklVRF)4773_storage": {
        "encoding": "inplace",
        "label": "struct OraklVRF",
        "members": [
          {
            "astId": 4766,
            "contract": "contracts/elementa/botMiniGameFacet.sol:botMiniGameFacet",
            "label": "keyHash",
            "offset": 0,
            "slot": "0",
            "type": "t_bytes32"
          },
          {
            "astId": 4768,
            "contract": "contracts/elementa/botMiniGameFacet.sol:botMiniGameFacet",
            "label": "accId",
            "offset": 0,
            "slot": "1",
            "type": "t_uint64"
          },
          {
            "astId": 4770,
            "contract": "contracts/elementa/botMiniGameFacet.sol:botMiniGameFacet",
            "label": "callbackGasLimit",
            "offset": 8,
            "slot": "1",
            "type": "t_uint32"
          },
          {
            "astId": 4772,
            "contract": "contracts/elementa/botMiniGameFacet.sol:botMiniGameFacet",
            "label": "numWords",
            "offset": 12,
            "slot": "1",
            "type": "t_uint32"
          }
        ],
        "numberOfBytes": "64"
      },
      "t_struct(User)4695_storage": {
        "encoding": "inplace",
        "label": "struct User",
        "members": [
          {
            "astId": 4681,
            "contract": "contracts/elementa/botMiniGameFacet.sol:botMiniGameFacet",
            "label": "userId",
            "offset": 0,
            "slot": "0",
            "type": "t_string_storage"
          },
          {
            "astId": 4683,
            "contract": "contracts/elementa/botMiniGameFacet.sol:botMiniGameFacet",
            "label": "nftId",
            "offset": 0,
            "slot": "1",
            "type": "t_uint256"
          },
          {
            "astId": 4685,
            "contract": "contracts/elementa/botMiniGameFacet.sol:botMiniGameFacet",
            "label": "reciveAddress",
            "offset": 0,
            "slot": "2",
            "type": "t_address"
          },
          {
            "astId": 4687,
            "contract": "contracts/elementa/botMiniGameFacet.sol:botMiniGameFacet",
            "label": "delegateEOA",
            "offset": 0,
            "slot": "3",
            "type": "t_address"
          },
          {
            "astId": 4690,
            "contract": "contracts/elementa/botMiniGameFacet.sol:botMiniGameFacet",
            "label": "userType",
            "offset": 20,
            "slot": "3",
            "type": "t_enum(UserType)4850"
          },
          {
            "astId": 4692,
            "contract": "contracts/elementa/botMiniGameFacet.sol:botMiniGameFacet",
            "label": "refferalId",
            "offset": 0,
            "slot": "4",
            "type": "t_string_storage"
          },
          {
            "astId": 4694,
            "contract": "contracts/elementa/botMiniGameFacet.sol:botMiniGameFacet",
            "label": "refferalCount",
            "offset": 0,
            "slot": "5",
            "type": "t_uint256"
          }
        ],
        "numberOfBytes": "192"
      },
      "t_struct(levelInfo)4713_storage": {
        "encoding": "inplace",
        "label": "struct levelInfo",
        "members": [
          {
            "astId": 4706,
            "contract": "contracts/elementa/botMiniGameFacet.sol:botMiniGameFacet",
            "label": "level",
            "offset": 0,
            "slot": "0",
            "type": "t_uint256"
          },
          {
            "astId": 4708,
            "contract": "contracts/elementa/botMiniGameFacet.sol:botMiniGameFacet",
            "label": "requireExp",
            "offset": 0,
            "slot": "1",
            "type": "t_uint256"
          },
          {
            "astId": 4710,
            "contract": "contracts/elementa/botMiniGameFacet.sol:botMiniGameFacet",
            "label": "levelUserCount",
            "offset": 0,
            "slot": "2",
            "type": "t_uint256"
          },
          {
            "astId": 4712,
            "contract": "contracts/elementa/botMiniGameFacet.sol:botMiniGameFacet",
            "label": "heartMax",
            "offset": 0,
            "slot": "3",
            "type": "t_uint256"
          }
        ],
        "numberOfBytes": "128"
      },
      "t_uint256": {
        "encoding": "inplace",
        "label": "uint256",
        "numberOfBytes": "32"
      },
      "t_uint32": {
        "encoding": "inplace",
        "label": "uint32",
        "numberOfBytes": "4"
      },
      "t_uint64": {
        "encoding": "inplace",
        "label": "uint64",
        "numberOfBytes": "8"
      }
    }
  }
}