{
  "address": "0x3A4c5B0dEf508Bee49a1BF93c410BEF6995CC24a",
  "abi": [
    {
      "anonymous": false,
      "inputs": [
        {
          "indexed": true,
          "internalType": "string",
          "name": "userId",
          "type": "string"
        },
        {
          "indexed": true,
          "internalType": "uint256",
          "name": "result",
          "type": "uint256"
        }
      ],
      "name": "playDiceEvent",
      "type": "event"
    },
    {
      "anonymous": false,
      "inputs": [
        {
          "indexed": true,
          "internalType": "string",
          "name": "userId",
          "type": "string"
        },
        {
          "indexed": true,
          "internalType": "uint256",
          "name": "result",
          "type": "uint256"
        }
      ],
      "name": "playRouletteEvent",
      "type": "event"
    },
    {
      "anonymous": false,
      "inputs": [
        {
          "indexed": true,
          "internalType": "string",
          "name": "userId",
          "type": "string"
        },
        {
          "indexed": true,
          "internalType": "uint256",
          "name": "elementaId",
          "type": "uint256"
        },
        {
          "indexed": true,
          "internalType": "uint256",
          "name": "userLevel",
          "type": "uint256"
        }
      ],
      "name": "userUpgrade",
      "type": "event"
    },
    {
      "anonymous": false,
      "inputs": [
        {
          "indexed": true,
          "internalType": "address",
          "name": "userAddress",
          "type": "address"
        },
        {
          "indexed": true,
          "internalType": "uint256",
          "name": "amount",
          "type": "uint256"
        }
      ],
      "name": "widthdrawElementaToken",
      "type": "event"
    },
    {
      "inputs": [
        {
          "internalType": "uint256",
          "name": "_nftId",
          "type": "uint256"
        }
      ],
      "name": "calculateHeartPoint",
      "outputs": [
        {
          "internalType": "uint256",
          "name": "",
          "type": "uint256"
        }
      ],
      "stateMutability": "view",
      "type": "function"
    },
    {
      "inputs": [
        {
          "internalType": "uint256",
          "name": "_nftId",
          "type": "uint256"
        }
      ],
      "name": "calculateHeartTime",
      "outputs": [
        {
          "internalType": "uint256",
          "name": "",
          "type": "uint256"
        }
      ],
      "stateMutability": "view",
      "type": "function"
    },
    {
      "inputs": [
        {
          "internalType": "string",
          "name": "_userId",
          "type": "string"
        }
      ],
      "name": "elementaUpgrade",
      "outputs": [],
      "stateMutability": "nonpayable",
      "type": "function"
    },
    {
      "inputs": [],
      "name": "getElementa20Info",
      "outputs": [
        {
          "internalType": "uint256",
          "name": "",
          "type": "uint256"
        },
        {
          "internalType": "uint256",
          "name": "",
          "type": "uint256"
        },
        {
          "internalType": "uint256",
          "name": "",
          "type": "uint256"
        }
      ],
      "stateMutability": "view",
      "type": "function"
    },
    {
      "inputs": [
        {
          "internalType": "string",
          "name": "_userId",
          "type": "string"
        }
      ],
      "name": "isLevelUp",
      "outputs": [
        {
          "internalType": "bool",
          "name": "",
          "type": "bool"
        }
      ],
      "stateMutability": "view",
      "type": "function"
    },
    {
      "inputs": [
        {
          "internalType": "string",
          "name": "_userId",
          "type": "string"
        },
        {
          "internalType": "uint256",
          "name": "_amount",
          "type": "uint256"
        }
      ],
      "name": "playDice",
      "outputs": [
        {
          "internalType": "uint256",
          "name": "",
          "type": "uint256"
        }
      ],
      "stateMutability": "nonpayable",
      "type": "function"
    },
    {
      "inputs": [
        {
          "internalType": "string",
          "name": "_userId",
          "type": "string"
        },
        {
          "internalType": "uint256",
          "name": "_amount",
          "type": "uint256"
        }
      ],
      "name": "playRoulette",
      "outputs": [
        {
          "internalType": "uint256",
          "name": "",
          "type": "uint256"
        }
      ],
      "stateMutability": "nonpayable",
      "type": "function"
    }
  ],
  "transactionHash": "0x8407c8163385dba7d862c7e69d0f5c80d787dec3b723febc81aaa8cd254cb61f",
  "args": [],
  "numDeployments": 79,
  "solcInputHash": "a56eb083897a930b3cd4da217c742116",
  "bytecode": "0x6080806040523461001657610f6e908161001c8239f35b600080fdfe6040608081526004908136101561001557600080fd5b600091823560e01c90816319bb8b741461087b5781633c7a43d8146105ca5781634f3b71bb146105aa578163ae7fd844146102f2578163b50ef6fc146102c8578163cdb87ca814610098575063d41bde101461007057600080fd5b34610094578160031936011261009457606091815191818352816020840152820152f35b5080fd5b838334610094576100a836610986565b91903384526020948086526100c1838620541515610ab5565b8251906100eb8351928881818701956100db8183896109b8565b8101600381520301902054610f14565b60018652600a87528386208451888186516101078183896109b8565b810160038152030190205487526005885284872060078101805480158015906102bb575b61013490610ce1565b600883018054909290156102a1575050805460001981019190821161027b57555b678ac7230489e800009687810297818904149015171561028e5760058101805490600a820180921161027b5791600a916001949355016101968882546109db565b9055016101a48682546109db565b90556101d9878551621b999d60ea1b8152886003820152602360018060a01b03912054169386518093819288519283916109b8565b810160038152030190205490823b156102775790602487928387519586948593630ad4782960e31b85528401525af1801561026d5784939291869161024e575b50506102457fbde6b358268687a57a765fca97482d5e6bdf1d9c90394a7cc6de65ae723f9b0191610b00565b91519480a38152f35b61025b91929394506108c1565b610269579082918487610219565b8380fd5b83513d87823e3d90fd5b8680fd5b634e487b7160e01b8a526011855260248afd5b634e487b7160e01b885260118352602488fd5b6000198201925090821161027b5755426009820155610155565b506008830154151561012b565b8284346102ef5760203660031901126102ef57506102e860209235610d2d565b9051908152f35b80fd5b839150346100945761030336610986565b509233835260209382855261031c828520541515610ab5565b8151815193610348878401956103338185896109b8565b83019288816003958681520301902054610f14565b60018652600a8752838620948451888186516103658183876109b8565b810186815203019020548752600588528487209560078701805485811080159061059c575b61039390610ce1565b600889019186835411600014610582575050805460021981019190821161027b57555b8551966330bf93dd60e01b88528984890152898860448189518060248301526103e2818484018a6109b8565b601f01601f191681010301818c73a1b9be3dec8612e727564baf46387c4366912d745af1978815610578578998610545575b50678ac7230489e800009788810298818a0414901517156105325760058101805490601e820180921161051f5792600a61049995936001938e96550161045b8b82546109db565b9055016104698982546109db565b90558651621b999d60ea1b81528986820152602360018060a01b03912054169487518094819389519283916109b8565b8201908152030190205490823b156102775790602487928387519586948593630ad4782960e31b85528401525af1801561026d57849392918691610504575b50506102457f3bac9bae425cf10b911f766ffeda5040c2214cb2771df506a19a97c67a50100991610b00565b61051191929394506108c1565b6102695790829184876104d8565b634e487b7160e01b8b526011865260248bfd5b634e487b7160e01b895260118452602489fd5b9097508981813d8311610571575b61055d8183610908565b8101031261056d5751968a610414565b8880fd5b503d610553565b87513d8b823e3d90fd5b6002198201925090821161027b57554260098801556103b6565b50600889015486111561038a565b8284346102ef5760203660031901126102ef57506102e860209235610b2d565b9190503461081b5760208060031936011261026957823567ffffffffffffffff8111610877576105fd903690850161092a565b91338552838252610612818620541515610ab5565b61061b836109fe565b15610845578051621b999d60ea1b815260038082018790526023909120548251855185870194926001600160a01b031691908690829061065c81838a6109b8565b81018681520301902054885260058552868289200154966001880180981161083257878952600686526002838a20018054906001820180921161081f57908a929155835187818a516106af81838c6109b8565b810188815203019020548252600587528881858420015588825260068752848483200154845188818b516106e481838d6109b8565b810189815203019020548352600588526006858420015588825260068752848483200154845188818b5161071981838d6109b8565b8101898152030190205483526005885260078584200155835187818a5161074181838c6109b8565b810188815203019020548252600587524260098584200155835187818a5161076a81838c6109b8565b8101888152030190205490833b1561081b576024908386519586948593630ad4782960e31b85528401525af18015610811576107f2575b50916107cb93916107bb93518094819388519283916109b8565b8201908152030190205491610b00565b7f6b95a864619128204031150d0af28bc7f123caefdc26282fb432d0de806c2dc98480a480f35b916107bb9391976108066107cb96946108c1565b9791935091936107a1565b82513d8a823e3d90fd5b8280fd5b634e487b7160e01b8b526011835260248bfd5b634e487b7160e01b895260119052602488fd5b5162461bcd60e51b81529283015250600e60248201526d04e6f7420656e6f756768206578760941b6044820152606490fd5b8480fd5b8284346102ef5760203660031901126102ef5782359067ffffffffffffffff82116102ef57506108b36020936108b89236910161092a565b6109fe565b90519015158152f35b67ffffffffffffffff81116108d557604052565b634e487b7160e01b600052604160045260246000fd5b610180810190811067ffffffffffffffff8211176108d557604052565b90601f8019910116810190811067ffffffffffffffff8211176108d557604052565b81601f820112156109815780359067ffffffffffffffff82116108d5576040519261095f601f8401601f191660200185610908565b8284526020838301011161098157816000926020809301838601378301015290565b600080fd5b6040600319820112610981576004359067ffffffffffffffff8211610981576109b19160040161092a565b9060243590565b60005b8381106109cb5750506000910152565b81810151838201526020016109bb565b919082018092116109e857565b634e487b7160e01b600052601160045260246000fd5b60405190805191610a4c60208281809481870197610a1d81838b6109b8565b8101600381520301902054946000958652600582526004604087200154946040519384928392519283916109b8565b810160038152030190205483526005815260056040842001549060018301808411610aa157845260069052604083206001015411159081610a96575b50610a905790565b50600190565b9050600a1138610a88565b634e487b7160e01b85526011600452602485fd5b15610abc57565b606460405162461bcd60e51b815260206004820152602060248201527f4d6f6469666965727346616365743a206e6f742064656c656761746520454f416044820152fd5b610b18906020604051928284809451938492016109b8565b810103902090565b919082039182116109e857565b6000908152602060058152604082209160405191610b4a836108eb565b60018060a01b0391828554168452600192600186015416828501526002850160405193828254928360011c93600181168015610cd7575b8786108114610cc357858952889695949392918115610c9f5750600114610c62575b50505050610bb392500382610908565b60408201526003820154606082015260048201546080820152600582015460a082015260068201549160c082019280845260078201549060e08401938285526008840154610100820152610160600b60098601549586610120850152600a81015461014085015201549101528114610c5b5750610c336107089142610b20565b0490610c408282516109db565b835111610c4d5750505190565b610c589250516109db565b90565b9250505090565b815285812095935091905b818310610c87575050610bb3935082010138808080610ba3565b85548784018501529485019486945091830191610c6d565b9350505050610bb394925060ff191682840152151560051b82010138808080610ba3565b634e487b7160e01b84526022600452602484fd5b94607f1694610b81565b15610ce857565b60405162461bcd60e51b815260206004820152601760248201527f4e6f7420656e6f75676820686561727420706f696e74730000000000000000006044820152606490fd5b600090815260209060058252604081209160405190610d4b826108eb565b83546001600160a01b03908116835260018581015490911683830152604051600286018054919392869280821c92908083168015610f0a575b8685108114610ef6578488528795949392918115610ed45750600114610e97575b505050610db492500382610908565b60408201526003830154606082015260048301546080820152600583015460a0820152610e2760068401549360c0830194855260078101549260e081019384526008820154610100820152610160600b60098401549384610120850152600a810154610140850152015491015242610b20565b61070893610e398583048094516109db565b905111610e47575050905090565b83820291808304851490151715610e835790610e6291610b20565b8203918211610e6f575090565b634e487b7160e01b81526011600452602490fd5b634e487b7160e01b83526011600452602483fd5b88528488209492508791905b818310610ebc575050610db49350820101388080610da5565b85548784018501529485019486945091830191610ea3565b92505050610db494925060ff191682840152151560051b820101388080610da5565b634e487b7160e01b8a52602260045260248afd5b93607f1693610d84565b806000526005602052610f2b604060002091610b2d565b600782015560094291015556fea264697066735822122023bc5176daa0f86988736e6cdf9fbcc0514661a4cb36782b8dd54edf2955ac3d64736f6c63430008180033",
  "devdoc": {
    "kind": "dev",
    "methods": {},
    "version": 1
  },
  "userdoc": {
    "events": {
      "playDiceEvent(string,uint256)": {
        "notice": "token preDistribution functions"
      }
    },
    "kind": "user",
    "methods": {},
    "version": 1
  },
  "storageLayout": {
    "storage": [
      {
        "astId": 4918,
        "contract": "contracts/elementa/botMiniGameFacet.sol:botMiniGameFacet",
        "label": "s",
        "offset": 0,
        "slot": "0",
        "type": "t_struct(AppStorage)4871_storage"
      }
    ],
    "types": {
      "t_address": {
        "encoding": "inplace",
        "label": "address",
        "numberOfBytes": "20"
      },
      "t_array(t_uint256)10_storage": {
        "base": "t_uint256",
        "encoding": "inplace",
        "label": "uint256[10]",
        "numberOfBytes": "320"
      },
      "t_bool": {
        "encoding": "inplace",
        "label": "bool",
        "numberOfBytes": "1"
      },
      "t_bytes32": {
        "encoding": "inplace",
        "label": "bytes32",
        "numberOfBytes": "32"
      },
      "t_enum(EquipmentType)4883": {
        "encoding": "inplace",
        "label": "enum EquipmentType",
        "numberOfBytes": "1"
      },
      "t_enum(UserType)4889": {
        "encoding": "inplace",
        "label": "enum UserType",
        "numberOfBytes": "1"
      },
      "t_mapping(t_address,t_bool)": {
        "encoding": "mapping",
        "key": "t_address",
        "label": "mapping(address => bool)",
        "numberOfBytes": "32",
        "value": "t_bool"
      },
      "t_mapping(t_address,t_struct(DelegateEOA)4743_storage)": {
        "encoding": "mapping",
        "key": "t_address",
        "label": "mapping(address => struct DelegateEOA)",
        "numberOfBytes": "32",
        "value": "t_struct(DelegateEOA)4743_storage"
      },
      "t_mapping(t_string_memory_ptr,t_address)": {
        "encoding": "mapping",
        "key": "t_string_memory_ptr",
        "label": "mapping(string => address)",
        "numberOfBytes": "32",
        "value": "t_address"
      },
      "t_mapping(t_string_memory_ptr,t_struct(User)4734_storage)": {
        "encoding": "mapping",
        "key": "t_string_memory_ptr",
        "label": "mapping(string => struct User)",
        "numberOfBytes": "32",
        "value": "t_struct(User)4734_storage"
      },
      "t_mapping(t_string_memory_ptr,t_uint256)": {
        "encoding": "mapping",
        "key": "t_string_memory_ptr",
        "label": "mapping(string => uint256)",
        "numberOfBytes": "32",
        "value": "t_uint256"
      },
      "t_mapping(t_uint256,t_array(t_uint256)10_storage)": {
        "encoding": "mapping",
        "key": "t_uint256",
        "label": "mapping(uint256 => uint256[10])",
        "numberOfBytes": "32",
        "value": "t_array(t_uint256)10_storage"
      },
      "t_mapping(t_uint256,t_struct(ElementaItem)4798_storage)": {
        "encoding": "mapping",
        "key": "t_uint256",
        "label": "mapping(uint256 => struct ElementaItem)",
        "numberOfBytes": "32",
        "value": "t_struct(ElementaItem)4798_storage"
      },
      "t_mapping(t_uint256,t_struct(ElementaNFT)4777_storage)": {
        "encoding": "mapping",
        "key": "t_uint256",
        "label": "mapping(uint256 => struct ElementaNFT)",
        "numberOfBytes": "32",
        "value": "t_struct(ElementaNFT)4777_storage"
      },
      "t_mapping(t_uint256,t_struct(ElementaToken)4803_storage)": {
        "encoding": "mapping",
        "key": "t_uint256",
        "label": "mapping(uint256 => struct ElementaToken)",
        "numberOfBytes": "32",
        "value": "t_struct(ElementaToken)4803_storage"
      },
      "t_mapping(t_uint256,t_struct(MysteryBox)4782_storage)": {
        "encoding": "mapping",
        "key": "t_uint256",
        "label": "mapping(uint256 => struct MysteryBox)",
        "numberOfBytes": "32",
        "value": "t_struct(MysteryBox)4782_storage"
      },
      "t_mapping(t_uint256,t_struct(levelInfo)4752_storage)": {
        "encoding": "mapping",
        "key": "t_uint256",
        "label": "mapping(uint256 => struct levelInfo)",
        "numberOfBytes": "32",
        "value": "t_struct(levelInfo)4752_storage"
      },
      "t_string_memory_ptr": {
        "encoding": "bytes",
        "label": "string",
        "numberOfBytes": "32"
      },
      "t_string_storage": {
        "encoding": "bytes",
        "label": "string",
        "numberOfBytes": "32"
      },
      "t_struct(AppStorage)4871_storage": {
        "encoding": "inplace",
        "label": "struct AppStorage",
        "members": [
          {
            "astId": 4816,
            "contract": "contracts/elementa/botMiniGameFacet.sol:botMiniGameFacet",
            "label": "contracts",
            "offset": 0,
            "slot": "0",
            "type": "t_mapping(t_string_memory_ptr,t_address)"
          },
          {
            "astId": 4821,
            "contract": "contracts/elementa/botMiniGameFacet.sol:botMiniGameFacet",
            "label": "users",
            "offset": 0,
            "slot": "1",
            "type": "t_mapping(t_string_memory_ptr,t_struct(User)4734_storage)"
          },
          {
            "astId": 4823,
            "contract": "contracts/elementa/botMiniGameFacet.sol:botMiniGameFacet",
            "label": "globalUserIndex",
            "offset": 0,
            "slot": "2",
            "type": "t_uint256"
          },
          {
            "astId": 4827,
            "contract": "contracts/elementa/botMiniGameFacet.sol:botMiniGameFacet",
            "label": "userIndex",
            "offset": 0,
            "slot": "3",
            "type": "t_mapping(t_string_memory_ptr,t_uint256)"
          },
          {
            "astId": 4832,
            "contract": "contracts/elementa/botMiniGameFacet.sol:botMiniGameFacet",
            "label": "delegateEOAs",
            "offset": 0,
            "slot": "4",
            "type": "t_mapping(t_address,t_struct(DelegateEOA)4743_storage)"
          },
          {
            "astId": 4837,
            "contract": "contracts/elementa/botMiniGameFacet.sol:botMiniGameFacet",
            "label": "elementaNFTs",
            "offset": 0,
            "slot": "5",
            "type": "t_mapping(t_uint256,t_struct(ElementaNFT)4777_storage)"
          },
          {
            "astId": 4842,
            "contract": "contracts/elementa/botMiniGameFacet.sol:botMiniGameFacet",
            "label": "levelInfos",
            "offset": 0,
            "slot": "6",
            "type": "t_mapping(t_uint256,t_struct(levelInfo)4752_storage)"
          },
          {
            "astId": 4846,
            "contract": "contracts/elementa/botMiniGameFacet.sol:botMiniGameFacet",
            "label": "isDelegateEOA",
            "offset": 0,
            "slot": "7",
            "type": "t_mapping(t_address,t_bool)"
          },
          {
            "astId": 4851,
            "contract": "contracts/elementa/botMiniGameFacet.sol:botMiniGameFacet",
            "label": "elementaItems",
            "offset": 0,
            "slot": "8",
            "type": "t_mapping(t_uint256,t_struct(ElementaItem)4798_storage)"
          },
          {
            "astId": 4857,
            "contract": "contracts/elementa/botMiniGameFacet.sol:botMiniGameFacet",
            "label": "equipItems",
            "offset": 0,
            "slot": "9",
            "type": "t_mapping(t_uint256,t_array(t_uint256)10_storage)"
          },
          {
            "astId": 4862,
            "contract": "contracts/elementa/botMiniGameFacet.sol:botMiniGameFacet",
            "label": "elementaToken",
            "offset": 0,
            "slot": "10",
            "type": "t_mapping(t_uint256,t_struct(ElementaToken)4803_storage)"
          },
          {
            "astId": 4865,
            "contract": "contracts/elementa/botMiniGameFacet.sol:botMiniGameFacet",
            "label": "oraklVRF",
            "offset": 0,
            "slot": "11",
            "type": "t_struct(OraklVRF)4812_storage"
          },
          {
            "astId": 4870,
            "contract": "contracts/elementa/botMiniGameFacet.sol:botMiniGameFacet",
            "label": "mysteryBoxes",
            "offset": 0,
            "slot": "13",
            "type": "t_mapping(t_uint256,t_struct(MysteryBox)4782_storage)"
          }
        ],
        "numberOfBytes": "448"
      },
      "t_struct(DelegateEOA)4743_storage": {
        "encoding": "inplace",
        "label": "struct DelegateEOA",
        "members": [
          {
            "astId": 4736,
            "contract": "contracts/elementa/botMiniGameFacet.sol:botMiniGameFacet",
            "label": "userIndex",
            "offset": 0,
            "slot": "0",
            "type": "t_uint256"
          },
          {
            "astId": 4738,
            "contract": "contracts/elementa/botMiniGameFacet.sol:botMiniGameFacet",
            "label": "userId",
            "offset": 0,
            "slot": "1",
            "type": "t_string_storage"
          },
          {
            "astId": 4740,
            "contract": "contracts/elementa/botMiniGameFacet.sol:botMiniGameFacet",
            "label": "connectAddress",
            "offset": 0,
            "slot": "2",
            "type": "t_address"
          },
          {
            "astId": 4742,
            "contract": "contracts/elementa/botMiniGameFacet.sol:botMiniGameFacet",
            "label": "isOwnNFT",
            "offset": 20,
            "slot": "2",
            "type": "t_bool"
          }
        ],
        "numberOfBytes": "96"
      },
      "t_struct(ElementaItem)4798_storage": {
        "encoding": "inplace",
        "label": "struct ElementaItem",
        "members": [
          {
            "astId": 4785,
            "contract": "contracts/elementa/botMiniGameFacet.sol:botMiniGameFacet",
            "label": "equipmentType",
            "offset": 0,
            "slot": "0",
            "type": "t_enum(EquipmentType)4883"
          },
          {
            "astId": 4787,
            "contract": "contracts/elementa/botMiniGameFacet.sol:botMiniGameFacet",
            "label": "itemId",
            "offset": 0,
            "slot": "1",
            "type": "t_uint256"
          },
          {
            "astId": 4789,
            "contract": "contracts/elementa/botMiniGameFacet.sol:botMiniGameFacet",
            "label": "name",
            "offset": 0,
            "slot": "2",
            "type": "t_string_storage"
          },
          {
            "astId": 4791,
            "contract": "contracts/elementa/botMiniGameFacet.sol:botMiniGameFacet",
            "label": "svgUri",
            "offset": 0,
            "slot": "3",
            "type": "t_string_storage"
          },
          {
            "astId": 4793,
            "contract": "contracts/elementa/botMiniGameFacet.sol:botMiniGameFacet",
            "label": "animateColors",
            "offset": 0,
            "slot": "4",
            "type": "t_string_storage"
          },
          {
            "astId": 4795,
            "contract": "contracts/elementa/botMiniGameFacet.sol:botMiniGameFacet",
            "label": "stopColor",
            "offset": 0,
            "slot": "5",
            "type": "t_string_storage"
          },
          {
            "astId": 4797,
            "contract": "contracts/elementa/botMiniGameFacet.sol:botMiniGameFacet",
            "label": "animateDuration",
            "offset": 0,
            "slot": "6",
            "type": "t_string_storage"
          }
        ],
        "numberOfBytes": "224"
      },
      "t_struct(ElementaNFT)4777_storage": {
        "encoding": "inplace",
        "label": "struct ElementaNFT",
        "members": [
          {
            "astId": 4754,
            "contract": "contracts/elementa/botMiniGameFacet.sol:botMiniGameFacet",
            "label": "ownerAddress",
            "offset": 0,
            "slot": "0",
            "type": "t_address"
          },
          {
            "astId": 4756,
            "contract": "contracts/elementa/botMiniGameFacet.sol:botMiniGameFacet",
            "label": "delegateAddress",
            "offset": 0,
            "slot": "1",
            "type": "t_address"
          },
          {
            "astId": 4758,
            "contract": "contracts/elementa/botMiniGameFacet.sol:botMiniGameFacet",
            "label": "nickName",
            "offset": 0,
            "slot": "2",
            "type": "t_string_storage"
          },
          {
            "astId": 4760,
            "contract": "contracts/elementa/botMiniGameFacet.sol:botMiniGameFacet",
            "label": "grade",
            "offset": 0,
            "slot": "3",
            "type": "t_uint256"
          },
          {
            "astId": 4762,
            "contract": "contracts/elementa/botMiniGameFacet.sol:botMiniGameFacet",
            "label": "level",
            "offset": 0,
            "slot": "4",
            "type": "t_uint256"
          },
          {
            "astId": 4764,
            "contract": "contracts/elementa/botMiniGameFacet.sol:botMiniGameFacet",
            "label": "exp",
            "offset": 0,
            "slot": "5",
            "type": "t_uint256"
          },
          {
            "astId": 4766,
            "contract": "contracts/elementa/botMiniGameFacet.sol:botMiniGameFacet",
            "label": "heartMax",
            "offset": 0,
            "slot": "6",
            "type": "t_uint256"
          },
          {
            "astId": 4768,
            "contract": "contracts/elementa/botMiniGameFacet.sol:botMiniGameFacet",
            "label": "heartPoint",
            "offset": 0,
            "slot": "7",
            "type": "t_uint256"
          },
          {
            "astId": 4770,
            "contract": "contracts/elementa/botMiniGameFacet.sol:botMiniGameFacet",
            "label": "plusHeartPoint",
            "offset": 0,
            "slot": "8",
            "type": "t_uint256"
          },
          {
            "astId": 4772,
            "contract": "contracts/elementa/botMiniGameFacet.sol:botMiniGameFacet",
            "label": "updateHeartTime",
            "offset": 0,
            "slot": "9",
            "type": "t_uint256"
          },
          {
            "astId": 4774,
            "contract": "contracts/elementa/botMiniGameFacet.sol:botMiniGameFacet",
            "label": "elementaPoint",
            "offset": 0,
            "slot": "10",
            "type": "t_uint256"
          },
          {
            "astId": 4776,
            "contract": "contracts/elementa/botMiniGameFacet.sol:botMiniGameFacet",
            "label": "originRandomValue",
            "offset": 0,
            "slot": "11",
            "type": "t_uint256"
          }
        ],
        "numberOfBytes": "384"
      },
      "t_struct(ElementaToken)4803_storage": {
        "encoding": "inplace",
        "label": "struct ElementaToken",
        "members": [
          {
            "astId": 4800,
            "contract": "contracts/elementa/botMiniGameFacet.sol:botMiniGameFacet",
            "label": "phaseMaxSupply",
            "offset": 0,
            "slot": "0",
            "type": "t_uint256"
          },
          {
            "astId": 4802,
            "contract": "contracts/elementa/botMiniGameFacet.sol:botMiniGameFacet",
            "label": "mintedSupply",
            "offset": 0,
            "slot": "1",
            "type": "t_uint256"
          }
        ],
        "numberOfBytes": "64"
      },
      "t_struct(MysteryBox)4782_storage": {
        "encoding": "inplace",
        "label": "struct MysteryBox",
        "members": [
          {
            "astId": 4779,
            "contract": "contracts/elementa/botMiniGameFacet.sol:botMiniGameFacet",
            "label": "boxId",
            "offset": 0,
            "slot": "0",
            "type": "t_uint256"
          },
          {
            "astId": 4781,
            "contract": "contracts/elementa/botMiniGameFacet.sol:botMiniGameFacet",
            "label": "uniqValue",
            "offset": 0,
            "slot": "1",
            "type": "t_uint256"
          }
        ],
        "numberOfBytes": "64"
      },
      "t_struct(OraklVRF)4812_storage": {
        "encoding": "inplace",
        "label": "struct OraklVRF",
        "members": [
          {
            "astId": 4805,
            "contract": "contracts/elementa/botMiniGameFacet.sol:botMiniGameFacet",
            "label": "keyHash",
            "offset": 0,
            "slot": "0",
            "type": "t_bytes32"
          },
          {
            "astId": 4807,
            "contract": "contracts/elementa/botMiniGameFacet.sol:botMiniGameFacet",
            "label": "accId",
            "offset": 0,
            "slot": "1",
            "type": "t_uint64"
          },
          {
            "astId": 4809,
            "contract": "contracts/elementa/botMiniGameFacet.sol:botMiniGameFacet",
            "label": "callbackGasLimit",
            "offset": 8,
            "slot": "1",
            "type": "t_uint32"
          },
          {
            "astId": 4811,
            "contract": "contracts/elementa/botMiniGameFacet.sol:botMiniGameFacet",
            "label": "numWords",
            "offset": 12,
            "slot": "1",
            "type": "t_uint32"
          }
        ],
        "numberOfBytes": "64"
      },
      "t_struct(User)4734_storage": {
        "encoding": "inplace",
        "label": "struct User",
        "members": [
          {
            "astId": 4720,
            "contract": "contracts/elementa/botMiniGameFacet.sol:botMiniGameFacet",
            "label": "userId",
            "offset": 0,
            "slot": "0",
            "type": "t_string_storage"
          },
          {
            "astId": 4722,
            "contract": "contracts/elementa/botMiniGameFacet.sol:botMiniGameFacet",
            "label": "nftId",
            "offset": 0,
            "slot": "1",
            "type": "t_uint256"
          },
          {
            "astId": 4724,
            "contract": "contracts/elementa/botMiniGameFacet.sol:botMiniGameFacet",
            "label": "reciveAddress",
            "offset": 0,
            "slot": "2",
            "type": "t_address"
          },
          {
            "astId": 4726,
            "contract": "contracts/elementa/botMiniGameFacet.sol:botMiniGameFacet",
            "label": "delegateEOA",
            "offset": 0,
            "slot": "3",
            "type": "t_address"
          },
          {
            "astId": 4729,
            "contract": "contracts/elementa/botMiniGameFacet.sol:botMiniGameFacet",
            "label": "userType",
            "offset": 20,
            "slot": "3",
            "type": "t_enum(UserType)4889"
          },
          {
            "astId": 4731,
            "contract": "contracts/elementa/botMiniGameFacet.sol:botMiniGameFacet",
            "label": "refferalId",
            "offset": 0,
            "slot": "4",
            "type": "t_string_storage"
          },
          {
            "astId": 4733,
            "contract": "contracts/elementa/botMiniGameFacet.sol:botMiniGameFacet",
            "label": "refferalCount",
            "offset": 0,
            "slot": "5",
            "type": "t_uint256"
          }
        ],
        "numberOfBytes": "192"
      },
      "t_struct(levelInfo)4752_storage": {
        "encoding": "inplace",
        "label": "struct levelInfo",
        "members": [
          {
            "astId": 4745,
            "contract": "contracts/elementa/botMiniGameFacet.sol:botMiniGameFacet",
            "label": "level",
            "offset": 0,
            "slot": "0",
            "type": "t_uint256"
          },
          {
            "astId": 4747,
            "contract": "contracts/elementa/botMiniGameFacet.sol:botMiniGameFacet",
            "label": "requireExp",
            "offset": 0,
            "slot": "1",
            "type": "t_uint256"
          },
          {
            "astId": 4749,
            "contract": "contracts/elementa/botMiniGameFacet.sol:botMiniGameFacet",
            "label": "levelUserCount",
            "offset": 0,
            "slot": "2",
            "type": "t_uint256"
          },
          {
            "astId": 4751,
            "contract": "contracts/elementa/botMiniGameFacet.sol:botMiniGameFacet",
            "label": "heartMax",
            "offset": 0,
            "slot": "3",
            "type": "t_uint256"
          }
        ],
        "numberOfBytes": "128"
      },
      "t_uint256": {
        "encoding": "inplace",
        "label": "uint256",
        "numberOfBytes": "32"
      },
      "t_uint32": {
        "encoding": "inplace",
        "label": "uint32",
        "numberOfBytes": "4"
      },
      "t_uint64": {
        "encoding": "inplace",
        "label": "uint64",
        "numberOfBytes": "8"
      }
    }
  }
}