{
  "address": "0x59D38894bAd93EB36641613e5DBfBE3efa071715",
  "abi": [
    {
      "anonymous": false,
      "inputs": [
        {
          "indexed": true,
          "internalType": "string",
          "name": "userId",
          "type": "string"
        },
        {
          "indexed": true,
          "internalType": "uint256",
          "name": "result",
          "type": "uint256"
        }
      ],
      "name": "playDiceEvent",
      "type": "event"
    },
    {
      "anonymous": false,
      "inputs": [
        {
          "indexed": true,
          "internalType": "string",
          "name": "userId",
          "type": "string"
        },
        {
          "indexed": true,
          "internalType": "uint256",
          "name": "result",
          "type": "uint256"
        }
      ],
      "name": "playRouletteEvent",
      "type": "event"
    },
    {
      "anonymous": false,
      "inputs": [
        {
          "indexed": true,
          "internalType": "string",
          "name": "userId",
          "type": "string"
        },
        {
          "indexed": true,
          "internalType": "uint256",
          "name": "elementaId",
          "type": "uint256"
        },
        {
          "indexed": true,
          "internalType": "uint256",
          "name": "userLevel",
          "type": "uint256"
        }
      ],
      "name": "userUpgrade",
      "type": "event"
    },
    {
      "anonymous": false,
      "inputs": [
        {
          "indexed": true,
          "internalType": "address",
          "name": "userAddress",
          "type": "address"
        },
        {
          "indexed": true,
          "internalType": "uint256",
          "name": "amount",
          "type": "uint256"
        }
      ],
      "name": "widthdrawElementaToken",
      "type": "event"
    },
    {
      "inputs": [
        {
          "internalType": "uint256",
          "name": "_nftId",
          "type": "uint256"
        }
      ],
      "name": "calculateHeartPoint",
      "outputs": [
        {
          "internalType": "uint256",
          "name": "",
          "type": "uint256"
        }
      ],
      "stateMutability": "view",
      "type": "function"
    },
    {
      "inputs": [
        {
          "internalType": "uint256",
          "name": "_nftId",
          "type": "uint256"
        }
      ],
      "name": "calculateHeartTime",
      "outputs": [
        {
          "internalType": "uint256",
          "name": "",
          "type": "uint256"
        }
      ],
      "stateMutability": "view",
      "type": "function"
    },
    {
      "inputs": [
        {
          "internalType": "string",
          "name": "_userId",
          "type": "string"
        }
      ],
      "name": "elementaUpgrade",
      "outputs": [],
      "stateMutability": "nonpayable",
      "type": "function"
    },
    {
      "inputs": [
        {
          "internalType": "string",
          "name": "_userId",
          "type": "string"
        }
      ],
      "name": "getDiceRandomValue",
      "outputs": [
        {
          "internalType": "uint256",
          "name": "",
          "type": "uint256"
        }
      ],
      "stateMutability": "view",
      "type": "function"
    },
    {
      "inputs": [],
      "name": "getElementa20Info",
      "outputs": [
        {
          "internalType": "uint256",
          "name": "",
          "type": "uint256"
        },
        {
          "internalType": "uint256",
          "name": "",
          "type": "uint256"
        },
        {
          "internalType": "uint256",
          "name": "",
          "type": "uint256"
        }
      ],
      "stateMutability": "view",
      "type": "function"
    },
    {
      "inputs": [
        {
          "internalType": "string",
          "name": "_userId",
          "type": "string"
        }
      ],
      "name": "getRouletteRandomValue",
      "outputs": [
        {
          "internalType": "uint256",
          "name": "",
          "type": "uint256"
        }
      ],
      "stateMutability": "view",
      "type": "function"
    },
    {
      "inputs": [
        {
          "internalType": "string",
          "name": "_userId",
          "type": "string"
        }
      ],
      "name": "isLevelUp",
      "outputs": [
        {
          "internalType": "bool",
          "name": "",
          "type": "bool"
        }
      ],
      "stateMutability": "view",
      "type": "function"
    },
    {
      "inputs": [
        {
          "internalType": "string",
          "name": "_userId",
          "type": "string"
        },
        {
          "internalType": "uint256",
          "name": "_amount",
          "type": "uint256"
        }
      ],
      "name": "playDice",
      "outputs": [
        {
          "internalType": "uint256",
          "name": "",
          "type": "uint256"
        }
      ],
      "stateMutability": "nonpayable",
      "type": "function"
    },
    {
      "inputs": [
        {
          "internalType": "string",
          "name": "_userId",
          "type": "string"
        },
        {
          "internalType": "uint256",
          "name": "_amount",
          "type": "uint256"
        }
      ],
      "name": "playRoulette",
      "outputs": [
        {
          "internalType": "uint256",
          "name": "",
          "type": "uint256"
        }
      ],
      "stateMutability": "nonpayable",
      "type": "function"
    }
  ],
  "transactionHash": "0x22d2784cc5ed5fa31c5b0f7a33252672d8bca0372268019de08d49eda5de4879",
  "args": [],
  "numDeployments": 83,
  "solcInputHash": "05c3754d0a30151decb018b1b1601ae3",
  "bytecode": "0x6080806040523461001657611313908161001c8239f35b600080fdfe6040608081526004908136101561001557600080fd5b600091823560e01c90816319bb8b7414610bb45781632f59339c14610a895781633c7a43d8146107dc5781634f3b71bb146107bc578163ae7fd84414610535578163b50ef6fc1461050b578163cdb87ca81461024c578163d05cccc6146100ae575063d41bde101461008657600080fd5b346100aa57816003193601126100aa57606091815191818352816020840152820152f35b5080fd5b8383346100aa576020928360031936011261024857803567ffffffffffffffff8111610244576100e19036908301610c63565b825163a9ee45c160e01b8082529091826100fd82868301610e2e565b0392858173a1b9be3dec8612e727564baf46387c4366912d749581875afa90811561023a5791869161014493899161021d575b505193825193849283928352888301610e2e565b0381865afa908115610213579160ff8880959361018f97958a916101e6575b5001518751631e74a30360e01b81529485019283521660ff166020820152919384928391829160400190565b03915afa9283156101db57926101a7575b5051908152f35b9091508281813d83116101d4575b6101bf8183610c41565b810103126101cf575190836101a0565b600080fd5b503d6101b5565b8251903d90823e3d90fd5b6102069150893d8b1161020c575b6101fe8183610c41565b810190610de9565b8b610163565b503d6101f4565b85513d88823e3d90fd5b6102349150833d851161020c576101fe8183610c41565b8a610130565b86513d89823e3d90fd5b8380fd5b8280fd5b839150346100aa5761025d36610cba565b5092338352602093828552610276828520541515610e5a565b815161029f82519187818186019461028f818388610cec565b81016003815203019020546112b9565b60018552600a8652828520938351878185516102bc818388610cec565b81016003815203019020548652600587528386209460078601805480158015906104fe575b6102ea90611086565b600888018054909290156104e457505080546000198101919082116104d157555b84516330bf93dd60e01b81529588878061032788878301610e2e565b03818b73f1a9564396f0d27fc61ba2e0e0938dc0995d42235af19687156104c7578897610498575b50678ac7230489e80000968781029781890414901517156104855760058101805490600a82018092116104725791600a91600194935501610391888254610d0f565b90550161039f868254610d0f565b90556103d4878551621b999d60ea1b8152886003820152602360018060a01b0391205416938651809381928851928391610cec565b810160038152030190205490823b1561046e5790602487928387519586948593630ad4782960e31b85528401525af1801561046457849392918691610449575b50506104407fbde6b358268687a57a765fca97482d5e6bdf1d9c90394a7cc6de65ae723f9b0191610ea5565b91519480a38152f35b6104569192939450610bfa565b610244579082918487610414565b83513d87823e3d90fd5b8680fd5b634e487b7160e01b8a526011855260248afd5b634e487b7160e01b885260118352602488fd5b9096508881813d83116104c0575b6104b08183610c41565b810103126101cf5751958961034f565b503d6104a6565b86513d8a823e3d90fd5b634e487b7160e01b895260118452602489fd5b600019820192509082116104d1575542600987015561030b565b50600888015415156102e1565b828434610532576020366003190112610532575061052b602092356110d2565b9051908152f35b80fd5b839150346100aa5761054636610cba565b509233835260209382855261055f828520541515610e5a565b815181519361058b87840195610576818589610cec565b830192888160039586815203019020546112b9565b60018652600a8752838620948451888186516105a8818387610cec565b81018681520301902054875260058852848720956007870180548581108015906107ae575b6105d690611086565b600889019186835411600014610794575050805460021981019190821161047257555b85516330bf93dd60e01b81529689888061061589888301610e2e565b03818c73a1b9be3dec8612e727564baf46387c4366912d745af197881561078a57899861075b575b50678ac7230489e800009788810298818a0414901517156104d15760058101805490601e82018092116107485792600a6106c295936001938e9655016106848b8254610d0f565b905501610692898254610d0f565b90558651621b999d60ea1b81528986820152602360018060a01b0391205416948751809481938951928391610cec565b8201908152030190205490823b1561046e5790602487928387519586948593630ad4782960e31b85528401525af180156104645784939291869161072d575b50506104407f3bac9bae425cf10b911f766ffeda5040c2214cb2771df506a19a97c67a50100991610ea5565b61073a9192939450610bfa565b610244579082918487610701565b634e487b7160e01b8b526011865260248bfd5b9097508981813d8311610783575b6107738183610c41565b810103126101cf5751968a61063d565b503d610769565b87513d8b823e3d90fd5b6002198201925090821161047257554260098801556105f9565b5060088901548611156105cd565b828434610532576020366003190112610532575061052b60209235610ed2565b919050346102485760208060031936011261024457823567ffffffffffffffff8111610a855761080f9036908501610c63565b91338552838252610824818620541515610e5a565b61082d83610d32565b15610a53578051621b999d60ea1b815260038082018790526023909120548251855185870194926001600160a01b031691908690829061086e81838a610cec565b810186815203019020548852600585528682892001549660018801809811610a4057878952600686526002838a200180549060018201809211610a2d57908a929155835187818a516108c181838c610cec565b810188815203019020548252600587528881858420015588825260068752848483200154845188818b516108f681838d610cec565b810189815203019020548352600588526006858420015588825260068752848483200154845188818b5161092b81838d610cec565b8101898152030190205483526005885260078584200155835187818a5161095381838c610cec565b810188815203019020548252600587524260098584200155835187818a5161097c81838c610cec565b8101888152030190205490833b15610248576024908386519586948593630ad4782960e31b85528401525af18015610a2357610a04575b50916109dd93916109cd9351809481938851928391610cec565b8201908152030190205491610ea5565b7f6b95a864619128204031150d0af28bc7f123caefdc26282fb432d0de806c2dc98480a480f35b916109cd939197610a186109dd9694610bfa565b9791935091936109b3565b82513d8a823e3d90fd5b634e487b7160e01b8b526011835260248bfd5b634e487b7160e01b895260119052602488fd5b5162461bcd60e51b81529283015250600e60248201526d04e6f7420656e6f756768206578760941b6044820152606490fd5b8480fd5b8383346100aa576020928360031936011261024857803567ffffffffffffffff811161024457610abc9036908301610c63565b825163a9ee45c160e01b808252909182610ad882868301610e2e565b0392858173f1a9564396f0d27fc61ba2e0e0938dc0995d42239581875afa90811561023a57918691610b1e93899161021d57505193825193849283928352888301610e2e565b0381865afa908115610213579160ff88809593610b6897958a916101e6575001518751631e74a30360e01b81529485019283521660ff166020820152919384928391829160400190565b03915afa9283156101db578093610b82575b505051908152f35b909192508382813d8311610bad575b610b9b8183610c41565b81010312610532575051908380610b7a565b503d610b91565b8284346105325760203660031901126105325782359067ffffffffffffffff82116105325750610bec602093610bf192369101610c63565b610d32565b90519015158152f35b67ffffffffffffffff8111610c0e57604052565b634e487b7160e01b600052604160045260246000fd5b610180810190811067ffffffffffffffff821117610c0e57604052565b90601f8019910116810190811067ffffffffffffffff821117610c0e57604052565b81601f820112156101cf5780359067ffffffffffffffff8211610c0e5760405192610c98601f8401601f191660200185610c41565b828452602083830101116101cf57816000926020809301838601378301015290565b60406003198201126101cf576004359067ffffffffffffffff82116101cf57610ce591600401610c63565b9060243590565b60005b838110610cff5750506000910152565b8181015183820152602001610cef565b91908201809211610d1c57565b634e487b7160e01b600052601160045260246000fd5b60405190805191610d8060208281809481870197610d5181838b610cec565b810160038152030190205494600095865260058252600460408720015494604051938492839251928391610cec565b810160038152030190205483526005815260056040842001549060018301808411610dd557845260069052604083206001015411159081610dca575b50610dc45790565b50600190565b9050600a1138610dbc565b634e487b7160e01b85526011600452602485fd5b908160409103126101cf5760405190604082019082821067ffffffffffffffff831117610c0e5760209160405280518352015160ff811681036101cf57602082015290565b60409160208252610e4e8151809281602086015260208686019101610cec565b601f01601f1916010190565b15610e6157565b606460405162461bcd60e51b815260206004820152602060248201527f4d6f6469666965727346616365743a206e6f742064656c656761746520454f416044820152fd5b610ebd90602060405192828480945193849201610cec565b810103902090565b91908203918211610d1c57565b6000908152602060058152604082209160405191610eef83610c24565b60018060a01b0391828554168452600192600186015416828501526002850160405193828254928360011c9360018116801561107c575b8786108114611068578589528896959493929181156110445750600114611007575b50505050610f5892500382610c41565b60408201526003820154606082015260048201546080820152600582015460a082015260068201549160c082019280845260078201549060e08401938285526008840154610100820152610160600b60098601549586610120850152600a810154610140850152015491015281146110005750610fd86107089142610ec5565b0490610fe5828251610d0f565b835111610ff25750505190565b610ffd925051610d0f565b90565b9250505090565b815285812095935091905b81831061102c575050610f58935082010138808080610f48565b85548784018501529485019486945091830191611012565b9350505050610f5894925060ff191682840152151560051b82010138808080610f48565b634e487b7160e01b84526022600452602484fd5b94607f1694610f26565b1561108d57565b60405162461bcd60e51b815260206004820152601760248201527f4e6f7420656e6f75676820686561727420706f696e74730000000000000000006044820152606490fd5b6000908152602090600582526040812091604051906110f082610c24565b83546001600160a01b03908116835260018581015490911683830152604051600286018054919392869280821c929080831680156112af575b868510811461129b578488528795949392918115611279575060011461123c575b50505061115992500382610c41565b60408201526003830154606082015260048301546080820152600583015460a08201526111cc60068401549360c0830194855260078101549260e081019384526008820154610100820152610160600b60098401549384610120850152600a810154610140850152015491015242610ec5565b610708936111de858304809451610d0f565b9051116111ec575050905090565b83820291808304851490151715611228579061120791610ec5565b8203918211611214575090565b634e487b7160e01b81526011600452602490fd5b634e487b7160e01b83526011600452602483fd5b88528488209492508791905b818310611261575050611159935082010138808061114a565b85548784018501529485019486945091830191611248565b9250505061115994925060ff191682840152151560051b82010138808061114a565b634e487b7160e01b8a52602260045260248afd5b93607f1693611129565b8060005260056020526112d0604060002091610ed2565b600782015560094291015556fea26469706673582212208edc47d14e54a2c6b14d73df90895e823d31f8462027a8a7e8b54f5e1f6d223364736f6c63430008180033",
  "devdoc": {
    "kind": "dev",
    "methods": {},
    "version": 1
  },
  "userdoc": {
    "events": {
      "playDiceEvent(string,uint256)": {
        "notice": "token preDistribution functions"
      }
    },
    "kind": "user",
    "methods": {},
    "version": 1
  },
  "storageLayout": {
    "storage": [
      {
        "astId": 16359,
        "contract": "contracts/elementa/botMiniGameFacet.sol:botMiniGameFacet",
        "label": "s",
        "offset": 0,
        "slot": "0",
        "type": "t_struct(AppStorage)16312_storage"
      }
    ],
    "types": {
      "t_address": {
        "encoding": "inplace",
        "label": "address",
        "numberOfBytes": "20"
      },
      "t_array(t_uint256)10_storage": {
        "base": "t_uint256",
        "encoding": "inplace",
        "label": "uint256[10]",
        "numberOfBytes": "320"
      },
      "t_bool": {
        "encoding": "inplace",
        "label": "bool",
        "numberOfBytes": "1"
      },
      "t_bytes32": {
        "encoding": "inplace",
        "label": "bytes32",
        "numberOfBytes": "32"
      },
      "t_enum(EquipmentType)16324": {
        "encoding": "inplace",
        "label": "enum EquipmentType",
        "numberOfBytes": "1"
      },
      "t_enum(UserType)16330": {
        "encoding": "inplace",
        "label": "enum UserType",
        "numberOfBytes": "1"
      },
      "t_mapping(t_address,t_bool)": {
        "encoding": "mapping",
        "key": "t_address",
        "label": "mapping(address => bool)",
        "numberOfBytes": "32",
        "value": "t_bool"
      },
      "t_mapping(t_address,t_struct(DelegateEOA)16184_storage)": {
        "encoding": "mapping",
        "key": "t_address",
        "label": "mapping(address => struct DelegateEOA)",
        "numberOfBytes": "32",
        "value": "t_struct(DelegateEOA)16184_storage"
      },
      "t_mapping(t_string_memory_ptr,t_address)": {
        "encoding": "mapping",
        "key": "t_string_memory_ptr",
        "label": "mapping(string => address)",
        "numberOfBytes": "32",
        "value": "t_address"
      },
      "t_mapping(t_string_memory_ptr,t_struct(User)16175_storage)": {
        "encoding": "mapping",
        "key": "t_string_memory_ptr",
        "label": "mapping(string => struct User)",
        "numberOfBytes": "32",
        "value": "t_struct(User)16175_storage"
      },
      "t_mapping(t_string_memory_ptr,t_uint256)": {
        "encoding": "mapping",
        "key": "t_string_memory_ptr",
        "label": "mapping(string => uint256)",
        "numberOfBytes": "32",
        "value": "t_uint256"
      },
      "t_mapping(t_uint256,t_array(t_uint256)10_storage)": {
        "encoding": "mapping",
        "key": "t_uint256",
        "label": "mapping(uint256 => uint256[10])",
        "numberOfBytes": "32",
        "value": "t_array(t_uint256)10_storage"
      },
      "t_mapping(t_uint256,t_struct(ElementaItem)16239_storage)": {
        "encoding": "mapping",
        "key": "t_uint256",
        "label": "mapping(uint256 => struct ElementaItem)",
        "numberOfBytes": "32",
        "value": "t_struct(ElementaItem)16239_storage"
      },
      "t_mapping(t_uint256,t_struct(ElementaNFT)16218_storage)": {
        "encoding": "mapping",
        "key": "t_uint256",
        "label": "mapping(uint256 => struct ElementaNFT)",
        "numberOfBytes": "32",
        "value": "t_struct(ElementaNFT)16218_storage"
      },
      "t_mapping(t_uint256,t_struct(ElementaToken)16244_storage)": {
        "encoding": "mapping",
        "key": "t_uint256",
        "label": "mapping(uint256 => struct ElementaToken)",
        "numberOfBytes": "32",
        "value": "t_struct(ElementaToken)16244_storage"
      },
      "t_mapping(t_uint256,t_struct(MysteryBox)16223_storage)": {
        "encoding": "mapping",
        "key": "t_uint256",
        "label": "mapping(uint256 => struct MysteryBox)",
        "numberOfBytes": "32",
        "value": "t_struct(MysteryBox)16223_storage"
      },
      "t_mapping(t_uint256,t_struct(levelInfo)16193_storage)": {
        "encoding": "mapping",
        "key": "t_uint256",
        "label": "mapping(uint256 => struct levelInfo)",
        "numberOfBytes": "32",
        "value": "t_struct(levelInfo)16193_storage"
      },
      "t_string_memory_ptr": {
        "encoding": "bytes",
        "label": "string",
        "numberOfBytes": "32"
      },
      "t_string_storage": {
        "encoding": "bytes",
        "label": "string",
        "numberOfBytes": "32"
      },
      "t_struct(AppStorage)16312_storage": {
        "encoding": "inplace",
        "label": "struct AppStorage",
        "members": [
          {
            "astId": 16257,
            "contract": "contracts/elementa/botMiniGameFacet.sol:botMiniGameFacet",
            "label": "contracts",
            "offset": 0,
            "slot": "0",
            "type": "t_mapping(t_string_memory_ptr,t_address)"
          },
          {
            "astId": 16262,
            "contract": "contracts/elementa/botMiniGameFacet.sol:botMiniGameFacet",
            "label": "users",
            "offset": 0,
            "slot": "1",
            "type": "t_mapping(t_string_memory_ptr,t_struct(User)16175_storage)"
          },
          {
            "astId": 16264,
            "contract": "contracts/elementa/botMiniGameFacet.sol:botMiniGameFacet",
            "label": "globalUserIndex",
            "offset": 0,
            "slot": "2",
            "type": "t_uint256"
          },
          {
            "astId": 16268,
            "contract": "contracts/elementa/botMiniGameFacet.sol:botMiniGameFacet",
            "label": "userIndex",
            "offset": 0,
            "slot": "3",
            "type": "t_mapping(t_string_memory_ptr,t_uint256)"
          },
          {
            "astId": 16273,
            "contract": "contracts/elementa/botMiniGameFacet.sol:botMiniGameFacet",
            "label": "delegateEOAs",
            "offset": 0,
            "slot": "4",
            "type": "t_mapping(t_address,t_struct(DelegateEOA)16184_storage)"
          },
          {
            "astId": 16278,
            "contract": "contracts/elementa/botMiniGameFacet.sol:botMiniGameFacet",
            "label": "elementaNFTs",
            "offset": 0,
            "slot": "5",
            "type": "t_mapping(t_uint256,t_struct(ElementaNFT)16218_storage)"
          },
          {
            "astId": 16283,
            "contract": "contracts/elementa/botMiniGameFacet.sol:botMiniGameFacet",
            "label": "levelInfos",
            "offset": 0,
            "slot": "6",
            "type": "t_mapping(t_uint256,t_struct(levelInfo)16193_storage)"
          },
          {
            "astId": 16287,
            "contract": "contracts/elementa/botMiniGameFacet.sol:botMiniGameFacet",
            "label": "isDelegateEOA",
            "offset": 0,
            "slot": "7",
            "type": "t_mapping(t_address,t_bool)"
          },
          {
            "astId": 16292,
            "contract": "contracts/elementa/botMiniGameFacet.sol:botMiniGameFacet",
            "label": "elementaItems",
            "offset": 0,
            "slot": "8",
            "type": "t_mapping(t_uint256,t_struct(ElementaItem)16239_storage)"
          },
          {
            "astId": 16298,
            "contract": "contracts/elementa/botMiniGameFacet.sol:botMiniGameFacet",
            "label": "equipItems",
            "offset": 0,
            "slot": "9",
            "type": "t_mapping(t_uint256,t_array(t_uint256)10_storage)"
          },
          {
            "astId": 16303,
            "contract": "contracts/elementa/botMiniGameFacet.sol:botMiniGameFacet",
            "label": "elementaToken",
            "offset": 0,
            "slot": "10",
            "type": "t_mapping(t_uint256,t_struct(ElementaToken)16244_storage)"
          },
          {
            "astId": 16306,
            "contract": "contracts/elementa/botMiniGameFacet.sol:botMiniGameFacet",
            "label": "oraklVRF",
            "offset": 0,
            "slot": "11",
            "type": "t_struct(OraklVRF)16253_storage"
          },
          {
            "astId": 16311,
            "contract": "contracts/elementa/botMiniGameFacet.sol:botMiniGameFacet",
            "label": "mysteryBoxes",
            "offset": 0,
            "slot": "13",
            "type": "t_mapping(t_uint256,t_struct(MysteryBox)16223_storage)"
          }
        ],
        "numberOfBytes": "448"
      },
      "t_struct(DelegateEOA)16184_storage": {
        "encoding": "inplace",
        "label": "struct DelegateEOA",
        "members": [
          {
            "astId": 16177,
            "contract": "contracts/elementa/botMiniGameFacet.sol:botMiniGameFacet",
            "label": "userIndex",
            "offset": 0,
            "slot": "0",
            "type": "t_uint256"
          },
          {
            "astId": 16179,
            "contract": "contracts/elementa/botMiniGameFacet.sol:botMiniGameFacet",
            "label": "userId",
            "offset": 0,
            "slot": "1",
            "type": "t_string_storage"
          },
          {
            "astId": 16181,
            "contract": "contracts/elementa/botMiniGameFacet.sol:botMiniGameFacet",
            "label": "connectAddress",
            "offset": 0,
            "slot": "2",
            "type": "t_address"
          },
          {
            "astId": 16183,
            "contract": "contracts/elementa/botMiniGameFacet.sol:botMiniGameFacet",
            "label": "isOwnNFT",
            "offset": 20,
            "slot": "2",
            "type": "t_bool"
          }
        ],
        "numberOfBytes": "96"
      },
      "t_struct(ElementaItem)16239_storage": {
        "encoding": "inplace",
        "label": "struct ElementaItem",
        "members": [
          {
            "astId": 16226,
            "contract": "contracts/elementa/botMiniGameFacet.sol:botMiniGameFacet",
            "label": "equipmentType",
            "offset": 0,
            "slot": "0",
            "type": "t_enum(EquipmentType)16324"
          },
          {
            "astId": 16228,
            "contract": "contracts/elementa/botMiniGameFacet.sol:botMiniGameFacet",
            "label": "itemId",
            "offset": 0,
            "slot": "1",
            "type": "t_uint256"
          },
          {
            "astId": 16230,
            "contract": "contracts/elementa/botMiniGameFacet.sol:botMiniGameFacet",
            "label": "name",
            "offset": 0,
            "slot": "2",
            "type": "t_string_storage"
          },
          {
            "astId": 16232,
            "contract": "contracts/elementa/botMiniGameFacet.sol:botMiniGameFacet",
            "label": "svgUri",
            "offset": 0,
            "slot": "3",
            "type": "t_string_storage"
          },
          {
            "astId": 16234,
            "contract": "contracts/elementa/botMiniGameFacet.sol:botMiniGameFacet",
            "label": "animateColors",
            "offset": 0,
            "slot": "4",
            "type": "t_string_storage"
          },
          {
            "astId": 16236,
            "contract": "contracts/elementa/botMiniGameFacet.sol:botMiniGameFacet",
            "label": "stopColor",
            "offset": 0,
            "slot": "5",
            "type": "t_string_storage"
          },
          {
            "astId": 16238,
            "contract": "contracts/elementa/botMiniGameFacet.sol:botMiniGameFacet",
            "label": "animateDuration",
            "offset": 0,
            "slot": "6",
            "type": "t_string_storage"
          }
        ],
        "numberOfBytes": "224"
      },
      "t_struct(ElementaNFT)16218_storage": {
        "encoding": "inplace",
        "label": "struct ElementaNFT",
        "members": [
          {
            "astId": 16195,
            "contract": "contracts/elementa/botMiniGameFacet.sol:botMiniGameFacet",
            "label": "ownerAddress",
            "offset": 0,
            "slot": "0",
            "type": "t_address"
          },
          {
            "astId": 16197,
            "contract": "contracts/elementa/botMiniGameFacet.sol:botMiniGameFacet",
            "label": "delegateAddress",
            "offset": 0,
            "slot": "1",
            "type": "t_address"
          },
          {
            "astId": 16199,
            "contract": "contracts/elementa/botMiniGameFacet.sol:botMiniGameFacet",
            "label": "nickName",
            "offset": 0,
            "slot": "2",
            "type": "t_string_storage"
          },
          {
            "astId": 16201,
            "contract": "contracts/elementa/botMiniGameFacet.sol:botMiniGameFacet",
            "label": "grade",
            "offset": 0,
            "slot": "3",
            "type": "t_uint256"
          },
          {
            "astId": 16203,
            "contract": "contracts/elementa/botMiniGameFacet.sol:botMiniGameFacet",
            "label": "level",
            "offset": 0,
            "slot": "4",
            "type": "t_uint256"
          },
          {
            "astId": 16205,
            "contract": "contracts/elementa/botMiniGameFacet.sol:botMiniGameFacet",
            "label": "exp",
            "offset": 0,
            "slot": "5",
            "type": "t_uint256"
          },
          {
            "astId": 16207,
            "contract": "contracts/elementa/botMiniGameFacet.sol:botMiniGameFacet",
            "label": "heartMax",
            "offset": 0,
            "slot": "6",
            "type": "t_uint256"
          },
          {
            "astId": 16209,
            "contract": "contracts/elementa/botMiniGameFacet.sol:botMiniGameFacet",
            "label": "heartPoint",
            "offset": 0,
            "slot": "7",
            "type": "t_uint256"
          },
          {
            "astId": 16211,
            "contract": "contracts/elementa/botMiniGameFacet.sol:botMiniGameFacet",
            "label": "plusHeartPoint",
            "offset": 0,
            "slot": "8",
            "type": "t_uint256"
          },
          {
            "astId": 16213,
            "contract": "contracts/elementa/botMiniGameFacet.sol:botMiniGameFacet",
            "label": "updateHeartTime",
            "offset": 0,
            "slot": "9",
            "type": "t_uint256"
          },
          {
            "astId": 16215,
            "contract": "contracts/elementa/botMiniGameFacet.sol:botMiniGameFacet",
            "label": "elementaPoint",
            "offset": 0,
            "slot": "10",
            "type": "t_uint256"
          },
          {
            "astId": 16217,
            "contract": "contracts/elementa/botMiniGameFacet.sol:botMiniGameFacet",
            "label": "originRandomValue",
            "offset": 0,
            "slot": "11",
            "type": "t_uint256"
          }
        ],
        "numberOfBytes": "384"
      },
      "t_struct(ElementaToken)16244_storage": {
        "encoding": "inplace",
        "label": "struct ElementaToken",
        "members": [
          {
            "astId": 16241,
            "contract": "contracts/elementa/botMiniGameFacet.sol:botMiniGameFacet",
            "label": "phaseMaxSupply",
            "offset": 0,
            "slot": "0",
            "type": "t_uint256"
          },
          {
            "astId": 16243,
            "contract": "contracts/elementa/botMiniGameFacet.sol:botMiniGameFacet",
            "label": "mintedSupply",
            "offset": 0,
            "slot": "1",
            "type": "t_uint256"
          }
        ],
        "numberOfBytes": "64"
      },
      "t_struct(MysteryBox)16223_storage": {
        "encoding": "inplace",
        "label": "struct MysteryBox",
        "members": [
          {
            "astId": 16220,
            "contract": "contracts/elementa/botMiniGameFacet.sol:botMiniGameFacet",
            "label": "boxId",
            "offset": 0,
            "slot": "0",
            "type": "t_uint256"
          },
          {
            "astId": 16222,
            "contract": "contracts/elementa/botMiniGameFacet.sol:botMiniGameFacet",
            "label": "uniqValue",
            "offset": 0,
            "slot": "1",
            "type": "t_uint256"
          }
        ],
        "numberOfBytes": "64"
      },
      "t_struct(OraklVRF)16253_storage": {
        "encoding": "inplace",
        "label": "struct OraklVRF",
        "members": [
          {
            "astId": 16246,
            "contract": "contracts/elementa/botMiniGameFacet.sol:botMiniGameFacet",
            "label": "keyHash",
            "offset": 0,
            "slot": "0",
            "type": "t_bytes32"
          },
          {
            "astId": 16248,
            "contract": "contracts/elementa/botMiniGameFacet.sol:botMiniGameFacet",
            "label": "accId",
            "offset": 0,
            "slot": "1",
            "type": "t_uint64"
          },
          {
            "astId": 16250,
            "contract": "contracts/elementa/botMiniGameFacet.sol:botMiniGameFacet",
            "label": "callbackGasLimit",
            "offset": 8,
            "slot": "1",
            "type": "t_uint32"
          },
          {
            "astId": 16252,
            "contract": "contracts/elementa/botMiniGameFacet.sol:botMiniGameFacet",
            "label": "numWords",
            "offset": 12,
            "slot": "1",
            "type": "t_uint32"
          }
        ],
        "numberOfBytes": "64"
      },
      "t_struct(User)16175_storage": {
        "encoding": "inplace",
        "label": "struct User",
        "members": [
          {
            "astId": 16161,
            "contract": "contracts/elementa/botMiniGameFacet.sol:botMiniGameFacet",
            "label": "userId",
            "offset": 0,
            "slot": "0",
            "type": "t_string_storage"
          },
          {
            "astId": 16163,
            "contract": "contracts/elementa/botMiniGameFacet.sol:botMiniGameFacet",
            "label": "nftId",
            "offset": 0,
            "slot": "1",
            "type": "t_uint256"
          },
          {
            "astId": 16165,
            "contract": "contracts/elementa/botMiniGameFacet.sol:botMiniGameFacet",
            "label": "reciveAddress",
            "offset": 0,
            "slot": "2",
            "type": "t_address"
          },
          {
            "astId": 16167,
            "contract": "contracts/elementa/botMiniGameFacet.sol:botMiniGameFacet",
            "label": "delegateEOA",
            "offset": 0,
            "slot": "3",
            "type": "t_address"
          },
          {
            "astId": 16170,
            "contract": "contracts/elementa/botMiniGameFacet.sol:botMiniGameFacet",
            "label": "userType",
            "offset": 20,
            "slot": "3",
            "type": "t_enum(UserType)16330"
          },
          {
            "astId": 16172,
            "contract": "contracts/elementa/botMiniGameFacet.sol:botMiniGameFacet",
            "label": "refferalId",
            "offset": 0,
            "slot": "4",
            "type": "t_string_storage"
          },
          {
            "astId": 16174,
            "contract": "contracts/elementa/botMiniGameFacet.sol:botMiniGameFacet",
            "label": "refferalCount",
            "offset": 0,
            "slot": "5",
            "type": "t_uint256"
          }
        ],
        "numberOfBytes": "192"
      },
      "t_struct(levelInfo)16193_storage": {
        "encoding": "inplace",
        "label": "struct levelInfo",
        "members": [
          {
            "astId": 16186,
            "contract": "contracts/elementa/botMiniGameFacet.sol:botMiniGameFacet",
            "label": "level",
            "offset": 0,
            "slot": "0",
            "type": "t_uint256"
          },
          {
            "astId": 16188,
            "contract": "contracts/elementa/botMiniGameFacet.sol:botMiniGameFacet",
            "label": "requireExp",
            "offset": 0,
            "slot": "1",
            "type": "t_uint256"
          },
          {
            "astId": 16190,
            "contract": "contracts/elementa/botMiniGameFacet.sol:botMiniGameFacet",
            "label": "levelUserCount",
            "offset": 0,
            "slot": "2",
            "type": "t_uint256"
          },
          {
            "astId": 16192,
            "contract": "contracts/elementa/botMiniGameFacet.sol:botMiniGameFacet",
            "label": "heartMax",
            "offset": 0,
            "slot": "3",
            "type": "t_uint256"
          }
        ],
        "numberOfBytes": "128"
      },
      "t_uint256": {
        "encoding": "inplace",
        "label": "uint256",
        "numberOfBytes": "32"
      },
      "t_uint32": {
        "encoding": "inplace",
        "label": "uint32",
        "numberOfBytes": "4"
      },
      "t_uint64": {
        "encoding": "inplace",
        "label": "uint64",
        "numberOfBytes": "8"
      }
    }
  }
}