{
  "address": "0x6842A457998d5665723c868e05D56b52F43435c6",
  "abi": [
    {
      "inputs": [
        {
          "internalType": "uint256",
          "name": "_tokenId",
          "type": "uint256"
        }
      ],
      "name": "_generateSVG",
      "outputs": [
        {
          "internalType": "string",
          "name": "",
          "type": "string"
        }
      ],
      "stateMutability": "view",
      "type": "function"
    },
    {
      "inputs": [
        {
          "internalType": "uint256",
          "name": "_tokenId",
          "type": "uint256"
        }
      ],
      "name": "_updateUri",
      "outputs": [],
      "stateMutability": "nonpayable",
      "type": "function"
    },
    {
      "inputs": [
        {
          "internalType": "uint256",
          "name": "_tokenId",
          "type": "uint256"
        }
      ],
      "name": "nft_generateOnlyCharacterSVG",
      "outputs": [
        {
          "internalType": "string",
          "name": "",
          "type": "string"
        }
      ],
      "stateMutability": "view",
      "type": "function"
    },
    {
      "inputs": [
        {
          "internalType": "uint256",
          "name": "_tokenId",
          "type": "uint256"
        }
      ],
      "name": "nft_getUri",
      "outputs": [
        {
          "internalType": "string",
          "name": "",
          "type": "string"
        }
      ],
      "stateMutability": "view",
      "type": "function"
    },
    {
      "inputs": [
        {
          "internalType": "uint256",
          "name": "_tokenId",
          "type": "uint256"
        }
      ],
      "name": "nft_onlyCharacterImage",
      "outputs": [
        {
          "internalType": "string",
          "name": "",
          "type": "string"
        }
      ],
      "stateMutability": "view",
      "type": "function"
    }
  ],
  "transactionHash": "0x7bbaab74fb6403f2e509e173da5e2607b1d240b427862aeb9baab744e288c99b",
  "args": [],
  "numDeployments": 91,
  "solcInputHash": "db3a53b3cc12e7b86be947e0045ad55d",
  "bytecode": "0x6080806040523461001657613b5c908161001c8239f35b600080fdfe60406080815260048036101561001457600080fd5b600091823560e01c8063055b5951146103af57806364b6e2241461038e578063906ef6521461012c578063a0154fa2146100f95763a78f804d1461005757600080fd5b8291346100f55760203660031901126100f5578151621b999d60ea1b81526003810184905260239020546001600160a01b0316803b156100f05783906024845180968193630ad4782960e31b83528635878401525af180156100e6576100bb578380f35b67ffffffffffffffff83116100d35750523880808380f35b634e487b7160e01b845260419052602483fd5b82513d86823e3d90fd5b505050fd5b5050fd5b508234610129576020366003190112610129575061011a61012592356105d8565b9051918291826103f6565b0390f35b80fd5b508234610129576020928360031936011261038a578035926101ac610150856134be565b61018d602a8451809369456c656d656e7461202360b01b8b83015261017d815180928d86860191016103d3565b810103600a81018452018261048d565b825161019881610455565b848152636e616d6560e01b888201526134fd565b9261024161022061021b61021585516101c481610455565b600b81526a3232b9b1b934b83a34b7b760a91b8b8201528651906101e782610455565b601f82527f5465737420456c656d656e746120644e46542c20666f722074657374696e67008c8301526134fd565b976105d8565b613468565b835161022b81610455565b6005815264696d61676560d81b898201526134fd565b90825193608085019085821067ffffffffffffffff83111761037757508352600384525b60608082101561027c578482018801528601610265565b6101258461011a8a61032c6102e88a898e8e61029784613571565b526102a183613571565b506102ab83613594565b526102b582613594565b506102bf826135a4565b526102c9816135a4565b508551906102d682610455565b60018252600b60fa1b85830152613a77565b610327602286518093607b60f81b8783015261030d81518092896021860191016103d3565b8101607d60f81b602182015203600281018452018261048d565b6137db565b9083519061033982610455565b600682526518985cd94d8d60d21b818301526f30b8383634b1b0ba34b7b717b539b7b760811b85519161036b83610455565b601083528201526138c7565b634e487b7160e01b835260419052602482fd5b5080fd5b508234610129576020366003190112610129575061011a61012592356127e7565b508234610129576020366003190112610129575061011a61021b61012593356127e7565b60005b8381106103e65750506000910152565b81810151838201526020016103d6565b6040916020825261041681518092816020860152602086860191016103d3565b601f01601f1916010190565b610180810190811067ffffffffffffffff82111761043f57604052565b634e487b7160e01b600052604160045260246000fd5b6040810190811067ffffffffffffffff82111761043f57604052565b6020810190811067ffffffffffffffff82111761043f57604052565b90601f8019910116810190811067ffffffffffffffff82111761043f57604052565b60206104f09193929360405194816104d087935180928680870191016103d3565b82016104e4825180938680850191016103d3565b0103808552018361048d565b565b9194936104f0936040519687936020956105148151809289808a0191016103d3565b8501610528825180938980850191016103d3565b0161053b825180938880850191016103d3565b0161054e825180938780850191016103d3565b016104e4825180938680850191016103d3565b92936104f0949695919296604051978894602096610587815180928a808b0191016103d3565b860161059b825180938a80850191016103d3565b01610528825180938980850191016103d3565b906104f06020604051846105cb82965180928580860191016103d3565b810103808552018361048d565b908160005260056020526040600020604051906105f482610422565b60018060a01b03808254168352600182015416602083015260028101604051906000908054908160011c916001811680156127a7575b6020841081146127915783865290811561276a575060011461272c575b5050918161065c600b9361016095038261048d565b60408501526003810154606085015260048101546080850152600581015460a0850152600681015460c0850152600781015460e085015260088101546101008501526009810154610120850152600a8101546101408501520154910152604051906106c682610455565b60078252660ecd2caee84def60cb1b60208301526107706024604051936106ec85610455565b600b85526a030203020323530203235360ac1b6020860152604051948161071d8793518092602080870191016103d3565b603d60f81b838201602081810192909252601160f91b602182015283519361074b92859260220191016103d3565b61011160f51b908301909101602281019190915281900360048101909152018361048d565b61153c611147610a1e6109ff60405161078881610455565b60028152611a5960f21b602082015261081f6024604051926107a984610455565b600c84526b67726164654f75746c696e6560a01b602085015260405193816107db8693518092602080870191016103d3565b8201603d60f81b6020820152601160f91b60218201526108058251809360206022850191016103d3565b0161011160f51b602282015203600481018452018261048d565b6108f160405161082e81610455565b6002815261783160f01b602082015261087760246040519261084f84610455565b6002845261302560f01b602085015260405193816107db8693518092602080870191016103d3565b61090b602460405161088881610455565b6002815261793160f01b60208201526040516108a381610455565b60028152602081019061302560f01b825260405196836108cd8995518092602080890191016103d3565b840191603d60f81b6020840152601160f91b602184015251809360228401906103d3565b0161011160f51b602282015203600481018552018361048d565b6040519261091884610455565b60028452613c1960f11b60208501526109a760246040519561093987610455565b60048752633130302560e01b602088015260405196816109638993518092602080870191016103d3565b8201603d60f81b6020820152601160f91b602182015261098d8251809360206022850191016103d3565b0161011160f51b602282015203600481018752018561048d565b610a1960246040516109b881610455565b60028152613c9960f11b60208201526040516109d381610455565b600481526020810190633130302560e01b825260405199836108cd8c95518092602080890191016103d3565b0161011160f51b602282015203600481018852018661048d565b6104f2565b611141610af6610805610a816024604051610a3881610455565b60068152651bd9999cd95d60d21b6020820152604051610a5781610455565b60028152602081019061302560f01b825260405195836108cd8895518092602080890191016103d3565b60405190610a8e82610455565b60058252647374796c6560d81b6020830152610af16024610aad6135b4565b936040519481610ac78793518092602080870191016103d3565b8201603d60f81b6020820152601160f91b60218201526108f18251809360206022850191016103d3565b6104af565b610def6026610c9d604051610b0a81610455565b600d81526c6174747269627574654e616d6560981b6020820152610b66602460405192610b3684610455565b600a84526939ba37b816b1b7b637b960b11b602085015260405193816107db8693518092602080870191016103d3565b604051610b7281610455565b600681526576616c75657360d01b6020820152610bda602460405192610b9784610455565b601784527f236166616661663b236432643464633b23616661666166000000000000000000602085015260405193816107db8693518092602080870191016103d3565b60405190610be782610455565b6003825262323ab960e91b6020830152610c31602460405193610c0985610455565b6002855261327360f01b60208601526040519481610ac78793518092602080870191016103d3565b60405192610c3e84610455565b600b84526a1c995c19585d10dbdd5b9d60aa1b6020850152610c98602460405195610c6887610455565b600a875269696e646566696e69746560b01b602088015260405196816109638993518092602080870191016103d3565b6127b1565b92610d296024604051610caf81610455565b6007815266616e696d61746560c81b6020820152604051968791600f60fa1b6020840152610ce78151809260206021870191016103d3565b600160fd1b60218285010152610d0982518093602060228588010191016103d3565b61179f60f11b60228383860101015282010103600481018752018561048d565b604051610d3581610455565b6004815263073746f760e41b6020820152604051948592600f60fa1b60208501528251610d698160218701602087016103d3565b8401600160fd1b6021820152610d898251809360206022850191016103d3565b601f60f91b60228383010152610dab83518094602060238686010191016103d3565b613c2f60f01b602384848401010152610dd2845180956020602587878701010191016103d3565b010101601f60f91b6025820152600682820301825203018261048d565b610e90610ac7604051610e0181610455565b60068152651bd9999cd95d60d21b6020820152610e50602460405192610e2684610455565b60048452633130302560e01b602085015260405193816107db8693518092602080870191016103d3565b610af16024604051610e6181610455565b6005815260208101647374796c6560d81b8152610e7c6135b4565b9060405196879351809260208601906103d3565b90610af160266110056108cd604051610ea881610455565b600d81526c6174747269627574654e616d6560981b6020820152610ed4602460405192610b3684610455565b604051610ee081610455565b600681526576616c75657360d01b6020820152610f05602460405192610b9784610455565b60405191610f1283610455565b6003835262323ab960e91b6020840152610fa0602460405194610f3486610455565b6002865261327360f01b60208701526040519581610f5c8893518092602080870191016103d3565b8201603d60f81b6020820152601160f91b6021820152610f868251809360206022850191016103d3565b0161011160f51b602282015203600481018652018461048d565b610c986024604051610fb181610455565b600b8152602081016a1c995c19585d10dbdd5b9d60aa1b8152604051610fd681610455565b600a815261098d602082019269696e646566696e69746560b01b84526040519a8b9551809260208801906103d3565b93611089602460405161101781610455565b6007815266616e696d61746560c81b6020820152604051978891600f60fa1b602084015261104f8151809260206021870191016103d3565b8201600160fd1b602182015261106f8251809360206022850191016103d3565b0161179f60f11b602282015203600481018852018661048d565b60405161109581610455565b6004815263073746f760e41b6020820152604051958692600f60fa1b602085015282516110c98160218701602087016103d3565b8401600160fd1b60218201526110e98251809360206022850191016103d3565b01601f60f91b60228201526111088251809360206023850191016103d3565b01613c2f60f01b60238201526111288251809360206025850191016103d3565b01601f60f91b602582015203600681018552018361048d565b906136c2565b6115366112dc6108cd60405161115c81610455565b60028152611a5960f21b60208201526111ad60246040519261117d84610455565b600a845269189858dad9dc9bdd5b9960b21b602085015260405193816107db8693518092602080870191016103d3565b6040516111b981610455565b6002815261783160f01b60208201526111da60246040519261084f84610455565b604051906111e782610455565b60028252613c1960f11b602083015261123060246040519361120885610455565b6002855261302560f01b60208601526040519481610ac78793518092602080870191016103d3565b6040519261123d84610455565b6002845261793160f01b602085015261128660246040519561125e87610455565b6002875261302560f01b602088015260405196816109638993518092602080870191016103d3565b610a19602460405161129781610455565b6002815260208101613c9960f11b81526040516112b381610455565b600481526109ff6020820192633130302560e01b84526040519b8c9551809260208801906103d3565b6111416113776108cd6040516112f181610455565b60068152651bd9999cd95d60d21b602082015261131660246040519261084f84610455565b610af1602460405161132781610455565b600a8152602081016939ba37b816b1b7b637b960b11b815260405161134b81610455565b600781526108f160208201926611b3333333331960c91b845260405198899551809260208801906103d3565b61144660266040519261138984610455565b6004845263073746f760e41b6020850152604051936113a785610471565b60008552604051948592600f60fa1b602085015282516113ce8160218701602087016103d3565b8401600160fd1b60218201526113ee8251809360206022850191016103d3565b01601f60f91b602282015261140d8251809360206023850191016103d3565b01613c2f60f01b602382015261142d8251809360206025850191016103d3565b01601f60f91b602582015203600681018452018261048d565b6114de6108cd60405161145881610455565b60068152651bd9999cd95d60d21b602082015261147d602460405192610e2684610455565b610af1602460405161148e81610455565b600a8152602081016939ba37b816b1b7b637b960b11b81526040516114b281610455565b600781526108f16020820192662366396639663960c81b845260405198899551809260208801906103d3565b90610af16026604051936114f185610455565b6004855263073746f760e41b60208601526040519461150f86610471565b60008652604051958692600f60fa1b602085015282516110c98160218701602087016103d3565b906104af565b9261160b602660405161154e81610455565b60048152636465667360e01b60208201526040519061156c82610471565b60008252604051978892600f60fa1b602085015282516115938160218701602087016103d3565b8401600160fd1b60218201526115b38251809360206022850191016103d3565b01601f60f91b60228201526115d28251809360206023850191016103d3565b01613c2f60f01b60238201526115f28251809360206025850191016103d3565b01601f60f91b602582015203600681018752018561048d565b6040519261161884610455565b60058452640eed2c8e8d60db1b602085015261163c60246040519561093987610455565b6040519461164986610455565b60068652651a195a59da1d60d21b60208701526116dc60246040519761166e89610455565b60048952633130302560e01b60208a015260405198816116988b93518092602080870191016103d3565b8201603d60f81b6020820152601160f91b60218201526116c28251809360206022850191016103d3565b0161011160f51b602282015203600481018952018761048d565b61172961174360266040516116f081610455565b600a81526020810169189858dad9dc9bdd5b9960b21b81526040519485926475726c282360d81b602085015251809260258501906103d3565b8101602960f81b602582015203600681018452018261048d565b6040519661175088610455565b6004885263199a5b1b60e21b60208901526040519160005b600481106127175750611811939495969798506028836117c592603d60f81b6024830152601160f91b60258301526117aa8151809260206026860191016103d3565b810161011160f51b602682015203600881018552018361048d565b61182b60266040516117d681610455565b600c8152602081016b67726164654f75746c696e6560a01b81526040519687926475726c282360d81b602085015251809260258501906103d3565b8101602960f81b602582015203600681018652018461048d565b6040519761183889610455565b60068952657374726f6b6560d01b60208a01526040519360005b6006811061270257506126ff989950846020946126fa9998979461193e946118bf602a8561191b97603d60f81b60266126f59e0152601160f91b60278301526118a4815180928e6028860191016103d3565b810161011160f51b602882015203600a81018752018561048d565b610a1960246040516118d081610455565b600c81528a81016b0e6e8e4ded6ca5aeed2c8e8d60a31b81526040516118f581610455565b600181526109ff8d820192603760f81b84526040519b8c955160209281938801906103d3565b840191603d60f81b8f840152601160f91b602184015251809360228401906103d3565b94611a0760266040519761195189610471565b6000895260405161196181610455565b60048152631c9958dd60e21b87820152604051998a92600f60fa1b89850152825161199281602187018c87016103d3565b8401600160fd1b60218201526119b1825180938c6022850191016103d3565b01601f60f91b60228201526119cf825180938b6023850191016103d3565b01613c2f60f01b60238201526119ee825180938a6025850191016103d3565b01601f60f91b602582015203600681018952018761048d565b60405190611a1482610455565b60098252687472616e73666f726d60b81b84830152611a9c602460405193611a3b85610455565b60158552747472616e736c6174652836322e352c2035352e352960581b878601526040519481611a7487935180928b80870191016103d3565b8201603d60f81b89820152601160f91b60218201526108f1825180938b6022850191016103d3565b611b416026611aaa836127e7565b93604051611ab781610455565b60018152606760f81b88820152604051958692600f60fa1b8a8501528251611ae581602187018d87016103d3565b8401600160fd1b6021820152611b04825180938d6022850191016103d3565b01601f60f91b6022820152611b22825180938c6023850191016103d3565b01613c2f60f01b6023820152611128825180938b6025850191016103d3565b611e8c611e3c604051611b5381610455565b60018152600f60fb1b87820152611bc0602460405192611b7284610455565b6002845261352560f01b8a8501526040519381611b9886935180928e80870191016103d3565b8201603d60f81b8c820152601160f91b6021820152610805825180938e6022850191016103d3565b610805611c186024604051611bd481610455565b60018152607960f81b8b820152604051611bed81610455565b600381528b8101906238352560e81b8252604051958361191b889551602092838294890191016103d3565b604051611c2481610455565b600b81526a666f6e742d66616d696c7960a81b89820152611ca0602460405192611c4d84610455565b6005845264105c9a585b60da1b8c8501526040519381611c778693518f92838294870191016103d3565b8201603d60f81b8e820152601160f91b602182015261080582518f9381946022850191016103d3565b60405190611cad82610455565b6009825268666f6e742d73697a6560b81b8a830152611d26602460405193611cd485610455565b6002855261313560f01b8d8601526040519481611cfc879351602092838294870191016103d3565b8201603d60f81b8f820152601160f91b60218201526108f1825160209381946022850191016103d3565b60405192611d3384610455565b6004845263199a5b1b60e21b8b850152611daa602460405195611d5587610455565b60048752630233030360e41b8e8801526040519681611d7f899351602092838294870191016103d3565b82018f603d60f81b90820152601160f91b602182015261098d825160209381946022850191016103d3565b60405194611db786610455565b600b86526a3a32bc3a16b0b731b437b960a91b8c870152611e37602460405197611de089610455565b60058952641cdd185c9d60da1b8f8a01526040519881611e0b8b9351602092838294870191016103d3565b82016020603d60f81b90820152601160f91b60218201526116c2825160209381946022850191016103d3565b610561565b611e45836134be565b90611e87602d60405180946c456c656d656e74614e4654202360981b8b830152611e77815180928d86860191016103d3565b810103600d81018552018361048d565b613608565b6121db6121866116c2604051611ea181610455565b60018152600f60fb1b89820152611ee7602460405192611ec084610455565b6002845261352560f01b8c8501526040519381611c778693518f92838294870191016103d3565b604051611ef381610455565b60018152607960f81b8a820152611f65602460405192611f1284610455565b600384526239302560e81b8d8501526040519381611f3b869351602092838294870191016103d3565b8201603d60f81b8f820152601160f91b6021820152610805825160209381946022850191016103d3565b604051611f7181610455565b600b81526a666f6e742d66616d696c7960a81b8b820152611ff0602460405192611f9a84610455565b6005845264105c9a585b60da1b8e8501526040519381611fc5869351602092838294870191016103d3565b82018f603d60f81b90820152601160f91b6021820152610805825160209381946022850191016103d3565b60405191611ffd83610455565b6009835268666f6e742d73697a6560b81b8c84015261207860246040519461202486610455565b6002865261031360f41b8f870152604051958161204c889351602092838294870191016103d3565b82016020603d60f81b90820152601160f91b6021820152610f86825160209381946022850191016103d3565b6040519361208585610455565b6004855263199a5b1b60e21b8d8601526120fe6024604051966120a788610455565b600488528f630233030360e41b9089015260405197816120d28a9351602092838294870191016103d3565b82016020603d60f81b90820152601160f91b60218201526109ff825160209381946022850191016103d3565b611e37602460405161210f81610455565b600b81528f6a3a32bc3a16b0b731b437b960a91b9082015260405161213381610455565b600581526020810190641cdd185c9d60da1b82526040519a836121618d9551602092838294890191016103d3565b8401916020603d60f81b90840152601160f91b602184015251809360228401906103d3565b836000526005875261219f6004604060002001546134be565b90611e87602760405180946602632bb32b61d160cd1b8c8301526121cb815180928e86860191016103d3565b810103600781018552018361048d565b906126b56124e661248b6040516121f181610455565b60018152600f60fb1b8a82015261223860246040519261221084610455565b6002845261352560f01b8d8501526040519381611f3b869351602092838294870191016103d3565b60405161224481610455565b60018152607960f81b8b82015261228c60246040519261226384610455565b600384526239352560e81b8e8501526040519381611fc5869351602092838294870191016103d3565b60405161229881610455565b600b81526a666f6e742d66616d696c7960a81b8c8201526123186024604051926122c184610455565b6005845264105c9a585b60da1b8f85015260405193816122ec869351602092838294870191016103d3565b82016020603d60f81b90820152601160f91b6021820152610805825160209381946022850191016103d3565b6040519061232582610455565b6009825268666f6e742d73697a6560b81b8d8301526123a160246040519361234c85610455565b600285528f61031360f41b908601526040519481612375879351602092838294870191016103d3565b82016020603d60f81b90820152601160f91b60218201526108f1825160209381946022850191016103d3565b604051926123ae84610455565b6004845263199a5b1b60e21b8e8501526124286024604051956123d087610455565b600487526020630233030360e41b9088015260405196816123fc899351602092838294870191016103d3565b82016020603d60f81b90820152601160f91b602182015261098d825160209381946022850191016103d3565b6040519461243586610455565b600b86526a3a32bc3a16b0b731b437b960a91b8f870152611e3760246040519761245e89610455565b600589526020641cdd185c9d60da1b908a01526040519881611e0b8b9351602092838294870191016103d3565b85600052600589526124a46007604060002001546134be565b90611e87602c60405180946b0131198991c189a981d903c160a51b8e8301526124d681518f92819386860191016103d3565b810103600c81018552018361048d565b936126626040516124f681610455565b60018152600f60fb1b8a82015261253e60246040519261251584610455565b600384526239352560e81b8d8501526040519381611f3b869351602092838294870191016103d3565b60405161254a81610455565b60018152607960f81b8b82015261256960246040519261226384610455565b60405161257581610455565b600b81526a666f6e742d66616d696c7960a81b8c82015261259e6024604051926122c184610455565b604051906125ab82610455565b6009825268666f6e742d73697a6560b81b8d8301526125d260246040519361234c85610455565b604051926125df84610455565b6004845263199a5b1b60e21b8e8501526126016024604051956123d087610455565b6040519461260e86610455565b600b86526a3a32bc3a16b0b731b437b960a91b8f870152611e3760246040519761263789610455565b60038952602062195b9960ea1b908a01526040519881611e0b8b9351602092838294870191016103d3565b906000526005885261267b6005604060002001546134be565b90611e876025604051809464032bc381d160dd1b8d8301526126a5815180928f86860191016103d3565b810103600581018552018361048d565b9360405199866126ce8c985180928b808c0191016103d3565b87016126e2825180938b80850191016103d3565b0161059b825180938a80850191016103d3565b613715565b6105ae565b90565b80602080928d01015182828901015201611852565b80602080928c01015182828701015201611768565b6000908152602081209092505b81831061275057505081016020018161065c610647565b600181602092949394548385880101520191019190612739565b60ff191660208087019190915292151560051b8501909201925083915061065c9050610647565b634e487b7160e01b600052602260045260246000fd5b92607f169261062a565b906104f09294936040519586926020946127d3815180928880890191016103d3565b840161053b825180938880850191016103d3565b600052600560205260406000209060405161280181610422565b82546001600160a01b039081168252600184810154909116602083015260405160028501805491959260009280821c9290808316801561345e575b60208510811461279157848a5290811561343257506001146133f2575b50505090846128706101609596600b94038261048d565b60408401526003810154606084015260048101546080840152600581015460a0840152600681015460c0840152600781015460e084015260088101546101008401526009810154610120840152600a81015461014084015201549182910152601e8106603c01603c116133dc5760148106604a01604a116133dc5760328106601e01601e116133dc57602881066032016032116133dc5760148106600f0180600f116133dc5760146064830406600f019081600f116133dc57612ae2612adc6108cd6108cd6108cd6108cd6129bd602460405161294c81610455565b6007815260208101660ecd2caee84def60cb1b815260405161296d81610455565b600f81526129a160208201926e02d3330202d3535203132302031323608c1b845260405197889551809260208801906103d3565b0161011160f51b6022820152600482820301825203018261048d565b612a6c60246040516129ce81610455565b60058152612a1d826020830192640eed2c8e8d60db1b84526040516129f281610455565b6004815260208101906109ff633130302560e01b968784526040519b8c9551809260208801906103d3565b60405190612a2a82610455565b6006825260208201651a195a59da1d60d21b8152610f8660405191612a4e83610455565b6004835260208301938452604051998a9551809260208801906103d3565b610c986024604051612a7d81610455565b6013815260208101727072657365727665417370656374526174696f60681b8152604051612aaa81610455565b600d815261098d60208201926c1e135a5916535a59081b59595d609a1b84526040519a8b9551809260208801906103d3565b916134be565b92612b81602c612b3e60405196683bb4b23a341e93981760b91b6020890152612b1581518092602060298c0191016103d3565b870195612b39602b8961013960f51b998a602982015203600b81018b52018961048d565b6134be565b604051958691693432b4b3b43a1e93981760b11b6020840152612b6b815180926020602a870191016103d3565b820190602a82015203600c81018652018461048d565b612b8d60c882066134be565b92612c24604a612ba061016885066134be565b956040519687917f7061747465726e5472616e73666f726d3d277472616e736c61746528302000006020840152612be1815180926020603e870191016103d3565b82016805240e4dee8c2e8ca560bb1b603e820152612c098251809360206047850191016103d3565b016201493960ed1b604782015203602a81018752018561048d565b612c3161016883066134be565b612d156056612c45601e8606603c016134be565b92612c5560148706604a016134be565b6040519485927f3c726563742077696474683d273130302527206865696768743d27313030252760208501526a040ccd2d8d87a4ed0e6d8560ab1b6040850152612ca9815180926020604b880191016103d3565b61016160f51b604b8286010152612ccc825180936020604d8589010191016103d3565b6201296160ed1b604d83838701010152612cf4835180946020605086868a01010191016103d3565b830101016512949390179f60d11b605082015203603681018452018261048d565b612d2261016884066134be565b612d31601e8506603c016134be565b9060148506604a0160186014870601116133dc576064612e4c91612d5a601860148906016134be565b612d6960328906601e016134be565b906040519586937f3c636972636c652063783d273230272063793d2732302720723d2731352720666020860152680d2d8d87a4ed0e6d8560bb1b6040860152612dbc8151809260206049890191016103d3565b840161016160f51b6049820152612ddd825180936020604b850191016103d3565b016201296160ed1b604b820152612dfe825180936020604e850191016103d3565b0172129493903334b63616b7b830b1b4ba3c9e939760691b604e820152612e2f8251809360206061850191016103d3565b6213979f60e91b606183830101520103604481018452018261048d565b612e5961016885066134be565b91612f6e6064612e6e601e8806603c016134be565b94612e7e601860148a06016134be565b612e8d60288a066032016134be565b906040519788937f3c636972636c652063783d273230272063793d2732302720723d2739272066696020860152670d8d87a4ed0e6d8560c31b6040860152612edf8151809260206048890191016103d3565b840161016160f51b6048820152612f00825180936020604a850191016103d3565b016201296160ed1b604a820152612f21825180936020604d850191016103d3565b0172129493903334b63616b7b830b1b4ba3c9e939760691b604d820152612f528251809360206060850191016103d3565b01631390179f60e11b606082015203604481018652018461048d565b612f7b61016886066134be565b612f8a601e8706603c016134be565b9560148106604a01600e6014830601116133dc5761306491612fb3600e601460539406016134be565b6040519889927f3c636972636c652063783d273230272063793d2732302720723d2733272066696020850152670d8d87a4ed0e6d8560c31b60408501526130048151809260206048880191016103d3565b830161016160f51b6048820152613025825180936020604a850191016103d3565b016201296160ed1b604a820152613046825180936020604d850191016103d3565b016512949390179f60d11b604d82015203603381018852018661048d565b604051937f3c7061746820643d276d35332e362032392e38632d322d31342e322d392e352d60208601527f32332e332d31362e342d32362e3520342e3720342e3720382e392031322e312060408601527f31302e322032322e3120322e352031382d352e342033322e322d32312e36203360608601527f322e322d332e3520302d362e362d2e372d392e322d312e3920332e372034203860808601527f2e3920362e332031352e3420362e332031362e3120302032342d31342e32203260a08601527518971b169999171913901037b830b1b4ba3c9e93981760511b60c0860152600d60fa1b60d68601526213979f60e91b60d786015260ba85528460e081011067ffffffffffffffff60e08701111761043f576126ff98691e17b830ba3a32b9371f60b11b60e0976133d596603c968996601f60f91b6126fa9e7303b34b2bba137bc1e93981018101a18101a1813960651b60208f9a6f034b21e93b6bc96b830ba3a32b93713960851b61010f8e8e8101604052651e3232b3399f60d11b6101008201526801e3830ba3a32b937160bd1b610106820152015261322a8d61011f9c8d9161321a825180938886850191016103d3565b01928051948592850191016103d3565b0198890152610133976132468251809360208c850191016103d3565b0196870152610134956132628251809360208a850191016103d3565b0161327682518093602089850191016103d3565b0161328a82518093602088850191016103d3565b0161329e82518093602087850191016103d3565b0191820152661e17b232b3399f60c91b61013e8201527f3c672069643d2765676727207472616e73666f726d3d277472616e736c617465610145820152661418101814939f60c91b6101658201527f3c7061746820643d276d35332e362032392e38632d322e352d31382d31332e3961016c8201527f2d32372e382d32312e362d32372e38732d31392e3120392e382d32312e36203261018c8201527f372e38632d322e3420313820352e352033322e322032312e362033322e3273326101ac8201527f342d31342e322032312e362d33322e327a272066696c6c3d2775726c28236d796101cc8201526b16b830ba3a32b9371493979f60a11b6101ec8201528251906133b3826101f88301602087016103d3565b0101631e17b39f60e11b61011882015203601c8101858501520183830161048d565b0190613715565b634e487b7160e01b600052601160045260246000fd5b6000908152602081209093505b82841061341a57505050840160200184612870610160612859565b80546020858a018101919091529093019281016133ff565b60ff19166020808b019190915293151560051b8901909301935087925061287091506101609050612859565b93607f169361283c565b6134746126ff916137db565b60405161348081610455565b600681526518985cd94d8d60d21b602082015260405161349f81610455565b600d81526c1a5b5859d94bdcdd99cade1b5b609a1b60208201526138c7565b90604051608081019260a0820160405260008452925b6000190192600a9060308282060185530492836134d457809350608091030191601f1901918252565b602561351461350e6126ff93613990565b93613990565b604051938491601160f91b9182602085015261353a8151809260206021880191016103d3565b830162111d1160e91b602182015261355c8251809360206024850191016103d3565b0190602482015203600581018452018261048d565b80511561357e5760200190565b634e487b7160e01b600052603260045260246000fd5b80516001101561357e5760400190565b80516002101561357e5760600190565b604051906060820182811067ffffffffffffffff82111761043f5760405260218252603160f81b6040837f73746f702d636f6c6f723a236166616661663b73746f702d6f7061636974793a60208201520152565b60266126ff916136ad9360405161361e81610455565b600481526020810190631d195e1d60e21b8252604051968794600f60fa1b602087015282516136518160218901876103d3565b8601600160fd1b60218201526136718251809360206022850191016103d3565b0193601f60f91b948560228201526136938251809360206023850191016103d3565b0191613c2f60f01b602384015251809360258401906103d3565b0190602582015203600681018452018261048d565b60266126ff916136ad936040516136d881610455565b600e815260208101906d1b1a5b99585c91dc98591a595b9d60921b8252604051968794600f60fa1b602087015282516136518160218901876103d3565b9060266126ff916040519061377d60438360208101977f786d6c6e733d22687474703a2f2f7777772e77332e6f72672f323030302f737689526203391160ed1b604083015261376d81518092602086860191016103d3565b810103602381018552018361048d565b60405161378981610455565b6003815260208101906273766760e81b82526136ad604051978895600f60fa1b602088015261367184516137c18160218b01896103d3565b880191600160fd1b602184015251809360228401906103d3565b906060918051806137ea575050565b9092506003926002906003600284010460021b92604051957f4142434445464748494a4b4c4d4e4f505152535455565758595a616263646566601f52603f936106707f6768696a6b6c6d6e6f707172737475767778797a303132333435363738392d5f18603f5260208801918689019560048260208901975b0194855183808260121c16519160009283538181600c1c1651600153818160061c16518853165185535181520193868510156138a3576004908390613863565b5050505091506040600093016040526003613d3d60f01b9106600204820352528252565b81516126ff9260269291156139795761390d6021604051836138f38295518092602080860191016103d3565b8101600b60fa1b602082015203600181018452018261048d565b935b604051948592643230ba309d60d91b60208501526139378151809260206025880191016103d3565b8301603b60f81b602582015261395682518093602088850191016103d3565b0161396a82518093602087850191016103d3565b0103600681018452018261048d565b5060405161398681610471565b600081529361390f565b908151820160208060405101937b5c75303030303031323334353637383961626364656662746e0066726015525b8281036139e15750505060008252602060405192601f1984820301845201604052565b6001949192948091019182519160ff83169285841015613a455761370082851b1615613a2157506008600293605c845301519082015301935b91906139be565b905060069250600f90818160041c1651601d531651601e5360195181520193613a1a565b50916b10000000000000040000000083821b1615613a6e57600292605c83538201530193613a1a565b81530193613a1a565b90815115613b1157613a8882613571565b51916001918291825b613a9d575b5050505090565b8051841015613b0c5782809495613b046020808960051b86010151926040519381613ad186935180928680870191016103d3565b8201885190613ae582868301878d016103d3565b01613af8825180938680850191016103d3565b0103808452018261048d565b950193613a91565b613a96565b5050604051613b1f81610471565b600081529056fea26469706673582212202a4294a6167c83805b51ca52cf0a34a39b1b24cb362e3c418f5b15da1595a52464736f6c63430008180033",
  "devdoc": {
    "kind": "dev",
    "methods": {},
    "version": 1
  },
  "userdoc": {
    "kind": "user",
    "methods": {},
    "version": 1
  },
  "storageLayout": {
    "storage": [
      {
        "astId": 14085,
        "contract": "contracts/elementa/nftFacet.sol:nftFacet",
        "label": "s",
        "offset": 0,
        "slot": "0",
        "type": "t_struct(AppStorage)14038_storage"
      }
    ],
    "types": {
      "t_address": {
        "encoding": "inplace",
        "label": "address",
        "numberOfBytes": "20"
      },
      "t_array(t_uint256)10_storage": {
        "base": "t_uint256",
        "encoding": "inplace",
        "label": "uint256[10]",
        "numberOfBytes": "320"
      },
      "t_bool": {
        "encoding": "inplace",
        "label": "bool",
        "numberOfBytes": "1"
      },
      "t_bytes32": {
        "encoding": "inplace",
        "label": "bytes32",
        "numberOfBytes": "32"
      },
      "t_enum(EquipmentType)14050": {
        "encoding": "inplace",
        "label": "enum EquipmentType",
        "numberOfBytes": "1"
      },
      "t_enum(UserType)14056": {
        "encoding": "inplace",
        "label": "enum UserType",
        "numberOfBytes": "1"
      },
      "t_mapping(t_address,t_bool)": {
        "encoding": "mapping",
        "key": "t_address",
        "label": "mapping(address => bool)",
        "numberOfBytes": "32",
        "value": "t_bool"
      },
      "t_mapping(t_address,t_struct(DelegateEOA)13910_storage)": {
        "encoding": "mapping",
        "key": "t_address",
        "label": "mapping(address => struct DelegateEOA)",
        "numberOfBytes": "32",
        "value": "t_struct(DelegateEOA)13910_storage"
      },
      "t_mapping(t_string_memory_ptr,t_address)": {
        "encoding": "mapping",
        "key": "t_string_memory_ptr",
        "label": "mapping(string => address)",
        "numberOfBytes": "32",
        "value": "t_address"
      },
      "t_mapping(t_string_memory_ptr,t_struct(User)13901_storage)": {
        "encoding": "mapping",
        "key": "t_string_memory_ptr",
        "label": "mapping(string => struct User)",
        "numberOfBytes": "32",
        "value": "t_struct(User)13901_storage"
      },
      "t_mapping(t_string_memory_ptr,t_uint256)": {
        "encoding": "mapping",
        "key": "t_string_memory_ptr",
        "label": "mapping(string => uint256)",
        "numberOfBytes": "32",
        "value": "t_uint256"
      },
      "t_mapping(t_uint256,t_array(t_uint256)10_storage)": {
        "encoding": "mapping",
        "key": "t_uint256",
        "label": "mapping(uint256 => uint256[10])",
        "numberOfBytes": "32",
        "value": "t_array(t_uint256)10_storage"
      },
      "t_mapping(t_uint256,t_struct(ElementaItem)13965_storage)": {
        "encoding": "mapping",
        "key": "t_uint256",
        "label": "mapping(uint256 => struct ElementaItem)",
        "numberOfBytes": "32",
        "value": "t_struct(ElementaItem)13965_storage"
      },
      "t_mapping(t_uint256,t_struct(ElementaNFT)13944_storage)": {
        "encoding": "mapping",
        "key": "t_uint256",
        "label": "mapping(uint256 => struct ElementaNFT)",
        "numberOfBytes": "32",
        "value": "t_struct(ElementaNFT)13944_storage"
      },
      "t_mapping(t_uint256,t_struct(ElementaToken)13970_storage)": {
        "encoding": "mapping",
        "key": "t_uint256",
        "label": "mapping(uint256 => struct ElementaToken)",
        "numberOfBytes": "32",
        "value": "t_struct(ElementaToken)13970_storage"
      },
      "t_mapping(t_uint256,t_struct(MysteryBox)13949_storage)": {
        "encoding": "mapping",
        "key": "t_uint256",
        "label": "mapping(uint256 => struct MysteryBox)",
        "numberOfBytes": "32",
        "value": "t_struct(MysteryBox)13949_storage"
      },
      "t_mapping(t_uint256,t_struct(levelInfo)13919_storage)": {
        "encoding": "mapping",
        "key": "t_uint256",
        "label": "mapping(uint256 => struct levelInfo)",
        "numberOfBytes": "32",
        "value": "t_struct(levelInfo)13919_storage"
      },
      "t_string_memory_ptr": {
        "encoding": "bytes",
        "label": "string",
        "numberOfBytes": "32"
      },
      "t_string_storage": {
        "encoding": "bytes",
        "label": "string",
        "numberOfBytes": "32"
      },
      "t_struct(AppStorage)14038_storage": {
        "encoding": "inplace",
        "label": "struct AppStorage",
        "members": [
          {
            "astId": 13983,
            "contract": "contracts/elementa/nftFacet.sol:nftFacet",
            "label": "contracts",
            "offset": 0,
            "slot": "0",
            "type": "t_mapping(t_string_memory_ptr,t_address)"
          },
          {
            "astId": 13988,
            "contract": "contracts/elementa/nftFacet.sol:nftFacet",
            "label": "users",
            "offset": 0,
            "slot": "1",
            "type": "t_mapping(t_string_memory_ptr,t_struct(User)13901_storage)"
          },
          {
            "astId": 13990,
            "contract": "contracts/elementa/nftFacet.sol:nftFacet",
            "label": "globalUserIndex",
            "offset": 0,
            "slot": "2",
            "type": "t_uint256"
          },
          {
            "astId": 13994,
            "contract": "contracts/elementa/nftFacet.sol:nftFacet",
            "label": "userIndex",
            "offset": 0,
            "slot": "3",
            "type": "t_mapping(t_string_memory_ptr,t_uint256)"
          },
          {
            "astId": 13999,
            "contract": "contracts/elementa/nftFacet.sol:nftFacet",
            "label": "delegateEOAs",
            "offset": 0,
            "slot": "4",
            "type": "t_mapping(t_address,t_struct(DelegateEOA)13910_storage)"
          },
          {
            "astId": 14004,
            "contract": "contracts/elementa/nftFacet.sol:nftFacet",
            "label": "elementaNFTs",
            "offset": 0,
            "slot": "5",
            "type": "t_mapping(t_uint256,t_struct(ElementaNFT)13944_storage)"
          },
          {
            "astId": 14009,
            "contract": "contracts/elementa/nftFacet.sol:nftFacet",
            "label": "levelInfos",
            "offset": 0,
            "slot": "6",
            "type": "t_mapping(t_uint256,t_struct(levelInfo)13919_storage)"
          },
          {
            "astId": 14013,
            "contract": "contracts/elementa/nftFacet.sol:nftFacet",
            "label": "isDelegateEOA",
            "offset": 0,
            "slot": "7",
            "type": "t_mapping(t_address,t_bool)"
          },
          {
            "astId": 14018,
            "contract": "contracts/elementa/nftFacet.sol:nftFacet",
            "label": "elementaItems",
            "offset": 0,
            "slot": "8",
            "type": "t_mapping(t_uint256,t_struct(ElementaItem)13965_storage)"
          },
          {
            "astId": 14024,
            "contract": "contracts/elementa/nftFacet.sol:nftFacet",
            "label": "equipItems",
            "offset": 0,
            "slot": "9",
            "type": "t_mapping(t_uint256,t_array(t_uint256)10_storage)"
          },
          {
            "astId": 14029,
            "contract": "contracts/elementa/nftFacet.sol:nftFacet",
            "label": "elementaToken",
            "offset": 0,
            "slot": "10",
            "type": "t_mapping(t_uint256,t_struct(ElementaToken)13970_storage)"
          },
          {
            "astId": 14032,
            "contract": "contracts/elementa/nftFacet.sol:nftFacet",
            "label": "oraklVRF",
            "offset": 0,
            "slot": "11",
            "type": "t_struct(OraklVRF)13979_storage"
          },
          {
            "astId": 14037,
            "contract": "contracts/elementa/nftFacet.sol:nftFacet",
            "label": "mysteryBoxes",
            "offset": 0,
            "slot": "13",
            "type": "t_mapping(t_uint256,t_struct(MysteryBox)13949_storage)"
          }
        ],
        "numberOfBytes": "448"
      },
      "t_struct(DelegateEOA)13910_storage": {
        "encoding": "inplace",
        "label": "struct DelegateEOA",
        "members": [
          {
            "astId": 13903,
            "contract": "contracts/elementa/nftFacet.sol:nftFacet",
            "label": "userIndex",
            "offset": 0,
            "slot": "0",
            "type": "t_uint256"
          },
          {
            "astId": 13905,
            "contract": "contracts/elementa/nftFacet.sol:nftFacet",
            "label": "userId",
            "offset": 0,
            "slot": "1",
            "type": "t_string_storage"
          },
          {
            "astId": 13907,
            "contract": "contracts/elementa/nftFacet.sol:nftFacet",
            "label": "connectAddress",
            "offset": 0,
            "slot": "2",
            "type": "t_address"
          },
          {
            "astId": 13909,
            "contract": "contracts/elementa/nftFacet.sol:nftFacet",
            "label": "isOwnNFT",
            "offset": 20,
            "slot": "2",
            "type": "t_bool"
          }
        ],
        "numberOfBytes": "96"
      },
      "t_struct(ElementaItem)13965_storage": {
        "encoding": "inplace",
        "label": "struct ElementaItem",
        "members": [
          {
            "astId": 13952,
            "contract": "contracts/elementa/nftFacet.sol:nftFacet",
            "label": "equipmentType",
            "offset": 0,
            "slot": "0",
            "type": "t_enum(EquipmentType)14050"
          },
          {
            "astId": 13954,
            "contract": "contracts/elementa/nftFacet.sol:nftFacet",
            "label": "itemId",
            "offset": 0,
            "slot": "1",
            "type": "t_uint256"
          },
          {
            "astId": 13956,
            "contract": "contracts/elementa/nftFacet.sol:nftFacet",
            "label": "name",
            "offset": 0,
            "slot": "2",
            "type": "t_string_storage"
          },
          {
            "astId": 13958,
            "contract": "contracts/elementa/nftFacet.sol:nftFacet",
            "label": "svgUri",
            "offset": 0,
            "slot": "3",
            "type": "t_string_storage"
          },
          {
            "astId": 13960,
            "contract": "contracts/elementa/nftFacet.sol:nftFacet",
            "label": "animateColors",
            "offset": 0,
            "slot": "4",
            "type": "t_string_storage"
          },
          {
            "astId": 13962,
            "contract": "contracts/elementa/nftFacet.sol:nftFacet",
            "label": "stopColor",
            "offset": 0,
            "slot": "5",
            "type": "t_string_storage"
          },
          {
            "astId": 13964,
            "contract": "contracts/elementa/nftFacet.sol:nftFacet",
            "label": "animateDuration",
            "offset": 0,
            "slot": "6",
            "type": "t_string_storage"
          }
        ],
        "numberOfBytes": "224"
      },
      "t_struct(ElementaNFT)13944_storage": {
        "encoding": "inplace",
        "label": "struct ElementaNFT",
        "members": [
          {
            "astId": 13921,
            "contract": "contracts/elementa/nftFacet.sol:nftFacet",
            "label": "ownerAddress",
            "offset": 0,
            "slot": "0",
            "type": "t_address"
          },
          {
            "astId": 13923,
            "contract": "contracts/elementa/nftFacet.sol:nftFacet",
            "label": "delegateAddress",
            "offset": 0,
            "slot": "1",
            "type": "t_address"
          },
          {
            "astId": 13925,
            "contract": "contracts/elementa/nftFacet.sol:nftFacet",
            "label": "nickName",
            "offset": 0,
            "slot": "2",
            "type": "t_string_storage"
          },
          {
            "astId": 13927,
            "contract": "contracts/elementa/nftFacet.sol:nftFacet",
            "label": "grade",
            "offset": 0,
            "slot": "3",
            "type": "t_uint256"
          },
          {
            "astId": 13929,
            "contract": "contracts/elementa/nftFacet.sol:nftFacet",
            "label": "level",
            "offset": 0,
            "slot": "4",
            "type": "t_uint256"
          },
          {
            "astId": 13931,
            "contract": "contracts/elementa/nftFacet.sol:nftFacet",
            "label": "exp",
            "offset": 0,
            "slot": "5",
            "type": "t_uint256"
          },
          {
            "astId": 13933,
            "contract": "contracts/elementa/nftFacet.sol:nftFacet",
            "label": "heartMax",
            "offset": 0,
            "slot": "6",
            "type": "t_uint256"
          },
          {
            "astId": 13935,
            "contract": "contracts/elementa/nftFacet.sol:nftFacet",
            "label": "heartPoint",
            "offset": 0,
            "slot": "7",
            "type": "t_uint256"
          },
          {
            "astId": 13937,
            "contract": "contracts/elementa/nftFacet.sol:nftFacet",
            "label": "plusHeartPoint",
            "offset": 0,
            "slot": "8",
            "type": "t_uint256"
          },
          {
            "astId": 13939,
            "contract": "contracts/elementa/nftFacet.sol:nftFacet",
            "label": "updateHeartTime",
            "offset": 0,
            "slot": "9",
            "type": "t_uint256"
          },
          {
            "astId": 13941,
            "contract": "contracts/elementa/nftFacet.sol:nftFacet",
            "label": "elementaPoint",
            "offset": 0,
            "slot": "10",
            "type": "t_uint256"
          },
          {
            "astId": 13943,
            "contract": "contracts/elementa/nftFacet.sol:nftFacet",
            "label": "originRandomValue",
            "offset": 0,
            "slot": "11",
            "type": "t_uint256"
          }
        ],
        "numberOfBytes": "384"
      },
      "t_struct(ElementaToken)13970_storage": {
        "encoding": "inplace",
        "label": "struct ElementaToken",
        "members": [
          {
            "astId": 13967,
            "contract": "contracts/elementa/nftFacet.sol:nftFacet",
            "label": "phaseMaxSupply",
            "offset": 0,
            "slot": "0",
            "type": "t_uint256"
          },
          {
            "astId": 13969,
            "contract": "contracts/elementa/nftFacet.sol:nftFacet",
            "label": "mintedSupply",
            "offset": 0,
            "slot": "1",
            "type": "t_uint256"
          }
        ],
        "numberOfBytes": "64"
      },
      "t_struct(MysteryBox)13949_storage": {
        "encoding": "inplace",
        "label": "struct MysteryBox",
        "members": [
          {
            "astId": 13946,
            "contract": "contracts/elementa/nftFacet.sol:nftFacet",
            "label": "boxId",
            "offset": 0,
            "slot": "0",
            "type": "t_uint256"
          },
          {
            "astId": 13948,
            "contract": "contracts/elementa/nftFacet.sol:nftFacet",
            "label": "uniqValue",
            "offset": 0,
            "slot": "1",
            "type": "t_uint256"
          }
        ],
        "numberOfBytes": "64"
      },
      "t_struct(OraklVRF)13979_storage": {
        "encoding": "inplace",
        "label": "struct OraklVRF",
        "members": [
          {
            "astId": 13972,
            "contract": "contracts/elementa/nftFacet.sol:nftFacet",
            "label": "keyHash",
            "offset": 0,
            "slot": "0",
            "type": "t_bytes32"
          },
          {
            "astId": 13974,
            "contract": "contracts/elementa/nftFacet.sol:nftFacet",
            "label": "accId",
            "offset": 0,
            "slot": "1",
            "type": "t_uint64"
          },
          {
            "astId": 13976,
            "contract": "contracts/elementa/nftFacet.sol:nftFacet",
            "label": "callbackGasLimit",
            "offset": 8,
            "slot": "1",
            "type": "t_uint32"
          },
          {
            "astId": 13978,
            "contract": "contracts/elementa/nftFacet.sol:nftFacet",
            "label": "numWords",
            "offset": 12,
            "slot": "1",
            "type": "t_uint32"
          }
        ],
        "numberOfBytes": "64"
      },
      "t_struct(User)13901_storage": {
        "encoding": "inplace",
        "label": "struct User",
        "members": [
          {
            "astId": 13887,
            "contract": "contracts/elementa/nftFacet.sol:nftFacet",
            "label": "userId",
            "offset": 0,
            "slot": "0",
            "type": "t_string_storage"
          },
          {
            "astId": 13889,
            "contract": "contracts/elementa/nftFacet.sol:nftFacet",
            "label": "nftId",
            "offset": 0,
            "slot": "1",
            "type": "t_uint256"
          },
          {
            "astId": 13891,
            "contract": "contracts/elementa/nftFacet.sol:nftFacet",
            "label": "reciveAddress",
            "offset": 0,
            "slot": "2",
            "type": "t_address"
          },
          {
            "astId": 13893,
            "contract": "contracts/elementa/nftFacet.sol:nftFacet",
            "label": "delegateEOA",
            "offset": 0,
            "slot": "3",
            "type": "t_address"
          },
          {
            "astId": 13896,
            "contract": "contracts/elementa/nftFacet.sol:nftFacet",
            "label": "userType",
            "offset": 20,
            "slot": "3",
            "type": "t_enum(UserType)14056"
          },
          {
            "astId": 13898,
            "contract": "contracts/elementa/nftFacet.sol:nftFacet",
            "label": "refferalId",
            "offset": 0,
            "slot": "4",
            "type": "t_string_storage"
          },
          {
            "astId": 13900,
            "contract": "contracts/elementa/nftFacet.sol:nftFacet",
            "label": "refferalCount",
            "offset": 0,
            "slot": "5",
            "type": "t_uint256"
          }
        ],
        "numberOfBytes": "192"
      },
      "t_struct(levelInfo)13919_storage": {
        "encoding": "inplace",
        "label": "struct levelInfo",
        "members": [
          {
            "astId": 13912,
            "contract": "contracts/elementa/nftFacet.sol:nftFacet",
            "label": "level",
            "offset": 0,
            "slot": "0",
            "type": "t_uint256"
          },
          {
            "astId": 13914,
            "contract": "contracts/elementa/nftFacet.sol:nftFacet",
            "label": "requireExp",
            "offset": 0,
            "slot": "1",
            "type": "t_uint256"
          },
          {
            "astId": 13916,
            "contract": "contracts/elementa/nftFacet.sol:nftFacet",
            "label": "levelUserCount",
            "offset": 0,
            "slot": "2",
            "type": "t_uint256"
          },
          {
            "astId": 13918,
            "contract": "contracts/elementa/nftFacet.sol:nftFacet",
            "label": "heartMax",
            "offset": 0,
            "slot": "3",
            "type": "t_uint256"
          }
        ],
        "numberOfBytes": "128"
      },
      "t_uint256": {
        "encoding": "inplace",
        "label": "uint256",
        "numberOfBytes": "32"
      },
      "t_uint32": {
        "encoding": "inplace",
        "label": "uint32",
        "numberOfBytes": "4"
      },
      "t_uint64": {
        "encoding": "inplace",
        "label": "uint64",
        "numberOfBytes": "8"
      }
    }
  }
}