{
  "address": "0x275498F4EA546B94b0924aa7Aa2B361F339cf844",
  "abi": [
    {
      "inputs": [
        {
          "internalType": "uint256",
          "name": "_tokenId",
          "type": "uint256"
        }
      ],
      "name": "_generateSVG",
      "outputs": [
        {
          "internalType": "string",
          "name": "",
          "type": "string"
        }
      ],
      "stateMutability": "view",
      "type": "function"
    },
    {
      "inputs": [
        {
          "internalType": "uint256",
          "name": "_tokenId",
          "type": "uint256"
        }
      ],
      "name": "_updateUri",
      "outputs": [],
      "stateMutability": "nonpayable",
      "type": "function"
    },
    {
      "inputs": [
        {
          "internalType": "uint256",
          "name": "_tokenId",
          "type": "uint256"
        }
      ],
      "name": "nft_generateOnlyCharacterSVG",
      "outputs": [
        {
          "internalType": "string",
          "name": "",
          "type": "string"
        }
      ],
      "stateMutability": "view",
      "type": "function"
    },
    {
      "inputs": [
        {
          "internalType": "uint256",
          "name": "_tokenId",
          "type": "uint256"
        }
      ],
      "name": "nft_getUri",
      "outputs": [
        {
          "internalType": "string",
          "name": "",
          "type": "string"
        }
      ],
      "stateMutability": "view",
      "type": "function"
    },
    {
      "inputs": [
        {
          "internalType": "uint256",
          "name": "_tokenId",
          "type": "uint256"
        }
      ],
      "name": "nft_onlyCharacterImage",
      "outputs": [
        {
          "internalType": "string",
          "name": "",
          "type": "string"
        }
      ],
      "stateMutability": "view",
      "type": "function"
    }
  ],
  "transactionHash": "0x043cc0aa25bc6f49c85f76ed8af96fe8a38da00d995893977cc389228665cb53",
  "args": [],
  "numDeployments": 104,
  "solcInputHash": "f8d361bc109a6aa75f26e469ecd0c873",
  "bytecode": "0x6080806040523461001657614dd3908161001c8239f35b600080fdfe60406080815260048036101561001457600080fd5b600091823560e01c8063055b59511461058c57806364b6e2241461056b578063906ef6521461012c578063a0154fa2146100f95763a78f804d1461005757600080fd5b8291346100f55760203660031901126100f5578151621b999d60ea1b81526003810184905260239020546001600160a01b0316803b156100f05783906024845180968193630ad4782960e31b83528635878401525af180156100e6576100bb578380f35b67ffffffffffffffff83116100d35750523880808380f35b634e487b7160e01b845260419052602483fd5b82513d86823e3d90fd5b505050fd5b5050fd5b508234610129576020366003190112610129575061011a610125923561077f565b9051918291826105d3565b0390f35b80fd5b50823461012957602080600319360112610567578335936101ab61014f86614744565b61018c602a8751809369456c656d656e7461202360b01b8883015261017c815180928a86860191016105b0565b810103600a81018452018261066a565b855161019781610632565b838152636e616d6560e01b85820152614783565b908451916101b883610632565b600b83526a3232b9b1b934b83a34b7b760a91b84840152855167ffffffffffffffff97906101008101898111828210176105545761030861030261032e9361030d938c5260cf81527f54686520456c656d656e7461206973206120756e69717565204e4654207468618a8201527f7420726570726573656e747320612063686172616374657220696e20746865208c8201526060987f456c656d656e746120756e6976657273652e204561636820456c656d656e746160608301527f20686173206120756e6971756520736574206f6620617474726962757465732060808301527f616e64206162696c69746965732074686174206d616b652069742076616c756160a08301527f626c6520696e207468652067616d652e0a0a68747470733a2f2f742e6d652f7460c08301526e1a1957d95b195b595b9d1857d89bdd608a1b60e0830152614783565b9361077f565b614601565b885161031881610632565b6005815264696d61676560d81b88820152614783565b9187519860808a01908a82109082111761055457885260039460038a5286885b8b8382106105455791505061036391506147f7565b5261036d886147f7565b506103778861481a565b526103818761481a565b5061038b8761482a565b526103958661482a565b506103b985516103a481610632565b60019760018252600b60fa1b86830152614cee565b9385518095607b60f81b868301526103da81518092886021860191016105b0565b8101607d60f81b6021820152036103fc6022600292600281018952018761066a565b8560609651988961045b575b6101258961011a8a8a83519061041d82610632565b600682526518985cd94d8d60d21b818301526f30b8383634b1b0ba34b7b717b539b7b760811b85519161044f83610632565b60108352820152614b3e565b90919293949650600360028a010460021b948851977f4142434445464748494a4b4c4d4e4f505152535455565758595a616263646566601f52603f6106707f6768696a6b6c6d6e6f707172737475767778797a303132333435363738392d5f18603f5283898b0196898c01968b8801965b610505575b5050505092890189525050613d3d60f01b6003909806600204820397909752528252610125935061011a8580808080610408565b8486910198848a51818160121c16518d538181600c1c16518653818160061c16518553165186538a51815201978689101561054057826104cc565b6104d1565b8282859201015201879061034e565b634e487b7160e01b885260418552602488fd5b5080fd5b508234610129576020366003190112610129575061011a6101259235613dbb565b508234610129576020366003190112610129575061011a6103086101259335613dbb565b60005b8381106105c35750506000910152565b81810151838201526020016105b3565b604091602082526105f381518092816020860152602086860191016105b0565b601f01601f1916010190565b610180810190811067ffffffffffffffff82111761061c57604052565b634e487b7160e01b600052604160045260246000fd5b6040810190811067ffffffffffffffff82111761061c57604052565b6020810190811067ffffffffffffffff82111761061c57604052565b90601f8019910116810190811067ffffffffffffffff82111761061c57604052565b60206106cd9193929360405194816106ad87935180928680870191016105b0565b82016106c1825180938680850191016105b0565b0103808552018361066a565b565b92936106cd9496959192966040519788946020966106f5815180928a808b0191016105b0565b8601610709825180938a80850191016105b0565b0161071c825180938980850191016105b0565b0161072f825180938880850191016105b0565b01610742825180938780850191016105b0565b016106c1825180938680850191016105b0565b906106cd60206040518461077282965180928580860191016105b0565b810103808552018361066a565b9081600052600560205260406000206040519061079b826105ff565b80546001600160a01b0390811683526001828101549091166020840152604051600283018054919260009280821c92918116801561382d575b60208410811461377e5783865290811561380657506001146137c8575b50509181610806600b9361016095038261066a565b60408501526003810154606085015260048101546080850152600581015460a0850152600681015460c0850152600781015460e085015260088101546101008501526009810154610120850152600a810154610140850152015491015260405161086f81610632565b60078152660ecd2caee84def60cb1b602082015261091960246040519261089584610632565b600b84526a030203020323530203235360ac1b602085015260405193816108c68693518092602080870191016105b0565b603d60f81b838201602081810192909252601160f91b60218201528351936108f492859260220191016105b0565b61011160f51b908301909101602281019190915281900360048101909152018261066a565b6116ba6112ed610bee610bcf60405161093181610632565b60028152611a5960f21b60208201526109c860246040519261095284610632565b600c84526b67726164654f75746c696e6560a01b602085015260405193816109848693518092602080870191016105b0565b8201603d60f81b6020820152601160f91b60218201526109ae8251809360206022850191016105b0565b0161011160f51b602282015203600481018452018261066a565b6040516109d481610632565b6002815261783160f01b6020820152610a1d6024604051926109f584610632565b6002845261302560f01b602085015260405193816109848693518092602080870191016105b0565b60405190610a2a82610632565b6002825261793160f01b6020830152610ab7602460405193610a4b85610632565b6002855261302560f01b60208601526040519481610a738793518092602080870191016105b0565b8201603d60f81b6020820152601160f91b6021820152610a9d8251809360206022850191016105b0565b0161011160f51b602282015203600481018552018361066a565b60405192610ac484610632565b60028452613c1960f11b6020850152610b53602460405195610ae587610632565b60048752633130302560e01b60208801526040519681610b0f8993518092602080870191016105b0565b8201603d60f81b6020820152601160f91b6021820152610b398251809360206022850191016105b0565b0161011160f51b602282015203600481018752018561066a565b610be96024604051610b6481610632565b60028152613c9960f11b6020820152604051610b7f81610632565b600481526020810190633130302560e01b82526040519983610bab8c95518092602080890191016105b0565b840191603d60f81b6020840152601160f91b602184015251809360228401906105b0565b0161011160f51b602282015203600481018852018661066a565b61483a565b6112e7610c9c6109ae610c516024604051610c0881610632565b60068152651bd9999cd95d60d21b6020820152604051610c2781610632565b60028152602081019061302560f01b82526040519583610bab8895518092602080890191016105b0565b60405190610c5e82610632565b60058252647374796c6560d81b6020830152610c976024610c7d614870565b936040519481610a738793518092602080870191016105b0565b61068c565b610f956026610e43604051610cb081610632565b600d81526c6174747269627574654e616d6560981b6020820152610d0c602460405192610cdc84610632565b600a84526939ba37b816b1b7b637b960b11b602085015260405193816109848693518092602080870191016105b0565b604051610d1881610632565b600681526576616c75657360d01b6020820152610d80602460405192610d3d84610632565b601784527f236166616661663b236432643464633b23616661666166000000000000000000602085015260405193816109848693518092602080870191016105b0565b60405190610d8d82610632565b6003825262323ab960e91b6020830152610dd7602460405193610daf85610632565b6002855261327360f01b60208601526040519481610a738793518092602080870191016105b0565b60405192610de484610632565b600b84526a1c995c19585d10dbdd5b9d60aa1b6020850152610e3e602460405195610e0e87610632565b600a875269696e646566696e69746560b01b60208801526040519681610b0f8993518092602080870191016105b0565b613837565b92610ecf6024604051610e5581610632565b6007815266616e696d61746560c81b6020820152604051968791600f60fa1b6020840152610e8d8151809260206021870191016105b0565b600160fd1b60218285010152610eaf82518093602060228588010191016105b0565b61179f60f11b60228383860101015282010103600481018752018561066a565b604051610edb81610632565b6004815263073746f760e41b6020820152604051948592600f60fa1b60208501528251610f0f8160218701602087016105b0565b8401600160fd1b6021820152610f2f8251809360206022850191016105b0565b601f60f91b60228383010152610f5183518094602060238686010191016105b0565b613c2f60f01b602384848401010152610f78845180956020602587878701010191016105b0565b010101601f60f91b6025820152600682820301825203018261066a565b611036610a73604051610fa781610632565b60068152651bd9999cd95d60d21b6020820152610ff6602460405192610fcc84610632565b60048452633130302560e01b602085015260405193816109848693518092602080870191016105b0565b610c97602460405161100781610632565b6005815260208101647374796c6560d81b8152611022614870565b9060405196879351809260208601906105b0565b90610c9760266111ab610bab60405161104e81610632565b600d81526c6174747269627574654e616d6560981b602082015261107a602460405192610cdc84610632565b60405161108681610632565b600681526576616c75657360d01b60208201526110ab602460405192610d3d84610632565b604051916110b883610632565b6003835262323ab960e91b60208401526111466024604051946110da86610632565b6002865261327360f01b602087015260405195816111028893518092602080870191016105b0565b8201603d60f81b6020820152601160f91b602182015261112c8251809360206022850191016105b0565b0161011160f51b602282015203600481018652018461066a565b610e3e602460405161115781610632565b600b8152602081016a1c995c19585d10dbdd5b9d60aa1b815260405161117c81610632565b600a8152610b39602082019269696e646566696e69746560b01b84526040519a8b9551809260208801906105b0565b9361122f60246040516111bd81610632565b6007815266616e696d61746560c81b6020820152604051978891600f60fa1b60208401526111f58151809260206021870191016105b0565b8201600160fd1b60218201526112158251809360206022850191016105b0565b0161179f60f11b602282015203600481018852018661066a565b60405161123b81610632565b6004815263073746f760e41b6020820152604051958692600f60fa1b6020850152825161126f8160218701602087016105b0565b8401600160fd1b602182015261128f8251809360206022850191016105b0565b01601f60f91b60228201526112ae8251809360206023850191016105b0565b01613c2f60f01b60238201526112ce8251809360206025850191016105b0565b01601f60f91b602582015203600681018552018361066a565b90614a25565b6116b461145a610bab60405161130281610632565b60028152611a5960f21b602082015261135360246040519261132384610632565b600a845269189858dad9dc9bdd5b9960b21b602085015260405193816109848693518092602080870191016105b0565b60405161135f81610632565b6002815261783160f01b60208201526113806024604051926109f584610632565b6040519061138d82610632565b60028252613c1960f11b60208301526113ae602460405193610a4b85610632565b604051926113bb84610632565b6002845261793160f01b60208501526114046024604051956113dc87610632565b6002875261302560f01b60208801526040519681610b0f8993518092602080870191016105b0565b610be9602460405161141581610632565b6002815260208101613c9960f11b815260405161143181610632565b60048152610bcf6020820192633130302560e01b84526040519b8c9551809260208801906105b0565b6112e76114f5610bab60405161146f81610632565b60068152651bd9999cd95d60d21b60208201526114946024604051926109f584610632565b610c9760246040516114a581610632565b600a8152602081016939ba37b816b1b7b637b960b11b81526040516114c981610632565b60078152610a9d60208201926611b3333333331960c91b845260405198899551809260208801906105b0565b6115c460266040519261150784610632565b6004845263073746f760e41b6020850152604051936115258561064e565b60008552604051948592600f60fa1b6020850152825161154c8160218701602087016105b0565b8401600160fd1b602182015261156c8251809360206022850191016105b0565b01601f60f91b602282015261158b8251809360206023850191016105b0565b01613c2f60f01b60238201526115ab8251809360206025850191016105b0565b01601f60f91b602582015203600681018452018261066a565b61165c610bab6040516115d681610632565b60068152651bd9999cd95d60d21b60208201526115fb602460405192610fcc84610632565b610c97602460405161160c81610632565b600a8152602081016939ba37b816b1b7b637b960b11b815260405161163081610632565b60078152610a9d6020820192662366396639663960c81b845260405198899551809260208801906105b0565b90610c9760266040519361166f85610632565b6004855263073746f760e41b60208601526040519461168d8661064e565b60008652604051958692600f60fa1b6020850152825161126f8160218701602087016105b0565b9061068c565b9261178960266040516116cc81610632565b60048152636465667360e01b6020820152604051906116ea8261064e565b60008252604051978892600f60fa1b602085015282516117118160218701602087016105b0565b8401600160fd1b60218201526117318251809360206022850191016105b0565b01601f60f91b60228201526117508251809360206023850191016105b0565b01613c2f60f01b60238201526117708251809360206025850191016105b0565b01601f60f91b602582015203600681018752018561066a565b6040519361179685610632565b60058552640eed2c8e8d60db1b602086015261180e6024604051966117ba88610632565b60048852633130302560e01b602089015260405197816117e48a93518092602080870191016105b0565b8201603d60f81b6020820152601160f91b6021820152610bcf8251809360206022850191016105b0565b6040519461181b86610632565b60068652651a195a59da1d60d21b60208701526118ae60246040519761184089610632565b60048952633130302560e01b60208a0152604051988161186a8b93518092602080870191016105b0565b8201603d60f81b6020820152601160f91b60218201526118948251809360206022850191016105b0565b0161011160f51b602282015203600481018952018761066a565b6118fb61191560266040516118c281610632565b600a81526020810169189858dad9dc9bdd5b9960b21b81526040519485926475726c282360d81b602085015251809260258501906105b0565b8101602960f81b602582015203600681018452018261066a565b6040519661192288610632565b6004885263199a5b1b60e21b60208901526040519160005b600481106137b357506119e39394959697985060288361199792603d60f81b6024830152601160f91b602583015261197c8151809260206026860191016105b0565b810161011160f51b602682015203600881018552018361066a565b6119fd60266040516119a881610632565b600c8152602081016b67726164654f75746c696e6560a01b81526040519687926475726c282360d81b602085015251809260258501906105b0565b8101602960f81b602582015203600681018652018461066a565b60405192611a0a84610632565b60068452657374726f6b6560d01b60208501526040519360005b6006811061379e575050918391611a82602a84611b469896603d60f81b6026610bab9a0152601160f91b6027830152611a678151809260206028860191016105b0565b810161011160f51b602882015203600a81018652018461066a565b60405193611a8f85610632565b600c85526b0e6e8e4ded6ca5aeed2c8e8d60a31b6020860152611ae2602460405196611aba88610632565b6002885261032360f41b602089015260405197816117e48a93518092602080870191016105b0565b611b416024604051611af381610632565b600d8152602081016c1cdd1c9bdad94b5a195a59da1d609a1b8152604051611b1a81610632565b60028152611894602082019261032360f41b84526040519c8d9551809260208801906105b0565b6106cf565b91611c15602660405194611b598661064e565b60008652604051611b6981610632565b60048152631c9958dd60e21b6020820152604051968792600f60fa1b60208501528251611b9d8160218701602087016105b0565b8401600160fd1b6021820152611bbd8251809360206022850191016105b0565b01601f60f91b6022820152611bdc8251809360206023850191016105b0565b01613c2f60f01b6023820152611bfc8251809360206025850191016105b0565b01601f60f91b602582015203600681018652018461066a565b60405190611c2282610632565b60098252687472616e73666f726d60b81b6020830152611c85602460405193611c4a85610632565b60158552747472616e736c6174652836322e352c2035352e352960581b60208601526040519481610a738793518092602080870191016105b0565b806000526005602052604060002060405190611ca0826105ff565b80546001600160a01b03908116835260018281015490911660208401526040516002830154909160009180821c91811615613794575b60208210600182161461377e578184526001811690811561375c575060011461371b575b509181611d0f600b936101609695038261066a565b60408401526003810154606084015260048101546080840152600581015460a0840152600681015460c0840152600781015460e084015260088101546101008401526009810154610120840152600a81015461014084015201549182910152601e8106603c01603c116137055760148106604a01604a116137055760328106601e01601e1161370557602881066032016032116137055760148106600f01600f116137055760146064820406600f01600f1161370557611f2c610bab604051611dd781610632565b60078152660ecd2caee84def60cb1b6020820152611e30602460405192611dfd84610632565b600d84526c030202d3130203135302031353609c1b602085015260405193816109848693518092602080870191016105b0565b604051611e3c81610632565b60058152640eed2c8e8d60db1b6020820152611e60602460405192610fcc84610632565b60405191611e6d83610632565b60068352651a195a59da1d60d21b6020840152611ebc602460405194611e9286610632565b60048652633130302560e01b602087015260405195816111028893518092602080870191016105b0565b610e3e6024604051611ecd81610632565b6013815260208101727072657365727665417370656374526174696f60681b8152604051611efa81610632565b600d8152610b3960208201926c1e135a5916535a59081b59595d609a1b84526040519a8b9551809260208801906105b0565b90611f44611f3f60148306600f01614744565b61386d565b611f5e611f5960146064850406600f01614744565b6138b9565b91611f81611f6e60c88306614744565b611f7b6101688406614744565b90613906565b90611fb6611f926101688306614744565b611fa1601e8406603c01614744565b611fb060148506604a01614744565b91613992565b90611fc46101688206614744565b611fd3601e8306603c01614744565b6014830660188101929190604a0183116137055761204b9161200e91611ff885614744565b9061200860328806601e01614744565b92613a4f565b9161201c6101688506614744565b9061203561202f601e8706603c01614744565b91614744565b9061204560288706603201614744565b92613b38565b916120596101688206614744565b90612069601e8206603c01614744565b9060148106604a01600e6014830601116137055760149006600e0161208d90614744565b9061209792613c21565b926040519485602081016120aa90613cdb565b600d60fa1b81526001810161139f60f11b905203601c19810187526003016120d2908761066a565b60405197889760208901651e3232b3399f60d11b9052602689016801e3830ba3a32b937160bd1b9052602f89016f034b21e93b6bc96b830ba3a32b93713960851b905280519081603f8b01916020019161212b926105b0565b880181519182603f83019160200191612143926105b0565b01603f81017303b34b2bba137bc1e93981018101a18101a1813960651b905281519182605383019160200191612178926105b0565b0160538101601f60f91b90528151918260548301916020019161219a926105b0565b01815191826054830191602001916121b1926105b0565b01815191826054830191602001916121c8926105b0565b01815191826054830191602001916121df926105b0565b691e17b830ba3a32b9371f60b11b605492909101918201527f3c616e696d617465206174747269627574654e616d653d277061747465726e54605e8201527f72616e73666f726d2720617474726962757465547970653d27584d4c27207479607e8201527f70653d27726f74617465272066726f6d3d27302032302032302720746f3d2733609e8201527f363020323020323027206475723d273130732720726570656174436f756e743d60be8201526e13b4b73232b334b734ba329390179f60891b60de820152661e17b232b3399f60c91b60ed8201527f3c672069643d2765676727207472616e73666f726d3d277472616e736c61746560f4820152691418981016989814939f60b11b6101148201527f3c7061746820643d276d35332e362032392e38632d322e352d31382d31332e3961011e8201527f2d32372e382d32312e362d32372e38732d31392e3120392e382d32312e36203261013e8201527f372e38632d322e3420313820352e352033322e322032312e362033322e32733261015e8201527f342d31342e322032312e362d33322e327a272066696c6c3d2775726c28236d7961017e8201526a16b830ba3a32b93714939f60a91b61019e8201526123af906101a9016148c4565b90661e17b830ba341f60c91b91828152815191826007830191602001916123d5926105b0565b016007016123e2906148c4565b90815260078101631e17b39f60e11b90520360141981018252600b01612408908261066a565b61241191614a78565b61241a90610755565b9160405161242781610632565b6001815260208101606760f81b905260405193849260208401600f60fa1b905282516021850181602086019161245c926105b0565b840160218101600160fd1b90528151918260228301916020019161247f926105b0565b0160228101601f60f91b9052815191826023830191602001916124a1926105b0565b0160238101613c2f60f01b9052815191826025830191602001916124c4926105b0565b0160258101601f60f91b9052036006810183526026016124e4908361066a565b6040516124f081610632565b60018152600f60fb1b60208201526040519061250b82610632565b600282526020820161352560f01b905260405191818392519081602085019160200191612537926105b0565b820160208101603d60f81b9052601160f91b602182015281519182602283019160200191612564926105b0565b0161011160f51b602282015203600481018252602401612584908261066a565b60405161259081610632565b60018152607960f81b6020820152604051906125ab82610632565b60038252602082016238352560e81b8152604051928284935190816020860191602001916125d8926105b0565b83019060208201603d60f81b9052601160f91b602183015251918260228301612600926105b0565b0161011160f51b602282015203600481018252602401612620908261066a565b60405161262c81610632565b600b81526a666f6e742d66616d696c7960a81b60208201526040519061265182610632565b600582526020820164105c9a585b60da1b905260405191818392519081602085019160200191612680926105b0565b820160208101603d60f81b9052601160f91b6021820152815191826022830191602001916126ad926105b0565b0161011160f51b6022820152036004810182526024016126cd908261066a565b6040516126d981610632565b6009815268666f6e742d73697a6560b81b6020820152604051906126fc82610632565b600282526020820161313560f01b905260405191818392519081602085019160200191612728926105b0565b820160208101603d60f81b9052601160f91b602182015281519182602283019160200191612755926105b0565b0161011160f51b602282015203600481018252602401612775908261066a565b6040519161278283610632565b6004835263199a5b1b60e21b6020840152604051926127a084610632565b6004845260208401630233030360e41b9052604051938185925190816020850191602001916127ce926105b0565b820160208101603d60f81b9052601160f91b6021820152815191826022830191602001916127fb926105b0565b0161011160f51b60228201520360048101845260240161281b908461066a565b6040519361282885610632565b600b85526a3a32bc3a16b0b731b437b960a91b60208601526040519461284d86610632565b6005865260208601641cdd185c9d60da1b90526040519581879251908160208501916020019161287c926105b0565b820160208101603d60f81b9052601160f91b6021820152815191826022830191602001916128a9926105b0565b0161011160f51b6022820152036004810186526024016128c9908661066a565b6128d2956106cf565b6128db82614744565b6040518091602082016c456c656d656e74614e4654202360981b905280519081602d8401916020019161290d926105b0565b810103600d81018252602d01612923908261066a565b61292c9161496b565b60405161293881610632565b60018152600f60fb1b60208201526040519061295382610632565b600282526020820161352560f01b90526040519181839251908160208501916020019161297f926105b0565b820160208101603d60f81b9052601160f91b6021820152815191826022830191602001916129ac926105b0565b0161011160f51b6022820152036004810182526024016129cc908261066a565b6040516129d881610632565b60018152607960f81b6020820152604051906129f382610632565b60038252602082016239302560e81b905260405191818392519081602085019160200191612a20926105b0565b820160208101603d60f81b9052601160f91b602182015281519182602283019160200191612a4d926105b0565b0161011160f51b602282015203600481018252602401612a6d908261066a565b604051612a7981610632565b600b81526a666f6e742d66616d696c7960a81b602082015260405190612a9e82610632565b600582526020820164105c9a585b60da1b905260405191818392519081602085019160200191612acd926105b0565b820160208101603d60f81b9052601160f91b602182015281519182602283019160200191612afa926105b0565b0161011160f51b602282015203600481018252602401612b1a908261066a565b604051612b2681610632565b6009815268666f6e742d73697a6560b81b602082015260405190612b4982610632565b600282526020820161031360f41b905260405191818392519081602085019160200191612b75926105b0565b820160208101603d60f81b9052601160f91b602182015281519182602283019160200191612ba2926105b0565b0161011160f51b602282015203600481018252602401612bc2908261066a565b60405191612bcf83610632565b6004835263199a5b1b60e21b602084015260405192612bed84610632565b6004845260208401630233030360e41b905260405193818592519081602085019160200191612c1b926105b0565b820160208101603d60f81b9052601160f91b602182015281519182602283019160200191612c48926105b0565b0161011160f51b602282015203600481018452602401612c68908461066a565b60405193612c7585610632565b600b85526a3a32bc3a16b0b731b437b960a91b602086015260405194612c9a86610632565b6005865260208601641cdd185c9d60da1b815260405196828893519081602086019160200191612cc9926105b0565b83019060208201603d60f81b9052601160f91b602183015251918260228301612cf1926105b0565b0161011160f51b602282015203600481018652602401612d11908661066a565b612d1a956106cf565b826000526005602052604060002060040154612d3590614744565b6040518091602082016602632bb32b61d160cd1b905280519081602784019160200191612d61926105b0565b810103600781018252602701612d77908261066a565b612d809161496b565b90604051612d8d81610632565b60018152600f60fb1b602082015260405190612da882610632565b600282526020820161352560f01b905260405191818392519081602085019160200191612dd4926105b0565b820160208101603d60f81b9052601160f91b602182015281519182602283019160200191612e01926105b0565b0161011160f51b602282015203600481018252602401612e21908261066a565b604051612e2d81610632565b60018152607960f81b602082015260405190612e4882610632565b60038252602082016239352560e81b905260405191818392519081602085019160200191612e75926105b0565b820160208101603d60f81b9052601160f91b602182015281519182602283019160200191612ea2926105b0565b0161011160f51b602282015203600481018252602401612ec2908261066a565b604051612ece81610632565b600b81526a666f6e742d66616d696c7960a81b602082015260405190612ef382610632565b600582526020820164105c9a585b60da1b905260405191818392519081602085019160200191612f22926105b0565b820160208101603d60f81b9052601160f91b602182015281519182602283019160200191612f4f926105b0565b0161011160f51b602282015203600481018252602401612f6f908261066a565b604051612f7b81610632565b6009815268666f6e742d73697a6560b81b602082015260405190612f9e82610632565b600282526020820161031360f41b905260405191818392519081602085019160200191612fca926105b0565b820160208101603d60f81b9052601160f91b602182015281519182602283019160200191612ff7926105b0565b0161011160f51b602282015203600481018252602401613017908261066a565b6040519161302483610632565b6004835263199a5b1b60e21b60208401526040519261304284610632565b6004845260208401630233030360e41b905260405193818592519081602085019160200191613070926105b0565b820160208101603d60f81b9052601160f91b60218201528151918260228301916020019161309d926105b0565b0161011160f51b6022820152036004810184526024016130bd908461066a565b604051936130ca85610632565b600b85526a3a32bc3a16b0b731b437b960a91b6020860152604051946130ef86610632565b6005865260208601641cdd185c9d60da1b90526040519581879251908160208501916020019161311e926105b0565b820160208101603d60f81b9052601160f91b60218201528151918260228301916020019161314b926105b0565b0161011160f51b60228201520360048101865260240161316b908661066a565b613174956106cf565b83600052600560205260406000206007015461318f90614744565b6040518091602082016b0131198991c189a981d903c160a51b905280519081602c840191602001916131c0926105b0565b810103600c81018252602c016131d6908261066a565b6131df9161496b565b926040516131ec81610632565b60018152600f60fb1b60208201526040519061320782610632565b60038252602082016239352560e81b905260405191818392519081602085019160200191613234926105b0565b820160208101603d60f81b9052601160f91b602182015281519182602283019160200191613261926105b0565b0161011160f51b602282015203600481018252602401613281908261066a565b60405161328d81610632565b60018152607960f81b6020820152604051906132a882610632565b60038252602082016239352560e81b9052604051918183925190816020850191602001916132d5926105b0565b820160208101603d60f81b9052601160f91b602182015281519182602283019160200191613302926105b0565b0161011160f51b602282015203600481018252602401613322908261066a565b60405161332e81610632565b600b81526a666f6e742d66616d696c7960a81b60208201526040519061335382610632565b600582526020820164105c9a585b60da1b905260405191818392519081602085019160200191613382926105b0565b820160208101603d60f81b9052601160f91b6021820152815191826022830191602001916133af926105b0565b0161011160f51b6022820152036004810182526024016133cf908261066a565b6040516133db81610632565b6009815268666f6e742d73697a6560b81b6020820152604051906133fe82610632565b600282526020820161031360f41b90526040519181839251908160208501916020019161342a926105b0565b820160208101603d60f81b9052601160f91b602182015281519182602283019160200191613457926105b0565b0161011160f51b602282015203600481018252602401613477908261066a565b6040519161348483610632565b6004835263199a5b1b60e21b6020840152604051926134a284610632565b6004845260208401630233030360e41b9052604051938185925190816020850191602001916134d0926105b0565b820160208101603d60f81b9052601160f91b6021820152815191826022830191602001916134fd926105b0565b0161011160f51b60228201520360048101845260240161351d908461066a565b6040519361352a85610632565b600b85526a3a32bc3a16b0b731b437b960a91b60208601526040519461354f86610632565b600386526020860162195b9960ea1b90526040519581879251908160208501916020019161357c926105b0565b820160208101603d60f81b9052601160f91b6021820152815191826022830191602001916135a9926105b0565b0161011160f51b6022820152036004810186526024016135c9908661066a565b6135d2956106cf565b9060005260056020526040600020600501546135ed90614744565b60405180916020820164032bc381d160dd1b905280519081602584019160200191613617926105b0565b81010360058101825260250161362d908261066a565b6136369161496b565b936040519686889751908160208a019160200191613653926105b0565b87018151918260208301916020019161366b926105b0565b0181519182602083019160200191613682926105b0565b0181519182602083019160200191613699926105b0565b01815191826020830191602001916136b0926105b0565b01815191826020830191602001916136c7926105b0565b01815191826020830191602001916136de926105b0565b01038082526020016136f0908261066a565b6136f991614a78565b61370290610755565b90565b634e487b7160e01b600052601160045260246000fd5b9050600283016000526020600020906000915b818310613742575050810160200181611cfa565b60018160209294939454838588010152019101919061372e565b60ff191660208086019190915291151560051b84019091019150829050611cfa565b634e487b7160e01b600052602260045260246000fd5b90607f1690611cd6565b80602080928401015182828901015201611a24565b80602080928c0101518282870101520161193a565b6000908152602081209092505b8183106137ec5750508101602001816108066107f1565b6001816020929493945483858801015201910191906137d5565b60ff191660208087019190915292151560051b8501909201925083915061080690506107f1565b92607f16926107d4565b906106cd929493604051958692602094613859815180928880890191016105b0565b840161072f825180938880850191016105b0565b906106cd602b6040518094683bb4b23a341e93981760b91b602083015261389e8151809260206029860191016105b0565b810161013960f51b602982015203600b81018552018361066a565b906106cd602c6040518094693432b4b3b43a1e93981760b11b60208301526138eb815180926020602a860191016105b0565b810161013960f51b602a82015203600c81018552018361066a565b604a6106cd919392936040519485917f7061747465726e5472616e73666f726d3d277472616e736c6174652830200000602084015261394f815180926020603e870191016105b0565b82016805240e4dee8c2e8ca560bb1b603e8201526139778251809360206047850191016105b0565b016201493960ed1b604782015203602a81018552018361066a565b6056906106cd9294936040519586927f3c726563742077696474683d273130302527206865696768743d27313030252760208501526a040ccd2d8d87a4ed0e6d8560ab1b60408501526139ef815180926020604b880191016105b0565b830161016160f51b604b820152613a10825180936020604d850191016105b0565b016201296160ed1b604d820152613a318251809360206050850191016105b0565b016512949390179f60d11b605082015203603681018552018361066a565b60649194936106cd936040519687937f3c636972636c652063783d273230272063793d2732302720723d2731352720666020860152680d2d8d87a4ed0e6d8560bb1b6040860152613aaa8151809260206049890191016105b0565b840161016160f51b6049820152613acb825180936020604b850191016105b0565b016201296160ed1b604b820152613aec825180936020604e850191016105b0565b0172129493903334b63616b7b830b1b4ba3c9e939760691b604e820152613b1d8251809360206061850191016105b0565b016213979f60e91b606182015203604481018552018361066a565b60649194936106cd936040519687937f3c636972636c652063783d273230272063793d2732302720723d2739272066696020860152670d8d87a4ed0e6d8560c31b6040860152613b928151809260206048890191016105b0565b840161016160f51b6048820152613bb3825180936020604a850191016105b0565b016201296160ed1b604a820152613bd4825180936020604d850191016105b0565b0172129493903334b63616b7b830b1b4ba3c9e939760691b604d820152613c058251809360206060850191016105b0565b01631390179f60e11b606082015203604481018552018361066a565b6053906106cd9294936040519586927f3c636972636c652063783d273230272063793d2732302720723d2733272066696020850152670d8d87a4ed0e6d8560c31b6040850152613c7b8151809260206048880191016105b0565b830161016160f51b6048820152613c9c825180936020604a850191016105b0565b016201296160ed1b604a820152613cbd825180936020604d850191016105b0565b016512949390179f60d11b604d82015203603381018552018361066a565b7f3c7061746820643d276d35332e362032392e38632d322d31342e322d392e352d81527f32332e332d31362e342d32362e3520342e3720342e3720382e392031322e312060208201527f31302e322032322e3120322e352031382d352e342033322e322d32312e36203360408201527f322e322d332e3520302d362e362d2e372d392e322d312e3920332e372034203860608201527f2e3920362e332031352e3420362e332031362e3120302032342d31342e32203260808201527518971b169999171913901037b830b1b4ba3c9e93981760511b60a082015260b60190565b9060009182526020916005835260409283822093805194613ddb866105ff565b60018060a01b0395868254168152600196600183015416848201526002820183519086988154918260011c926001811680156145f7575b89851081146145e3578486529081156145c15750600114614587575b505050613e438161016096979899038261066a565b8382015260038201546060820152600b600492838101546080840152600581015460a0840152600681015460c0840152600781015460e084015260088101546101008401526009810154610120840152600a81015461014084015201549384910152610168830692601e8106603c019384603c1161457457601482069687604a019586604a116145615760328406601e019182601e1161454e5760288506603201918260321161453b578a600f019a8b600f116145285760146064880406600f01998a600f11614515578b8a51613f1981610632565b600781528a8c83830193660ecd2caee84def60cb1b85528151613f3b81610632565b600b8152818101956a030203020313230203132360ac1b8752835195519081848801613f66926105b0565b850193603d60f81b968784870152601160f91b95866021820152602293519182858301613f92926105b0565b01968661011160f51b98898582015203926024988985858297018b5201613fb9908a61066a565b865196613fc588610632565b6005885286880196640eed2c8e8d60db1b885286825199613fe58b610632565b878b52828b018c633130302560e01b9c8d835286519c8d9451908188870161400c926105b0565b8401918a878401526021830152519182898301614028926105b0565b018587820152038781018a520161403f908961066a565b86825161404b81610632565b600681528281019a651a195a59da1d60d21b8c528c855161406b81610632565b8a815285810192835286519d8e94519081888701614088926105b0565b8401918a8784015260218301525191828983016140a4926105b0565b018587820152038781018b52016140bb908a61066a565b8151946140c786610632565b601386528186019a727072657365727665417370656374526174696f60681b8c528351916140f483610632565b600d8352838301946c1e135a5916535a59081b59595d609a1b8652519c8d98519081868b01614122926105b0565b880193840152602183015251918285830161413c926105b0565b019182015203908101855201614152908461066a565b61415b93613837565b9d61416590614744565b61416e9061386d565b9b61417890614744565b614181906138b9565b9860c8900661418f90614744565b61419889614744565b6141a191613906565b946141ab89614744565b6141b486614744565b6141bd85614744565b906141c792613992565b966141d18a614744565b6141da87614744565b601887019a868c11614501576141ef8c614744565b906141f990614744565b9161420393613a4f565b9861420d8b614744565b9161421788614744565b9161422190614744565b9061422b90614744565b9161423593613b38565b9861423f90614744565b9461424990614744565b93600e019283116144f1575050906142678c98979695949392614744565b9061427192613c21565b94885198878a01988a6142838b613cdb565b600d60fa1b8152600181016213979f60e91b905203601b1981018c52016142aa908b61066a565b51651e3232b3399f60d11b8c8201526801e3830ba3a32b937160bd1b60268201526f034b21e93b6bc96b830ba3a32b93713960851b602f8201528a51909b8c9b6142fb918391603f8f0191016105b0565b8a018151918289603f8401920191614312926105b0565b01603f81017303b34b2bba137bc1e93981018101a18101a1813960651b9052815191828860538401920191614346926105b0565b0160538101601f60f91b9052815191828760548401920191614367926105b0565b0181519182866054840192019161437d926105b0565b01815191828560548401920191614393926105b0565b019080518093605484019201916143a9926105b0565b691e17b830ba3a32b9371f60b11b60549290910191820152661e17b232b3399f60c91b605e8201527f3c672069643d2765676727207472616e73666f726d3d277472616e736c617465606582015268141a18101a1814939f60b91b60858201527f3c7061746820643d276d35332e362032392e38632d322e352d31382d31332e39608e8201527f2d32372e382d32312e362d32372e38732d31392e3120392e382d32312e36203260ae8201527f372e38632d322e3420313820352e352033322e322032312e362033322e32733260ce8201527f342d31342e322032312e362d33322e327a272066696c6c3d2775726c28236d7960ee8201526b16b830ba3a32b9371493979f60a11b61010e820152915161011a9290916144ce908390858401906105b0565b01908101631e17b39f60e11b90520360fe8101825261011e016136f0908261066a565b634e487b7160e01b815260118b52fd5b5050634e487b7160e01b8352505060118b52fd5b634e487b7160e01b845260118952602484fd5b634e487b7160e01b835260118852602483fd5b634e487b7160e01b825260118752602482fd5b634e487b7160e01b815260118652602490fd5b634e487b7160e01b825260118552602482fd5b634e487b7160e01b875260118352602487fd5b885286882097995089975b828b106145ae57505050968701840196613e4381610160613e2e565b8054848c01890152998701998101614592565b60ff1916858a0152505050151560051b810185019750613e4381610160613e2e565b634e487b7160e01b8b52602260045260248bfd5b93607f1693613e12565b806000606091519283614660575b5050613702915060405161462281610632565b600681526518985cd94d8d60d21b602082015260405161464181610632565b600d81526c1a5b5859d94bdcdd99cade1b5b609a1b6020820152614b3e565b9091506003906002906003600286010460021b92604051947f4142434445464748494a4b4c4d4e4f505152535455565758595a616263646566601f52603f916106707f6768696a6b6c6d6e6f707172737475767778797a303132333435363738392d5f18603f5260208701928688019560048360208901975b0195838751818160121c165188538181600c1c1651600153818160061c1651855316518553855181520194868610156147165760049084906146d9565b50505050509050613702946040600093016040526003613d3d60f01b9106600204820352528152388061460f565b90604051608081019260a0820160405260008452925b6000190192600a90603082820601855304928361475a57809350608091030191601f1901918252565b602561479a61479461370293614c07565b93614c07565b604051938491601160f91b918260208501526147c08151809260206021880191016105b0565b830162111d1160e91b60218201526147e28251809360206024850191016105b0565b0190602482015203600581018452018261066a565b8051156148045760200190565b634e487b7160e01b600052603260045260246000fd5b8051600110156148045760400190565b8051600210156148045760600190565b9194936106cd9360405196879360209561485c8151809289808a0191016105b0565b850161071c825180938980850191016105b0565b604051906060820182811067ffffffffffffffff82111761061c5760405260218252603160f81b6040837f73746f702d636f6c6f723a236166616661663b73746f702d6f7061636974793a60208201520152565b7f3c616e696d6174655472616e73666f726d206174747269627574654e616d653d81527f277472616e73666f726d2720747970653d277472616e736c617465272076616c60208201527f7565733d27302c303b20302c2d323b20302c303b20302c323b20302c3027206460408201527f75723d2732732720726570656174436f756e743d27696e646566696e6974652760608201526210179f60e91b608082015260830190565b602661370291614a109360405161498181610632565b600481526020810190631d195e1d60e21b8252604051968794600f60fa1b602087015282516149b48160218901876105b0565b8601600160fd1b60218201526149d48251809360206022850191016105b0565b0193601f60f91b948560228201526149f68251809360206023850191016105b0565b0191613c2f60f01b602384015251809360258401906105b0565b0190602582015203600681018452018261066a565b602661370291614a1093604051614a3b81610632565b600e815260208101906d1b1a5b99585c91dc98591a595b9d60921b8252604051968794600f60fa1b602087015282516149b48160218901876105b0565b9060266137029160405190614ae060438360208101977f786d6c6e733d22687474703a2f2f7777772e77332e6f72672f323030302f737689526203391160ed1b6040830152614ad081518092602086860191016105b0565b810103602381018552018361066a565b604051614aec81610632565b6003815260208101906273766760e81b8252614a10604051978895600f60fa1b60208801526149d48451614b248160218b01896105b0565b880191600160fd1b602184015251809360228401906105b0565b8151613702926026929115614bf057614b84602160405183614b6a8295518092602080860191016105b0565b8101600b60fa1b602082015203600181018452018261066a565b935b604051948592643230ba309d60d91b6020850152614bae8151809260206025880191016105b0565b8301603b60f81b6025820152614bcd82518093602088850191016105b0565b01614be182518093602087850191016105b0565b0103600681018452018261066a565b50604051614bfd8161064e565b6000815293614b86565b908151820160208060405101937b5c75303030303031323334353637383961626364656662746e0066726015525b828103614c585750505060008252602060405192601f1984820301845201604052565b6001949192948091019182519160ff83169285841015614cbc5761370082851b1615614c9857506008600293605c845301519082015301935b9190614c35565b905060069250600f90818160041c1651601d531651601e5360195181520193614c91565b50916b10000000000000040000000083821b1615614ce557600292605c83538201530193614c91565b81530193614c91565b90815115614d8857614cff826147f7565b51916001918291825b614d14575b5050505090565b8051841015614d835782809495614d7b6020808960051b86010151926040519381614d4886935180928680870191016105b0565b8201885190614d5c82868301878d016105b0565b01614d6f825180938680850191016105b0565b0103808452018261066a565b950193614d08565b614d0d565b5050604051614d968161064e565b600081529056fea264697066735822122020f7c8daa9507c4f3962a2e5750317acb1c06d8b58fb3d744907bba8aaefe87664736f6c63430008180033",
  "devdoc": {
    "kind": "dev",
    "methods": {},
    "version": 1
  },
  "userdoc": {
    "kind": "user",
    "methods": {},
    "version": 1
  },
  "storageLayout": {
    "storage": [
      {
        "astId": 14367,
        "contract": "contracts/elementa/nftFacet.sol:nftFacet",
        "label": "s",
        "offset": 0,
        "slot": "0",
        "type": "t_struct(AppStorage)14320_storage"
      }
    ],
    "types": {
      "t_address": {
        "encoding": "inplace",
        "label": "address",
        "numberOfBytes": "20"
      },
      "t_array(t_uint256)10_storage": {
        "base": "t_uint256",
        "encoding": "inplace",
        "label": "uint256[10]",
        "numberOfBytes": "320"
      },
      "t_bool": {
        "encoding": "inplace",
        "label": "bool",
        "numberOfBytes": "1"
      },
      "t_bytes32": {
        "encoding": "inplace",
        "label": "bytes32",
        "numberOfBytes": "32"
      },
      "t_enum(EquipmentType)14332": {
        "encoding": "inplace",
        "label": "enum EquipmentType",
        "numberOfBytes": "1"
      },
      "t_enum(UserType)14338": {
        "encoding": "inplace",
        "label": "enum UserType",
        "numberOfBytes": "1"
      },
      "t_mapping(t_address,t_bool)": {
        "encoding": "mapping",
        "key": "t_address",
        "label": "mapping(address => bool)",
        "numberOfBytes": "32",
        "value": "t_bool"
      },
      "t_mapping(t_address,t_struct(DelegateEOA)14192_storage)": {
        "encoding": "mapping",
        "key": "t_address",
        "label": "mapping(address => struct DelegateEOA)",
        "numberOfBytes": "32",
        "value": "t_struct(DelegateEOA)14192_storage"
      },
      "t_mapping(t_string_memory_ptr,t_address)": {
        "encoding": "mapping",
        "key": "t_string_memory_ptr",
        "label": "mapping(string => address)",
        "numberOfBytes": "32",
        "value": "t_address"
      },
      "t_mapping(t_string_memory_ptr,t_struct(User)14183_storage)": {
        "encoding": "mapping",
        "key": "t_string_memory_ptr",
        "label": "mapping(string => struct User)",
        "numberOfBytes": "32",
        "value": "t_struct(User)14183_storage"
      },
      "t_mapping(t_string_memory_ptr,t_uint256)": {
        "encoding": "mapping",
        "key": "t_string_memory_ptr",
        "label": "mapping(string => uint256)",
        "numberOfBytes": "32",
        "value": "t_uint256"
      },
      "t_mapping(t_uint256,t_array(t_uint256)10_storage)": {
        "encoding": "mapping",
        "key": "t_uint256",
        "label": "mapping(uint256 => uint256[10])",
        "numberOfBytes": "32",
        "value": "t_array(t_uint256)10_storage"
      },
      "t_mapping(t_uint256,t_struct(ElementaItem)14247_storage)": {
        "encoding": "mapping",
        "key": "t_uint256",
        "label": "mapping(uint256 => struct ElementaItem)",
        "numberOfBytes": "32",
        "value": "t_struct(ElementaItem)14247_storage"
      },
      "t_mapping(t_uint256,t_struct(ElementaNFT)14226_storage)": {
        "encoding": "mapping",
        "key": "t_uint256",
        "label": "mapping(uint256 => struct ElementaNFT)",
        "numberOfBytes": "32",
        "value": "t_struct(ElementaNFT)14226_storage"
      },
      "t_mapping(t_uint256,t_struct(ElementaToken)14252_storage)": {
        "encoding": "mapping",
        "key": "t_uint256",
        "label": "mapping(uint256 => struct ElementaToken)",
        "numberOfBytes": "32",
        "value": "t_struct(ElementaToken)14252_storage"
      },
      "t_mapping(t_uint256,t_struct(MysteryBox)14231_storage)": {
        "encoding": "mapping",
        "key": "t_uint256",
        "label": "mapping(uint256 => struct MysteryBox)",
        "numberOfBytes": "32",
        "value": "t_struct(MysteryBox)14231_storage"
      },
      "t_mapping(t_uint256,t_struct(levelInfo)14201_storage)": {
        "encoding": "mapping",
        "key": "t_uint256",
        "label": "mapping(uint256 => struct levelInfo)",
        "numberOfBytes": "32",
        "value": "t_struct(levelInfo)14201_storage"
      },
      "t_string_memory_ptr": {
        "encoding": "bytes",
        "label": "string",
        "numberOfBytes": "32"
      },
      "t_string_storage": {
        "encoding": "bytes",
        "label": "string",
        "numberOfBytes": "32"
      },
      "t_struct(AppStorage)14320_storage": {
        "encoding": "inplace",
        "label": "struct AppStorage",
        "members": [
          {
            "astId": 14265,
            "contract": "contracts/elementa/nftFacet.sol:nftFacet",
            "label": "contracts",
            "offset": 0,
            "slot": "0",
            "type": "t_mapping(t_string_memory_ptr,t_address)"
          },
          {
            "astId": 14270,
            "contract": "contracts/elementa/nftFacet.sol:nftFacet",
            "label": "users",
            "offset": 0,
            "slot": "1",
            "type": "t_mapping(t_string_memory_ptr,t_struct(User)14183_storage)"
          },
          {
            "astId": 14272,
            "contract": "contracts/elementa/nftFacet.sol:nftFacet",
            "label": "globalUserIndex",
            "offset": 0,
            "slot": "2",
            "type": "t_uint256"
          },
          {
            "astId": 14276,
            "contract": "contracts/elementa/nftFacet.sol:nftFacet",
            "label": "userIndex",
            "offset": 0,
            "slot": "3",
            "type": "t_mapping(t_string_memory_ptr,t_uint256)"
          },
          {
            "astId": 14281,
            "contract": "contracts/elementa/nftFacet.sol:nftFacet",
            "label": "delegateEOAs",
            "offset": 0,
            "slot": "4",
            "type": "t_mapping(t_address,t_struct(DelegateEOA)14192_storage)"
          },
          {
            "astId": 14286,
            "contract": "contracts/elementa/nftFacet.sol:nftFacet",
            "label": "elementaNFTs",
            "offset": 0,
            "slot": "5",
            "type": "t_mapping(t_uint256,t_struct(ElementaNFT)14226_storage)"
          },
          {
            "astId": 14291,
            "contract": "contracts/elementa/nftFacet.sol:nftFacet",
            "label": "levelInfos",
            "offset": 0,
            "slot": "6",
            "type": "t_mapping(t_uint256,t_struct(levelInfo)14201_storage)"
          },
          {
            "astId": 14295,
            "contract": "contracts/elementa/nftFacet.sol:nftFacet",
            "label": "isDelegateEOA",
            "offset": 0,
            "slot": "7",
            "type": "t_mapping(t_address,t_bool)"
          },
          {
            "astId": 14300,
            "contract": "contracts/elementa/nftFacet.sol:nftFacet",
            "label": "elementaItems",
            "offset": 0,
            "slot": "8",
            "type": "t_mapping(t_uint256,t_struct(ElementaItem)14247_storage)"
          },
          {
            "astId": 14306,
            "contract": "contracts/elementa/nftFacet.sol:nftFacet",
            "label": "equipItems",
            "offset": 0,
            "slot": "9",
            "type": "t_mapping(t_uint256,t_array(t_uint256)10_storage)"
          },
          {
            "astId": 14311,
            "contract": "contracts/elementa/nftFacet.sol:nftFacet",
            "label": "elementaToken",
            "offset": 0,
            "slot": "10",
            "type": "t_mapping(t_uint256,t_struct(ElementaToken)14252_storage)"
          },
          {
            "astId": 14314,
            "contract": "contracts/elementa/nftFacet.sol:nftFacet",
            "label": "oraklVRF",
            "offset": 0,
            "slot": "11",
            "type": "t_struct(OraklVRF)14261_storage"
          },
          {
            "astId": 14319,
            "contract": "contracts/elementa/nftFacet.sol:nftFacet",
            "label": "mysteryBoxes",
            "offset": 0,
            "slot": "13",
            "type": "t_mapping(t_uint256,t_struct(MysteryBox)14231_storage)"
          }
        ],
        "numberOfBytes": "448"
      },
      "t_struct(DelegateEOA)14192_storage": {
        "encoding": "inplace",
        "label": "struct DelegateEOA",
        "members": [
          {
            "astId": 14185,
            "contract": "contracts/elementa/nftFacet.sol:nftFacet",
            "label": "userIndex",
            "offset": 0,
            "slot": "0",
            "type": "t_uint256"
          },
          {
            "astId": 14187,
            "contract": "contracts/elementa/nftFacet.sol:nftFacet",
            "label": "userId",
            "offset": 0,
            "slot": "1",
            "type": "t_string_storage"
          },
          {
            "astId": 14189,
            "contract": "contracts/elementa/nftFacet.sol:nftFacet",
            "label": "connectAddress",
            "offset": 0,
            "slot": "2",
            "type": "t_address"
          },
          {
            "astId": 14191,
            "contract": "contracts/elementa/nftFacet.sol:nftFacet",
            "label": "isOwnNFT",
            "offset": 20,
            "slot": "2",
            "type": "t_bool"
          }
        ],
        "numberOfBytes": "96"
      },
      "t_struct(ElementaItem)14247_storage": {
        "encoding": "inplace",
        "label": "struct ElementaItem",
        "members": [
          {
            "astId": 14234,
            "contract": "contracts/elementa/nftFacet.sol:nftFacet",
            "label": "equipmentType",
            "offset": 0,
            "slot": "0",
            "type": "t_enum(EquipmentType)14332"
          },
          {
            "astId": 14236,
            "contract": "contracts/elementa/nftFacet.sol:nftFacet",
            "label": "itemId",
            "offset": 0,
            "slot": "1",
            "type": "t_uint256"
          },
          {
            "astId": 14238,
            "contract": "contracts/elementa/nftFacet.sol:nftFacet",
            "label": "name",
            "offset": 0,
            "slot": "2",
            "type": "t_string_storage"
          },
          {
            "astId": 14240,
            "contract": "contracts/elementa/nftFacet.sol:nftFacet",
            "label": "svgUri",
            "offset": 0,
            "slot": "3",
            "type": "t_string_storage"
          },
          {
            "astId": 14242,
            "contract": "contracts/elementa/nftFacet.sol:nftFacet",
            "label": "animateColors",
            "offset": 0,
            "slot": "4",
            "type": "t_string_storage"
          },
          {
            "astId": 14244,
            "contract": "contracts/elementa/nftFacet.sol:nftFacet",
            "label": "stopColor",
            "offset": 0,
            "slot": "5",
            "type": "t_string_storage"
          },
          {
            "astId": 14246,
            "contract": "contracts/elementa/nftFacet.sol:nftFacet",
            "label": "animateDuration",
            "offset": 0,
            "slot": "6",
            "type": "t_string_storage"
          }
        ],
        "numberOfBytes": "224"
      },
      "t_struct(ElementaNFT)14226_storage": {
        "encoding": "inplace",
        "label": "struct ElementaNFT",
        "members": [
          {
            "astId": 14203,
            "contract": "contracts/elementa/nftFacet.sol:nftFacet",
            "label": "ownerAddress",
            "offset": 0,
            "slot": "0",
            "type": "t_address"
          },
          {
            "astId": 14205,
            "contract": "contracts/elementa/nftFacet.sol:nftFacet",
            "label": "delegateAddress",
            "offset": 0,
            "slot": "1",
            "type": "t_address"
          },
          {
            "astId": 14207,
            "contract": "contracts/elementa/nftFacet.sol:nftFacet",
            "label": "nickName",
            "offset": 0,
            "slot": "2",
            "type": "t_string_storage"
          },
          {
            "astId": 14209,
            "contract": "contracts/elementa/nftFacet.sol:nftFacet",
            "label": "grade",
            "offset": 0,
            "slot": "3",
            "type": "t_uint256"
          },
          {
            "astId": 14211,
            "contract": "contracts/elementa/nftFacet.sol:nftFacet",
            "label": "level",
            "offset": 0,
            "slot": "4",
            "type": "t_uint256"
          },
          {
            "astId": 14213,
            "contract": "contracts/elementa/nftFacet.sol:nftFacet",
            "label": "exp",
            "offset": 0,
            "slot": "5",
            "type": "t_uint256"
          },
          {
            "astId": 14215,
            "contract": "contracts/elementa/nftFacet.sol:nftFacet",
            "label": "heartMax",
            "offset": 0,
            "slot": "6",
            "type": "t_uint256"
          },
          {
            "astId": 14217,
            "contract": "contracts/elementa/nftFacet.sol:nftFacet",
            "label": "heartPoint",
            "offset": 0,
            "slot": "7",
            "type": "t_uint256"
          },
          {
            "astId": 14219,
            "contract": "contracts/elementa/nftFacet.sol:nftFacet",
            "label": "plusHeartPoint",
            "offset": 0,
            "slot": "8",
            "type": "t_uint256"
          },
          {
            "astId": 14221,
            "contract": "contracts/elementa/nftFacet.sol:nftFacet",
            "label": "updateHeartTime",
            "offset": 0,
            "slot": "9",
            "type": "t_uint256"
          },
          {
            "astId": 14223,
            "contract": "contracts/elementa/nftFacet.sol:nftFacet",
            "label": "elementaPoint",
            "offset": 0,
            "slot": "10",
            "type": "t_uint256"
          },
          {
            "astId": 14225,
            "contract": "contracts/elementa/nftFacet.sol:nftFacet",
            "label": "originRandomValue",
            "offset": 0,
            "slot": "11",
            "type": "t_uint256"
          }
        ],
        "numberOfBytes": "384"
      },
      "t_struct(ElementaToken)14252_storage": {
        "encoding": "inplace",
        "label": "struct ElementaToken",
        "members": [
          {
            "astId": 14249,
            "contract": "contracts/elementa/nftFacet.sol:nftFacet",
            "label": "phaseMaxSupply",
            "offset": 0,
            "slot": "0",
            "type": "t_uint256"
          },
          {
            "astId": 14251,
            "contract": "contracts/elementa/nftFacet.sol:nftFacet",
            "label": "mintedSupply",
            "offset": 0,
            "slot": "1",
            "type": "t_uint256"
          }
        ],
        "numberOfBytes": "64"
      },
      "t_struct(MysteryBox)14231_storage": {
        "encoding": "inplace",
        "label": "struct MysteryBox",
        "members": [
          {
            "astId": 14228,
            "contract": "contracts/elementa/nftFacet.sol:nftFacet",
            "label": "boxId",
            "offset": 0,
            "slot": "0",
            "type": "t_uint256"
          },
          {
            "astId": 14230,
            "contract": "contracts/elementa/nftFacet.sol:nftFacet",
            "label": "uniqValue",
            "offset": 0,
            "slot": "1",
            "type": "t_uint256"
          }
        ],
        "numberOfBytes": "64"
      },
      "t_struct(OraklVRF)14261_storage": {
        "encoding": "inplace",
        "label": "struct OraklVRF",
        "members": [
          {
            "astId": 14254,
            "contract": "contracts/elementa/nftFacet.sol:nftFacet",
            "label": "keyHash",
            "offset": 0,
            "slot": "0",
            "type": "t_bytes32"
          },
          {
            "astId": 14256,
            "contract": "contracts/elementa/nftFacet.sol:nftFacet",
            "label": "accId",
            "offset": 0,
            "slot": "1",
            "type": "t_uint64"
          },
          {
            "astId": 14258,
            "contract": "contracts/elementa/nftFacet.sol:nftFacet",
            "label": "callbackGasLimit",
            "offset": 8,
            "slot": "1",
            "type": "t_uint32"
          },
          {
            "astId": 14260,
            "contract": "contracts/elementa/nftFacet.sol:nftFacet",
            "label": "numWords",
            "offset": 12,
            "slot": "1",
            "type": "t_uint32"
          }
        ],
        "numberOfBytes": "64"
      },
      "t_struct(User)14183_storage": {
        "encoding": "inplace",
        "label": "struct User",
        "members": [
          {
            "astId": 14169,
            "contract": "contracts/elementa/nftFacet.sol:nftFacet",
            "label": "userId",
            "offset": 0,
            "slot": "0",
            "type": "t_string_storage"
          },
          {
            "astId": 14171,
            "contract": "contracts/elementa/nftFacet.sol:nftFacet",
            "label": "nftId",
            "offset": 0,
            "slot": "1",
            "type": "t_uint256"
          },
          {
            "astId": 14173,
            "contract": "contracts/elementa/nftFacet.sol:nftFacet",
            "label": "reciveAddress",
            "offset": 0,
            "slot": "2",
            "type": "t_address"
          },
          {
            "astId": 14175,
            "contract": "contracts/elementa/nftFacet.sol:nftFacet",
            "label": "delegateEOA",
            "offset": 0,
            "slot": "3",
            "type": "t_address"
          },
          {
            "astId": 14178,
            "contract": "contracts/elementa/nftFacet.sol:nftFacet",
            "label": "userType",
            "offset": 20,
            "slot": "3",
            "type": "t_enum(UserType)14338"
          },
          {
            "astId": 14180,
            "contract": "contracts/elementa/nftFacet.sol:nftFacet",
            "label": "refferalId",
            "offset": 0,
            "slot": "4",
            "type": "t_string_storage"
          },
          {
            "astId": 14182,
            "contract": "contracts/elementa/nftFacet.sol:nftFacet",
            "label": "refferalCount",
            "offset": 0,
            "slot": "5",
            "type": "t_uint256"
          }
        ],
        "numberOfBytes": "192"
      },
      "t_struct(levelInfo)14201_storage": {
        "encoding": "inplace",
        "label": "struct levelInfo",
        "members": [
          {
            "astId": 14194,
            "contract": "contracts/elementa/nftFacet.sol:nftFacet",
            "label": "level",
            "offset": 0,
            "slot": "0",
            "type": "t_uint256"
          },
          {
            "astId": 14196,
            "contract": "contracts/elementa/nftFacet.sol:nftFacet",
            "label": "requireExp",
            "offset": 0,
            "slot": "1",
            "type": "t_uint256"
          },
          {
            "astId": 14198,
            "contract": "contracts/elementa/nftFacet.sol:nftFacet",
            "label": "levelUserCount",
            "offset": 0,
            "slot": "2",
            "type": "t_uint256"
          },
          {
            "astId": 14200,
            "contract": "contracts/elementa/nftFacet.sol:nftFacet",
            "label": "heartMax",
            "offset": 0,
            "slot": "3",
            "type": "t_uint256"
          }
        ],
        "numberOfBytes": "128"
      },
      "t_uint256": {
        "encoding": "inplace",
        "label": "uint256",
        "numberOfBytes": "32"
      },
      "t_uint32": {
        "encoding": "inplace",
        "label": "uint32",
        "numberOfBytes": "4"
      },
      "t_uint64": {
        "encoding": "inplace",
        "label": "uint64",
        "numberOfBytes": "8"
      }
    }
  }
}